
Lab2.elf:     file format elf32-littlearm

Sections:
Idx Name          Size      VMA       LMA       File off  Algn
  0 .isr_vector   0000010c  08000000  08000000  00010000  2**0
                  CONTENTS, ALLOC, LOAD, READONLY, DATA
  1 .text         00002b6c  0800010c  0800010c  0001010c  2**2
                  CONTENTS, ALLOC, LOAD, READONLY, CODE
  2 .rodata       000001f0  08002c78  08002c78  00012c78  2**2
                  CONTENTS, ALLOC, LOAD, READONLY, DATA
  3 .ARM.extab    00000000  08002e68  08002e68  0002000c  2**0
                  CONTENTS
  4 .ARM          00000000  08002e68  08002e68  0002000c  2**0
                  CONTENTS
  5 .preinit_array 00000000  08002e68  08002e68  0002000c  2**0
                  CONTENTS, ALLOC, LOAD, DATA
  6 .init_array   00000004  08002e68  08002e68  00012e68  2**2
                  CONTENTS, ALLOC, LOAD, DATA
  7 .fini_array   00000004  08002e6c  08002e6c  00012e6c  2**2
                  CONTENTS, ALLOC, LOAD, DATA
  8 .data         0000000c  20000000  08002e70  00020000  2**2
                  CONTENTS, ALLOC, LOAD, DATA
  9 .bss          000000cc  2000000c  08002e7c  0002000c  2**2
                  ALLOC
 10 ._user_heap_stack 00000600  200000d8  08002e7c  000200d8  2**0
                  ALLOC
 11 .ARM.attributes 00000029  00000000  00000000  0002000c  2**0
                  CONTENTS, READONLY
 12 .debug_info   0000978a  00000000  00000000  00020035  2**0
                  CONTENTS, READONLY, DEBUGGING, OCTETS
 13 .debug_abbrev 00001778  00000000  00000000  000297bf  2**0
                  CONTENTS, READONLY, DEBUGGING, OCTETS
 14 .debug_aranges 00000b38  00000000  00000000  0002af38  2**3
                  CONTENTS, READONLY, DEBUGGING, OCTETS
 15 .debug_ranges 00000ab0  00000000  00000000  0002ba70  2**3
                  CONTENTS, READONLY, DEBUGGING, OCTETS
 16 .debug_macro  00010b91  00000000  00000000  0002c520  2**0
                  CONTENTS, READONLY, DEBUGGING, OCTETS
 17 .debug_line   0000b2cd  00000000  00000000  0003d0b1  2**0
                  CONTENTS, READONLY, DEBUGGING, OCTETS
 18 .debug_str    00068720  00000000  00000000  0004837e  2**0
                  CONTENTS, READONLY, DEBUGGING, OCTETS
 19 .comment      00000053  00000000  00000000  000b0a9e  2**0
                  CONTENTS, READONLY
 20 .debug_frame  00002f10  00000000  00000000  000b0af4  2**2
                  CONTENTS, READONLY, DEBUGGING, OCTETS

Disassembly of section .text:

0800010c <__do_global_dtors_aux>:
 800010c:	b510      	push	{r4, lr}
 800010e:	4c05      	ldr	r4, [pc, #20]	; (8000124 <__do_global_dtors_aux+0x18>)
 8000110:	7823      	ldrb	r3, [r4, #0]
 8000112:	b933      	cbnz	r3, 8000122 <__do_global_dtors_aux+0x16>
 8000114:	4b04      	ldr	r3, [pc, #16]	; (8000128 <__do_global_dtors_aux+0x1c>)
 8000116:	b113      	cbz	r3, 800011e <__do_global_dtors_aux+0x12>
 8000118:	4804      	ldr	r0, [pc, #16]	; (800012c <__do_global_dtors_aux+0x20>)
 800011a:	f3af 8000 	nop.w
 800011e:	2301      	movs	r3, #1
 8000120:	7023      	strb	r3, [r4, #0]
 8000122:	bd10      	pop	{r4, pc}
 8000124:	2000000c 	.word	0x2000000c
 8000128:	00000000 	.word	0x00000000
 800012c:	08002c60 	.word	0x08002c60

08000130 <frame_dummy>:
 8000130:	b508      	push	{r3, lr}
 8000132:	4b03      	ldr	r3, [pc, #12]	; (8000140 <frame_dummy+0x10>)
 8000134:	b11b      	cbz	r3, 800013e <frame_dummy+0xe>
 8000136:	4903      	ldr	r1, [pc, #12]	; (8000144 <frame_dummy+0x14>)
 8000138:	4803      	ldr	r0, [pc, #12]	; (8000148 <frame_dummy+0x18>)
 800013a:	f3af 8000 	nop.w
 800013e:	bd08      	pop	{r3, pc}
 8000140:	00000000 	.word	0x00000000
 8000144:	20000010 	.word	0x20000010
 8000148:	08002c60 	.word	0x08002c60

0800014c <strlen>:
 800014c:	4603      	mov	r3, r0
 800014e:	f813 2b01 	ldrb.w	r2, [r3], #1
 8000152:	2a00      	cmp	r2, #0
 8000154:	d1fb      	bne.n	800014e <strlen+0x2>
 8000156:	1a18      	subs	r0, r3, r0
 8000158:	3801      	subs	r0, #1
 800015a:	4770      	bx	lr

0800015c <main>:
/**
  * @brief  The application entry point.
  * @retval int
  */
int main(void)
{
 800015c:	b5b0      	push	{r4, r5, r7, lr}
 800015e:	af00      	add	r7, sp, #0
  /* USER CODE END 1 */

  /* MCU Configuration--------------------------------------------------------*/

  /* Reset of all peripherals, Initializes the Flash interface and the Systick. */
  HAL_Init();
 8000160:	f001 f9ee 	bl	8001540 <HAL_Init>
  /* USER CODE BEGIN Init */

  /* USER CODE END Init */

  /* Configure the system clock */
  SystemClock_Config();
 8000164:	f000 fffa 	bl	800115c <SystemClock_Config>
  /* USER CODE BEGIN SysInit */

  /* USER CODE END SysInit */

  /* Initialize all configured peripherals */
  MX_GPIO_Init();
 8000168:	f001 f8ac 	bl	80012c4 <MX_GPIO_Init>
  MX_USART2_UART_Init();
 800016c:	f001 f880 	bl	8001270 <MX_USART2_UART_Init>
  MX_TIM4_Init();
 8000170:	f001 f830 	bl	80011d4 <MX_TIM4_Init>
  /* USER CODE BEGIN 2 */
  HAL_TIM_Base_Start(&htim4);
 8000174:	48bd      	ldr	r0, [pc, #756]	; (800046c <main+0x310>)
 8000176:	f002 f949 	bl	800240c <HAL_TIM_Base_Start>
  /* USER CODE END 2 */

  /* Infinite loop */
  /* USER CODE BEGIN WHILE */
  strcpy((char *)cliBufferTX, "State E\r\n");
 800017a:	4abd      	ldr	r2, [pc, #756]	; (8000470 <main+0x314>)
 800017c:	4bbd      	ldr	r3, [pc, #756]	; (8000474 <main+0x318>)
 800017e:	cb03      	ldmia	r3!, {r0, r1}
 8000180:	6010      	str	r0, [r2, #0]
 8000182:	6051      	str	r1, [r2, #4]
 8000184:	881b      	ldrh	r3, [r3, #0]
 8000186:	8113      	strh	r3, [r2, #8]
  while (1)
  {
    /* USER CODE END WHILE */
    /* USER CODE BEGIN 3 */
	  //Clears Screen
	  strcpy((char *)cliBufferTX, "echo -e \x1B[2J\x1B[0;0H");
 8000188:	4ab9      	ldr	r2, [pc, #740]	; (8000470 <main+0x314>)
 800018a:	4bbb      	ldr	r3, [pc, #748]	; (8000478 <main+0x31c>)
 800018c:	4615      	mov	r5, r2
 800018e:	461c      	mov	r4, r3
 8000190:	cc0f      	ldmia	r4!, {r0, r1, r2, r3}
 8000192:	6028      	str	r0, [r5, #0]
 8000194:	6069      	str	r1, [r5, #4]
 8000196:	60aa      	str	r2, [r5, #8]
 8000198:	60eb      	str	r3, [r5, #12]
 800019a:	8823      	ldrh	r3, [r4, #0]
 800019c:	78a2      	ldrb	r2, [r4, #2]
 800019e:	822b      	strh	r3, [r5, #16]
 80001a0:	4613      	mov	r3, r2
 80001a2:	74ab      	strb	r3, [r5, #18]
	  HAL_UART_Transmit(&huart2, cliBufferTX, strlen((char *) cliBufferTX), 1000);
 80001a4:	48b2      	ldr	r0, [pc, #712]	; (8000470 <main+0x314>)
 80001a6:	f7ff ffd1 	bl	800014c <strlen>
 80001aa:	4603      	mov	r3, r0
 80001ac:	b29a      	uxth	r2, r3
 80001ae:	f44f 737a 	mov.w	r3, #1000	; 0x3e8
 80001b2:	49af      	ldr	r1, [pc, #700]	; (8000470 <main+0x314>)
 80001b4:	48b1      	ldr	r0, [pc, #708]	; (800047c <main+0x320>)
 80001b6:	f002 fbbc 	bl	8002932 <HAL_UART_Transmit>
	  //STATE A
	  strcpy((char *)cliBufferTX, "State A\r\n");
 80001ba:	4aad      	ldr	r2, [pc, #692]	; (8000470 <main+0x314>)
 80001bc:	4bb0      	ldr	r3, [pc, #704]	; (8000480 <main+0x324>)
 80001be:	cb03      	ldmia	r3!, {r0, r1}
 80001c0:	6010      	str	r0, [r2, #0]
 80001c2:	6051      	str	r1, [r2, #4]
 80001c4:	881b      	ldrh	r3, [r3, #0]
 80001c6:	8113      	strh	r3, [r2, #8]
	  HAL_UART_Transmit(&huart2, cliBufferTX, strlen((char *) cliBufferTX), 1000);
 80001c8:	48a9      	ldr	r0, [pc, #676]	; (8000470 <main+0x314>)
 80001ca:	f7ff ffbf 	bl	800014c <strlen>
 80001ce:	4603      	mov	r3, r0
 80001d0:	b29a      	uxth	r2, r3
 80001d2:	f44f 737a 	mov.w	r3, #1000	; 0x3e8
 80001d6:	49a6      	ldr	r1, [pc, #664]	; (8000470 <main+0x314>)
 80001d8:	48a8      	ldr	r0, [pc, #672]	; (800047c <main+0x320>)
 80001da:	f002 fbaa 	bl	8002932 <HAL_UART_Transmit>
	  strcpy((char *)cliBufferTX, "  | -> |   |\r\n");
 80001de:	4aa4      	ldr	r2, [pc, #656]	; (8000470 <main+0x314>)
 80001e0:	4ba8      	ldr	r3, [pc, #672]	; (8000484 <main+0x328>)
 80001e2:	4614      	mov	r4, r2
 80001e4:	cb07      	ldmia	r3!, {r0, r1, r2}
 80001e6:	6020      	str	r0, [r4, #0]
 80001e8:	6061      	str	r1, [r4, #4]
 80001ea:	60a2      	str	r2, [r4, #8]
 80001ec:	881a      	ldrh	r2, [r3, #0]
 80001ee:	789b      	ldrb	r3, [r3, #2]
 80001f0:	81a2      	strh	r2, [r4, #12]
 80001f2:	73a3      	strb	r3, [r4, #14]
	  HAL_UART_Transmit(&huart2, cliBufferTX, strlen((char *) cliBufferTX), 1000);
 80001f4:	489e      	ldr	r0, [pc, #632]	; (8000470 <main+0x314>)
 80001f6:	f7ff ffa9 	bl	800014c <strlen>
 80001fa:	4603      	mov	r3, r0
 80001fc:	b29a      	uxth	r2, r3
 80001fe:	f44f 737a 	mov.w	r3, #1000	; 0x3e8
 8000202:	499b      	ldr	r1, [pc, #620]	; (8000470 <main+0x314>)
 8000204:	489d      	ldr	r0, [pc, #628]	; (800047c <main+0x320>)
 8000206:	f002 fb94 	bl	8002932 <HAL_UART_Transmit>
	  strcpy((char *)cliBufferTX, "__         __\r\n");
 800020a:	4a99      	ldr	r2, [pc, #612]	; (8000470 <main+0x314>)
 800020c:	4b9e      	ldr	r3, [pc, #632]	; (8000488 <main+0x32c>)
 800020e:	4614      	mov	r4, r2
 8000210:	461d      	mov	r5, r3
 8000212:	cd0f      	ldmia	r5!, {r0, r1, r2, r3}
 8000214:	6020      	str	r0, [r4, #0]
 8000216:	6061      	str	r1, [r4, #4]
 8000218:	60a2      	str	r2, [r4, #8]
 800021a:	60e3      	str	r3, [r4, #12]
	  HAL_UART_Transmit(&huart2, cliBufferTX, strlen((char *) cliBufferTX), 1000);
 800021c:	4894      	ldr	r0, [pc, #592]	; (8000470 <main+0x314>)
 800021e:	f7ff ff95 	bl	800014c <strlen>
 8000222:	4603      	mov	r3, r0
 8000224:	b29a      	uxth	r2, r3
 8000226:	f44f 737a 	mov.w	r3, #1000	; 0x3e8
 800022a:	4991      	ldr	r1, [pc, #580]	; (8000470 <main+0x314>)
 800022c:	4893      	ldr	r0, [pc, #588]	; (800047c <main+0x320>)
 800022e:	f002 fb80 	bl	8002932 <HAL_UART_Transmit>
	  strcpy((char *)cliBufferTX, "           x\r\n");
 8000232:	4a8f      	ldr	r2, [pc, #572]	; (8000470 <main+0x314>)
 8000234:	4b95      	ldr	r3, [pc, #596]	; (800048c <main+0x330>)
 8000236:	4614      	mov	r4, r2
 8000238:	cb07      	ldmia	r3!, {r0, r1, r2}
 800023a:	6020      	str	r0, [r4, #0]
 800023c:	6061      	str	r1, [r4, #4]
 800023e:	60a2      	str	r2, [r4, #8]
 8000240:	881a      	ldrh	r2, [r3, #0]
 8000242:	789b      	ldrb	r3, [r3, #2]
 8000244:	81a2      	strh	r2, [r4, #12]
 8000246:	73a3      	strb	r3, [r4, #14]
	  HAL_UART_Transmit(&huart2, cliBufferTX, strlen((char *) cliBufferTX), 1000);
 8000248:	4889      	ldr	r0, [pc, #548]	; (8000470 <main+0x314>)
 800024a:	f7ff ff7f 	bl	800014c <strlen>
 800024e:	4603      	mov	r3, r0
 8000250:	b29a      	uxth	r2, r3
 8000252:	f44f 737a 	mov.w	r3, #1000	; 0x3e8
 8000256:	4986      	ldr	r1, [pc, #536]	; (8000470 <main+0x314>)
 8000258:	4888      	ldr	r0, [pc, #544]	; (800047c <main+0x320>)
 800025a:	f002 fb6a 	bl	8002932 <HAL_UART_Transmit>
	  strcpy((char *)cliBufferTX, "__         __\r\n");
 800025e:	4a84      	ldr	r2, [pc, #528]	; (8000470 <main+0x314>)
 8000260:	4b89      	ldr	r3, [pc, #548]	; (8000488 <main+0x32c>)
 8000262:	4614      	mov	r4, r2
 8000264:	461d      	mov	r5, r3
 8000266:	cd0f      	ldmia	r5!, {r0, r1, r2, r3}
 8000268:	6020      	str	r0, [r4, #0]
 800026a:	6061      	str	r1, [r4, #4]
 800026c:	60a2      	str	r2, [r4, #8]
 800026e:	60e3      	str	r3, [r4, #12]
	  HAL_UART_Transmit(&huart2, cliBufferTX, strlen((char *) cliBufferTX), 1000);
 8000270:	487f      	ldr	r0, [pc, #508]	; (8000470 <main+0x314>)
 8000272:	f7ff ff6b 	bl	800014c <strlen>
 8000276:	4603      	mov	r3, r0
 8000278:	b29a      	uxth	r2, r3
 800027a:	f44f 737a 	mov.w	r3, #1000	; 0x3e8
 800027e:	497c      	ldr	r1, [pc, #496]	; (8000470 <main+0x314>)
 8000280:	487e      	ldr	r0, [pc, #504]	; (800047c <main+0x320>)
 8000282:	f002 fb56 	bl	8002932 <HAL_UART_Transmit>
	  strcpy((char *)cliBufferTX, " x\r\n");
 8000286:	4b7a      	ldr	r3, [pc, #488]	; (8000470 <main+0x314>)
 8000288:	4a81      	ldr	r2, [pc, #516]	; (8000490 <main+0x334>)
 800028a:	6810      	ldr	r0, [r2, #0]
 800028c:	6018      	str	r0, [r3, #0]
 800028e:	7912      	ldrb	r2, [r2, #4]
 8000290:	711a      	strb	r2, [r3, #4]
	  HAL_UART_Transmit(&huart2, cliBufferTX, strlen((char *) cliBufferTX), 1000);
 8000292:	4877      	ldr	r0, [pc, #476]	; (8000470 <main+0x314>)
 8000294:	f7ff ff5a 	bl	800014c <strlen>
 8000298:	4603      	mov	r3, r0
 800029a:	b29a      	uxth	r2, r3
 800029c:	f44f 737a 	mov.w	r3, #1000	; 0x3e8
 80002a0:	4973      	ldr	r1, [pc, #460]	; (8000470 <main+0x314>)
 80002a2:	4876      	ldr	r0, [pc, #472]	; (800047c <main+0x320>)
 80002a4:	f002 fb45 	bl	8002932 <HAL_UART_Transmit>
	  strcpy((char *)cliBufferTX, "__         __\r\n");
 80002a8:	4a71      	ldr	r2, [pc, #452]	; (8000470 <main+0x314>)
 80002aa:	4b77      	ldr	r3, [pc, #476]	; (8000488 <main+0x32c>)
 80002ac:	4614      	mov	r4, r2
 80002ae:	461d      	mov	r5, r3
 80002b0:	cd0f      	ldmia	r5!, {r0, r1, r2, r3}
 80002b2:	6020      	str	r0, [r4, #0]
 80002b4:	6061      	str	r1, [r4, #4]
 80002b6:	60a2      	str	r2, [r4, #8]
 80002b8:	60e3      	str	r3, [r4, #12]
	  HAL_UART_Transmit(&huart2, cliBufferTX, strlen((char *) cliBufferTX), 1000);
 80002ba:	486d      	ldr	r0, [pc, #436]	; (8000470 <main+0x314>)
 80002bc:	f7ff ff46 	bl	800014c <strlen>
 80002c0:	4603      	mov	r3, r0
 80002c2:	b29a      	uxth	r2, r3
 80002c4:	f44f 737a 	mov.w	r3, #1000	; 0x3e8
 80002c8:	4969      	ldr	r1, [pc, #420]	; (8000470 <main+0x314>)
 80002ca:	486c      	ldr	r0, [pc, #432]	; (800047c <main+0x320>)
 80002cc:	f002 fb31 	bl	8002932 <HAL_UART_Transmit>
	  strcpy((char *)cliBufferTX, "  |   | <- |\r\n");
 80002d0:	4a67      	ldr	r2, [pc, #412]	; (8000470 <main+0x314>)
 80002d2:	4b70      	ldr	r3, [pc, #448]	; (8000494 <main+0x338>)
 80002d4:	4614      	mov	r4, r2
 80002d6:	cb07      	ldmia	r3!, {r0, r1, r2}
 80002d8:	6020      	str	r0, [r4, #0]
 80002da:	6061      	str	r1, [r4, #4]
 80002dc:	60a2      	str	r2, [r4, #8]
 80002de:	881a      	ldrh	r2, [r3, #0]
 80002e0:	789b      	ldrb	r3, [r3, #2]
 80002e2:	81a2      	strh	r2, [r4, #12]
 80002e4:	73a3      	strb	r3, [r4, #14]
	  HAL_UART_Transmit(&huart2, cliBufferTX, strlen((char *) cliBufferTX), 1000);
 80002e6:	4862      	ldr	r0, [pc, #392]	; (8000470 <main+0x314>)
 80002e8:	f7ff ff30 	bl	800014c <strlen>
 80002ec:	4603      	mov	r3, r0
 80002ee:	b29a      	uxth	r2, r3
 80002f0:	f44f 737a 	mov.w	r3, #1000	; 0x3e8
 80002f4:	495e      	ldr	r1, [pc, #376]	; (8000470 <main+0x314>)
 80002f6:	4861      	ldr	r0, [pc, #388]	; (800047c <main+0x320>)
 80002f8:	f002 fb1b 	bl	8002932 <HAL_UART_Transmit>
	  HAL_Delay(15140);
 80002fc:	f643 3024 	movw	r0, #15140	; 0x3b24
 8000300:	f001 f980 	bl	8001604 <HAL_Delay>
	  strcpy((char *)cliBufferTX, "echo -e \x1B[2J\x1B[0;0H");
 8000304:	4a5a      	ldr	r2, [pc, #360]	; (8000470 <main+0x314>)
 8000306:	4b5c      	ldr	r3, [pc, #368]	; (8000478 <main+0x31c>)
 8000308:	4615      	mov	r5, r2
 800030a:	461c      	mov	r4, r3
 800030c:	cc0f      	ldmia	r4!, {r0, r1, r2, r3}
 800030e:	6028      	str	r0, [r5, #0]
 8000310:	6069      	str	r1, [r5, #4]
 8000312:	60aa      	str	r2, [r5, #8]
 8000314:	60eb      	str	r3, [r5, #12]
 8000316:	8823      	ldrh	r3, [r4, #0]
 8000318:	78a2      	ldrb	r2, [r4, #2]
 800031a:	822b      	strh	r3, [r5, #16]
 800031c:	4613      	mov	r3, r2
 800031e:	74ab      	strb	r3, [r5, #18]
	  HAL_UART_Transmit(&huart2, cliBufferTX, strlen((char *) cliBufferTX), 1000);
 8000320:	4853      	ldr	r0, [pc, #332]	; (8000470 <main+0x314>)
 8000322:	f7ff ff13 	bl	800014c <strlen>
 8000326:	4603      	mov	r3, r0
 8000328:	b29a      	uxth	r2, r3
 800032a:	f44f 737a 	mov.w	r3, #1000	; 0x3e8
 800032e:	4950      	ldr	r1, [pc, #320]	; (8000470 <main+0x314>)
 8000330:	4852      	ldr	r0, [pc, #328]	; (800047c <main+0x320>)
 8000332:	f002 fafe 	bl	8002932 <HAL_UART_Transmit>

	  //STATE B
	  strcpy((char *)cliBufferTX, "State B\r\n");
 8000336:	4a4e      	ldr	r2, [pc, #312]	; (8000470 <main+0x314>)
 8000338:	4b57      	ldr	r3, [pc, #348]	; (8000498 <main+0x33c>)
 800033a:	cb03      	ldmia	r3!, {r0, r1}
 800033c:	6010      	str	r0, [r2, #0]
 800033e:	6051      	str	r1, [r2, #4]
 8000340:	881b      	ldrh	r3, [r3, #0]
 8000342:	8113      	strh	r3, [r2, #8]
	  HAL_UART_Transmit(&huart2, cliBufferTX, strlen((char *) cliBufferTX), 1000);
 8000344:	484a      	ldr	r0, [pc, #296]	; (8000470 <main+0x314>)
 8000346:	f7ff ff01 	bl	800014c <strlen>
 800034a:	4603      	mov	r3, r0
 800034c:	b29a      	uxth	r2, r3
 800034e:	f44f 737a 	mov.w	r3, #1000	; 0x3e8
 8000352:	4947      	ldr	r1, [pc, #284]	; (8000470 <main+0x314>)
 8000354:	4849      	ldr	r0, [pc, #292]	; (800047c <main+0x320>)
 8000356:	f002 faec 	bl	8002932 <HAL_UART_Transmit>
	  strcpy((char *)cliBufferTX, "  | > |   |\r\n");
 800035a:	4a45      	ldr	r2, [pc, #276]	; (8000470 <main+0x314>)
 800035c:	4b4f      	ldr	r3, [pc, #316]	; (800049c <main+0x340>)
 800035e:	4614      	mov	r4, r2
 8000360:	cb07      	ldmia	r3!, {r0, r1, r2}
 8000362:	6020      	str	r0, [r4, #0]
 8000364:	6061      	str	r1, [r4, #4]
 8000366:	60a2      	str	r2, [r4, #8]
 8000368:	881b      	ldrh	r3, [r3, #0]
 800036a:	81a3      	strh	r3, [r4, #12]
	  HAL_UART_Transmit(&huart2, cliBufferTX, strlen((char *) cliBufferTX), 1000);
 800036c:	4840      	ldr	r0, [pc, #256]	; (8000470 <main+0x314>)
 800036e:	f7ff feed 	bl	800014c <strlen>
 8000372:	4603      	mov	r3, r0
 8000374:	b29a      	uxth	r2, r3
 8000376:	f44f 737a 	mov.w	r3, #1000	; 0x3e8
 800037a:	493d      	ldr	r1, [pc, #244]	; (8000470 <main+0x314>)
 800037c:	483f      	ldr	r0, [pc, #252]	; (800047c <main+0x320>)
 800037e:	f002 fad8 	bl	8002932 <HAL_UART_Transmit>
	  strcpy((char *)cliBufferTX, "__         __\r\n");
 8000382:	4a3b      	ldr	r2, [pc, #236]	; (8000470 <main+0x314>)
 8000384:	4b40      	ldr	r3, [pc, #256]	; (8000488 <main+0x32c>)
 8000386:	4614      	mov	r4, r2
 8000388:	461d      	mov	r5, r3
 800038a:	cd0f      	ldmia	r5!, {r0, r1, r2, r3}
 800038c:	6020      	str	r0, [r4, #0]
 800038e:	6061      	str	r1, [r4, #4]
 8000390:	60a2      	str	r2, [r4, #8]
 8000392:	60e3      	str	r3, [r4, #12]
	  HAL_UART_Transmit(&huart2, cliBufferTX, strlen((char *) cliBufferTX), 1000);
 8000394:	4836      	ldr	r0, [pc, #216]	; (8000470 <main+0x314>)
 8000396:	f7ff fed9 	bl	800014c <strlen>
 800039a:	4603      	mov	r3, r0
 800039c:	b29a      	uxth	r2, r3
 800039e:	f44f 737a 	mov.w	r3, #1000	; 0x3e8
 80003a2:	4933      	ldr	r1, [pc, #204]	; (8000470 <main+0x314>)
 80003a4:	4835      	ldr	r0, [pc, #212]	; (800047c <main+0x320>)
 80003a6:	f002 fac4 	bl	8002932 <HAL_UART_Transmit>
	  strcpy((char *)cliBufferTX, "           x\r\n");
 80003aa:	4a31      	ldr	r2, [pc, #196]	; (8000470 <main+0x314>)
 80003ac:	4b37      	ldr	r3, [pc, #220]	; (800048c <main+0x330>)
 80003ae:	4614      	mov	r4, r2
 80003b0:	cb07      	ldmia	r3!, {r0, r1, r2}
 80003b2:	6020      	str	r0, [r4, #0]
 80003b4:	6061      	str	r1, [r4, #4]
 80003b6:	60a2      	str	r2, [r4, #8]
 80003b8:	881a      	ldrh	r2, [r3, #0]
 80003ba:	789b      	ldrb	r3, [r3, #2]
 80003bc:	81a2      	strh	r2, [r4, #12]
 80003be:	73a3      	strb	r3, [r4, #14]
	  HAL_UART_Transmit(&huart2, cliBufferTX, strlen((char *) cliBufferTX), 1000);
 80003c0:	482b      	ldr	r0, [pc, #172]	; (8000470 <main+0x314>)
 80003c2:	f7ff fec3 	bl	800014c <strlen>
 80003c6:	4603      	mov	r3, r0
 80003c8:	b29a      	uxth	r2, r3
 80003ca:	f44f 737a 	mov.w	r3, #1000	; 0x3e8
 80003ce:	4928      	ldr	r1, [pc, #160]	; (8000470 <main+0x314>)
 80003d0:	482a      	ldr	r0, [pc, #168]	; (800047c <main+0x320>)
 80003d2:	f002 faae 	bl	8002932 <HAL_UART_Transmit>
	  strcpy((char *)cliBufferTX, "__         __\r\n");
 80003d6:	4a26      	ldr	r2, [pc, #152]	; (8000470 <main+0x314>)
 80003d8:	4b2b      	ldr	r3, [pc, #172]	; (8000488 <main+0x32c>)
 80003da:	4614      	mov	r4, r2
 80003dc:	461d      	mov	r5, r3
 80003de:	cd0f      	ldmia	r5!, {r0, r1, r2, r3}
 80003e0:	6020      	str	r0, [r4, #0]
 80003e2:	6061      	str	r1, [r4, #4]
 80003e4:	60a2      	str	r2, [r4, #8]
 80003e6:	60e3      	str	r3, [r4, #12]
	  HAL_UART_Transmit(&huart2, cliBufferTX, strlen((char *) cliBufferTX), 1000);
 80003e8:	4821      	ldr	r0, [pc, #132]	; (8000470 <main+0x314>)
 80003ea:	f7ff feaf 	bl	800014c <strlen>
 80003ee:	4603      	mov	r3, r0
 80003f0:	b29a      	uxth	r2, r3
 80003f2:	f44f 737a 	mov.w	r3, #1000	; 0x3e8
 80003f6:	491e      	ldr	r1, [pc, #120]	; (8000470 <main+0x314>)
 80003f8:	4820      	ldr	r0, [pc, #128]	; (800047c <main+0x320>)
 80003fa:	f002 fa9a 	bl	8002932 <HAL_UART_Transmit>
	  strcpy((char *)cliBufferTX, " x\r\n");
 80003fe:	4b1c      	ldr	r3, [pc, #112]	; (8000470 <main+0x314>)
 8000400:	4a23      	ldr	r2, [pc, #140]	; (8000490 <main+0x334>)
 8000402:	6810      	ldr	r0, [r2, #0]
 8000404:	6018      	str	r0, [r3, #0]
 8000406:	7912      	ldrb	r2, [r2, #4]
 8000408:	711a      	strb	r2, [r3, #4]
	  HAL_UART_Transmit(&huart2, cliBufferTX, strlen((char *) cliBufferTX), 1000);
 800040a:	4819      	ldr	r0, [pc, #100]	; (8000470 <main+0x314>)
 800040c:	f7ff fe9e 	bl	800014c <strlen>
 8000410:	4603      	mov	r3, r0
 8000412:	b29a      	uxth	r2, r3
 8000414:	f44f 737a 	mov.w	r3, #1000	; 0x3e8
 8000418:	4915      	ldr	r1, [pc, #84]	; (8000470 <main+0x314>)
 800041a:	4818      	ldr	r0, [pc, #96]	; (800047c <main+0x320>)
 800041c:	f002 fa89 	bl	8002932 <HAL_UART_Transmit>
	  strcpy((char *)cliBufferTX, "__         __\r\n");
 8000420:	4a13      	ldr	r2, [pc, #76]	; (8000470 <main+0x314>)
 8000422:	4b19      	ldr	r3, [pc, #100]	; (8000488 <main+0x32c>)
 8000424:	4614      	mov	r4, r2
 8000426:	461d      	mov	r5, r3
 8000428:	cd0f      	ldmia	r5!, {r0, r1, r2, r3}
 800042a:	6020      	str	r0, [r4, #0]
 800042c:	6061      	str	r1, [r4, #4]
 800042e:	60a2      	str	r2, [r4, #8]
 8000430:	60e3      	str	r3, [r4, #12]
	  HAL_UART_Transmit(&huart2, cliBufferTX, strlen((char *) cliBufferTX), 1000);
 8000432:	480f      	ldr	r0, [pc, #60]	; (8000470 <main+0x314>)
 8000434:	f7ff fe8a 	bl	800014c <strlen>
 8000438:	4603      	mov	r3, r0
 800043a:	b29a      	uxth	r2, r3
 800043c:	f44f 737a 	mov.w	r3, #1000	; 0x3e8
 8000440:	490b      	ldr	r1, [pc, #44]	; (8000470 <main+0x314>)
 8000442:	480e      	ldr	r0, [pc, #56]	; (800047c <main+0x320>)
 8000444:	f002 fa75 	bl	8002932 <HAL_UART_Transmit>
	  strcpy((char *)cliBufferTX, "  |   | < |\r\n");
 8000448:	4a09      	ldr	r2, [pc, #36]	; (8000470 <main+0x314>)
 800044a:	4b15      	ldr	r3, [pc, #84]	; (80004a0 <main+0x344>)
 800044c:	4614      	mov	r4, r2
 800044e:	cb07      	ldmia	r3!, {r0, r1, r2}
 8000450:	6020      	str	r0, [r4, #0]
 8000452:	6061      	str	r1, [r4, #4]
 8000454:	60a2      	str	r2, [r4, #8]
 8000456:	881b      	ldrh	r3, [r3, #0]
 8000458:	81a3      	strh	r3, [r4, #12]
	  HAL_UART_Transmit(&huart2, cliBufferTX, strlen((char *) cliBufferTX), 1000);
 800045a:	4805      	ldr	r0, [pc, #20]	; (8000470 <main+0x314>)
 800045c:	f7ff fe76 	bl	800014c <strlen>
 8000460:	4603      	mov	r3, r0
 8000462:	b29a      	uxth	r2, r3
 8000464:	f44f 737a 	mov.w	r3, #1000	; 0x3e8
 8000468:	e01c      	b.n	80004a4 <main+0x348>
 800046a:	bf00      	nop
 800046c:	20000028 	.word	0x20000028
 8000470:	20000070 	.word	0x20000070
 8000474:	08002c78 	.word	0x08002c78
 8000478:	08002c84 	.word	0x08002c84
 800047c:	20000090 	.word	0x20000090
 8000480:	08002c98 	.word	0x08002c98
 8000484:	08002ca4 	.word	0x08002ca4
 8000488:	08002cb4 	.word	0x08002cb4
 800048c:	08002cc4 	.word	0x08002cc4
 8000490:	08002cd4 	.word	0x08002cd4
 8000494:	08002cdc 	.word	0x08002cdc
 8000498:	08002cec 	.word	0x08002cec
 800049c:	08002cf8 	.word	0x08002cf8
 80004a0:	08002d08 	.word	0x08002d08
 80004a4:	49be      	ldr	r1, [pc, #760]	; (80007a0 <main+0x644>)
 80004a6:	48bf      	ldr	r0, [pc, #764]	; (80007a4 <main+0x648>)
 80004a8:	f002 fa43 	bl	8002932 <HAL_UART_Transmit>
	  HAL_Delay(2860);
 80004ac:	f640 302c 	movw	r0, #2860	; 0xb2c
 80004b0:	f001 f8a8 	bl	8001604 <HAL_Delay>
	  strcpy((char *)cliBufferTX, "echo -e \x1B[2J\x1B[0;0H");
 80004b4:	4aba      	ldr	r2, [pc, #744]	; (80007a0 <main+0x644>)
 80004b6:	4bbc      	ldr	r3, [pc, #752]	; (80007a8 <main+0x64c>)
 80004b8:	4615      	mov	r5, r2
 80004ba:	461c      	mov	r4, r3
 80004bc:	cc0f      	ldmia	r4!, {r0, r1, r2, r3}
 80004be:	6028      	str	r0, [r5, #0]
 80004c0:	6069      	str	r1, [r5, #4]
 80004c2:	60aa      	str	r2, [r5, #8]
 80004c4:	60eb      	str	r3, [r5, #12]
 80004c6:	8823      	ldrh	r3, [r4, #0]
 80004c8:	78a2      	ldrb	r2, [r4, #2]
 80004ca:	822b      	strh	r3, [r5, #16]
 80004cc:	4613      	mov	r3, r2
 80004ce:	74ab      	strb	r3, [r5, #18]
	  HAL_UART_Transmit(&huart2, cliBufferTX, strlen((char *) cliBufferTX), 1000);
 80004d0:	48b3      	ldr	r0, [pc, #716]	; (80007a0 <main+0x644>)
 80004d2:	f7ff fe3b 	bl	800014c <strlen>
 80004d6:	4603      	mov	r3, r0
 80004d8:	b29a      	uxth	r2, r3
 80004da:	f44f 737a 	mov.w	r3, #1000	; 0x3e8
 80004de:	49b0      	ldr	r1, [pc, #704]	; (80007a0 <main+0x644>)
 80004e0:	48b0      	ldr	r0, [pc, #704]	; (80007a4 <main+0x648>)
 80004e2:	f002 fa26 	bl	8002932 <HAL_UART_Transmit>

	  //STATE C
	  strcpy((char *)cliBufferTX, "State C\r\n");
 80004e6:	4aae      	ldr	r2, [pc, #696]	; (80007a0 <main+0x644>)
 80004e8:	4bb0      	ldr	r3, [pc, #704]	; (80007ac <main+0x650>)
 80004ea:	cb03      	ldmia	r3!, {r0, r1}
 80004ec:	6010      	str	r0, [r2, #0]
 80004ee:	6051      	str	r1, [r2, #4]
 80004f0:	881b      	ldrh	r3, [r3, #0]
 80004f2:	8113      	strh	r3, [r2, #8]
	  HAL_UART_Transmit(&huart2, cliBufferTX, strlen((char *) cliBufferTX), 1000);
 80004f4:	48aa      	ldr	r0, [pc, #680]	; (80007a0 <main+0x644>)
 80004f6:	f7ff fe29 	bl	800014c <strlen>
 80004fa:	4603      	mov	r3, r0
 80004fc:	b29a      	uxth	r2, r3
 80004fe:	f44f 737a 	mov.w	r3, #1000	; 0x3e8
 8000502:	49a7      	ldr	r1, [pc, #668]	; (80007a0 <main+0x644>)
 8000504:	48a7      	ldr	r0, [pc, #668]	; (80007a4 <main+0x648>)
 8000506:	f002 fa14 	bl	8002932 <HAL_UART_Transmit>
	  strcpy((char *)cliBufferTX, "  | | |   |\r\n");
 800050a:	4aa5      	ldr	r2, [pc, #660]	; (80007a0 <main+0x644>)
 800050c:	4ba8      	ldr	r3, [pc, #672]	; (80007b0 <main+0x654>)
 800050e:	4614      	mov	r4, r2
 8000510:	cb07      	ldmia	r3!, {r0, r1, r2}
 8000512:	6020      	str	r0, [r4, #0]
 8000514:	6061      	str	r1, [r4, #4]
 8000516:	60a2      	str	r2, [r4, #8]
 8000518:	881b      	ldrh	r3, [r3, #0]
 800051a:	81a3      	strh	r3, [r4, #12]
	  HAL_UART_Transmit(&huart2, cliBufferTX, strlen((char *) cliBufferTX), 1000);
 800051c:	48a0      	ldr	r0, [pc, #640]	; (80007a0 <main+0x644>)
 800051e:	f7ff fe15 	bl	800014c <strlen>
 8000522:	4603      	mov	r3, r0
 8000524:	b29a      	uxth	r2, r3
 8000526:	f44f 737a 	mov.w	r3, #1000	; 0x3e8
 800052a:	499d      	ldr	r1, [pc, #628]	; (80007a0 <main+0x644>)
 800052c:	489d      	ldr	r0, [pc, #628]	; (80007a4 <main+0x648>)
 800052e:	f002 fa00 	bl	8002932 <HAL_UART_Transmit>
	  strcpy((char *)cliBufferTX, "__  v      __\r\n");
 8000532:	4a9b      	ldr	r2, [pc, #620]	; (80007a0 <main+0x644>)
 8000534:	4b9f      	ldr	r3, [pc, #636]	; (80007b4 <main+0x658>)
 8000536:	4614      	mov	r4, r2
 8000538:	461d      	mov	r5, r3
 800053a:	cd0f      	ldmia	r5!, {r0, r1, r2, r3}
 800053c:	6020      	str	r0, [r4, #0]
 800053e:	6061      	str	r1, [r4, #4]
 8000540:	60a2      	str	r2, [r4, #8]
 8000542:	60e3      	str	r3, [r4, #12]
	  HAL_UART_Transmit(&huart2, cliBufferTX, strlen((char *) cliBufferTX), 1000);
 8000544:	4896      	ldr	r0, [pc, #600]	; (80007a0 <main+0x644>)
 8000546:	f7ff fe01 	bl	800014c <strlen>
 800054a:	4603      	mov	r3, r0
 800054c:	b29a      	uxth	r2, r3
 800054e:	f44f 737a 	mov.w	r3, #1000	; 0x3e8
 8000552:	4993      	ldr	r1, [pc, #588]	; (80007a0 <main+0x644>)
 8000554:	4893      	ldr	r0, [pc, #588]	; (80007a4 <main+0x648>)
 8000556:	f002 f9ec 	bl	8002932 <HAL_UART_Transmit>
	  strcpy((char *)cliBufferTX, "           x\r\n");
 800055a:	4a91      	ldr	r2, [pc, #580]	; (80007a0 <main+0x644>)
 800055c:	4b96      	ldr	r3, [pc, #600]	; (80007b8 <main+0x65c>)
 800055e:	4614      	mov	r4, r2
 8000560:	cb07      	ldmia	r3!, {r0, r1, r2}
 8000562:	6020      	str	r0, [r4, #0]
 8000564:	6061      	str	r1, [r4, #4]
 8000566:	60a2      	str	r2, [r4, #8]
 8000568:	881a      	ldrh	r2, [r3, #0]
 800056a:	789b      	ldrb	r3, [r3, #2]
 800056c:	81a2      	strh	r2, [r4, #12]
 800056e:	73a3      	strb	r3, [r4, #14]
	  HAL_UART_Transmit(&huart2, cliBufferTX, strlen((char *) cliBufferTX), 1000);
 8000570:	488b      	ldr	r0, [pc, #556]	; (80007a0 <main+0x644>)
 8000572:	f7ff fdeb 	bl	800014c <strlen>
 8000576:	4603      	mov	r3, r0
 8000578:	b29a      	uxth	r2, r3
 800057a:	f44f 737a 	mov.w	r3, #1000	; 0x3e8
 800057e:	4988      	ldr	r1, [pc, #544]	; (80007a0 <main+0x644>)
 8000580:	4888      	ldr	r0, [pc, #544]	; (80007a4 <main+0x648>)
 8000582:	f002 f9d6 	bl	8002932 <HAL_UART_Transmit>
	  strcpy((char *)cliBufferTX, "__         __\r\n");
 8000586:	4a86      	ldr	r2, [pc, #536]	; (80007a0 <main+0x644>)
 8000588:	4b8c      	ldr	r3, [pc, #560]	; (80007bc <main+0x660>)
 800058a:	4614      	mov	r4, r2
 800058c:	461d      	mov	r5, r3
 800058e:	cd0f      	ldmia	r5!, {r0, r1, r2, r3}
 8000590:	6020      	str	r0, [r4, #0]
 8000592:	6061      	str	r1, [r4, #4]
 8000594:	60a2      	str	r2, [r4, #8]
 8000596:	60e3      	str	r3, [r4, #12]
	  HAL_UART_Transmit(&huart2, cliBufferTX, strlen((char *) cliBufferTX), 1000);
 8000598:	4881      	ldr	r0, [pc, #516]	; (80007a0 <main+0x644>)
 800059a:	f7ff fdd7 	bl	800014c <strlen>
 800059e:	4603      	mov	r3, r0
 80005a0:	b29a      	uxth	r2, r3
 80005a2:	f44f 737a 	mov.w	r3, #1000	; 0x3e8
 80005a6:	497e      	ldr	r1, [pc, #504]	; (80007a0 <main+0x644>)
 80005a8:	487e      	ldr	r0, [pc, #504]	; (80007a4 <main+0x648>)
 80005aa:	f002 f9c2 	bl	8002932 <HAL_UART_Transmit>
	  strcpy((char *)cliBufferTX, " x\r\n");
 80005ae:	4b7c      	ldr	r3, [pc, #496]	; (80007a0 <main+0x644>)
 80005b0:	4a83      	ldr	r2, [pc, #524]	; (80007c0 <main+0x664>)
 80005b2:	6810      	ldr	r0, [r2, #0]
 80005b4:	6018      	str	r0, [r3, #0]
 80005b6:	7912      	ldrb	r2, [r2, #4]
 80005b8:	711a      	strb	r2, [r3, #4]
	  HAL_UART_Transmit(&huart2, cliBufferTX, strlen((char *) cliBufferTX), 1000);
 80005ba:	4879      	ldr	r0, [pc, #484]	; (80007a0 <main+0x644>)
 80005bc:	f7ff fdc6 	bl	800014c <strlen>
 80005c0:	4603      	mov	r3, r0
 80005c2:	b29a      	uxth	r2, r3
 80005c4:	f44f 737a 	mov.w	r3, #1000	; 0x3e8
 80005c8:	4975      	ldr	r1, [pc, #468]	; (80007a0 <main+0x644>)
 80005ca:	4876      	ldr	r0, [pc, #472]	; (80007a4 <main+0x648>)
 80005cc:	f002 f9b1 	bl	8002932 <HAL_UART_Transmit>
	  strcpy((char *)cliBufferTX, "__      ^  __\r\n");
 80005d0:	4a73      	ldr	r2, [pc, #460]	; (80007a0 <main+0x644>)
 80005d2:	4b7c      	ldr	r3, [pc, #496]	; (80007c4 <main+0x668>)
 80005d4:	4614      	mov	r4, r2
 80005d6:	461d      	mov	r5, r3
 80005d8:	cd0f      	ldmia	r5!, {r0, r1, r2, r3}
 80005da:	6020      	str	r0, [r4, #0]
 80005dc:	6061      	str	r1, [r4, #4]
 80005de:	60a2      	str	r2, [r4, #8]
 80005e0:	60e3      	str	r3, [r4, #12]
	  HAL_UART_Transmit(&huart2, cliBufferTX, strlen((char *) cliBufferTX), 1000);
 80005e2:	486f      	ldr	r0, [pc, #444]	; (80007a0 <main+0x644>)
 80005e4:	f7ff fdb2 	bl	800014c <strlen>
 80005e8:	4603      	mov	r3, r0
 80005ea:	b29a      	uxth	r2, r3
 80005ec:	f44f 737a 	mov.w	r3, #1000	; 0x3e8
 80005f0:	496b      	ldr	r1, [pc, #428]	; (80007a0 <main+0x644>)
 80005f2:	486c      	ldr	r0, [pc, #432]	; (80007a4 <main+0x648>)
 80005f4:	f002 f99d 	bl	8002932 <HAL_UART_Transmit>
	  strcpy((char *)cliBufferTX, "  |   | | |\r\n");
 80005f8:	4a69      	ldr	r2, [pc, #420]	; (80007a0 <main+0x644>)
 80005fa:	4b73      	ldr	r3, [pc, #460]	; (80007c8 <main+0x66c>)
 80005fc:	4614      	mov	r4, r2
 80005fe:	cb07      	ldmia	r3!, {r0, r1, r2}
 8000600:	6020      	str	r0, [r4, #0]
 8000602:	6061      	str	r1, [r4, #4]
 8000604:	60a2      	str	r2, [r4, #8]
 8000606:	881b      	ldrh	r3, [r3, #0]
 8000608:	81a3      	strh	r3, [r4, #12]
	  HAL_UART_Transmit(&huart2, cliBufferTX, strlen((char *) cliBufferTX), 1000);
 800060a:	4865      	ldr	r0, [pc, #404]	; (80007a0 <main+0x644>)
 800060c:	f7ff fd9e 	bl	800014c <strlen>
 8000610:	4603      	mov	r3, r0
 8000612:	b29a      	uxth	r2, r3
 8000614:	f44f 737a 	mov.w	r3, #1000	; 0x3e8
 8000618:	4961      	ldr	r1, [pc, #388]	; (80007a0 <main+0x644>)
 800061a:	4862      	ldr	r0, [pc, #392]	; (80007a4 <main+0x648>)
 800061c:	f002 f989 	bl	8002932 <HAL_UART_Transmit>
	  HAL_Delay(42980);
 8000620:	f24a 70e4 	movw	r0, #42980	; 0xa7e4
 8000624:	f000 ffee 	bl	8001604 <HAL_Delay>
	  strcpy((char *)cliBufferTX, "echo -e \x1B[2J\x1B[0;0H");
 8000628:	4a5d      	ldr	r2, [pc, #372]	; (80007a0 <main+0x644>)
 800062a:	4b5f      	ldr	r3, [pc, #380]	; (80007a8 <main+0x64c>)
 800062c:	4615      	mov	r5, r2
 800062e:	461c      	mov	r4, r3
 8000630:	cc0f      	ldmia	r4!, {r0, r1, r2, r3}
 8000632:	6028      	str	r0, [r5, #0]
 8000634:	6069      	str	r1, [r5, #4]
 8000636:	60aa      	str	r2, [r5, #8]
 8000638:	60eb      	str	r3, [r5, #12]
 800063a:	8823      	ldrh	r3, [r4, #0]
 800063c:	78a2      	ldrb	r2, [r4, #2]
 800063e:	822b      	strh	r3, [r5, #16]
 8000640:	4613      	mov	r3, r2
 8000642:	74ab      	strb	r3, [r5, #18]
	  HAL_UART_Transmit(&huart2, cliBufferTX, strlen((char *) cliBufferTX), 1000);
 8000644:	4856      	ldr	r0, [pc, #344]	; (80007a0 <main+0x644>)
 8000646:	f7ff fd81 	bl	800014c <strlen>
 800064a:	4603      	mov	r3, r0
 800064c:	b29a      	uxth	r2, r3
 800064e:	f44f 737a 	mov.w	r3, #1000	; 0x3e8
 8000652:	4953      	ldr	r1, [pc, #332]	; (80007a0 <main+0x644>)
 8000654:	4853      	ldr	r0, [pc, #332]	; (80007a4 <main+0x648>)
 8000656:	f002 f96c 	bl	8002932 <HAL_UART_Transmit>

	  //STATE D
	  strcpy((char *)cliBufferTX, "State D\r\n");
 800065a:	4a51      	ldr	r2, [pc, #324]	; (80007a0 <main+0x644>)
 800065c:	4b5b      	ldr	r3, [pc, #364]	; (80007cc <main+0x670>)
 800065e:	cb03      	ldmia	r3!, {r0, r1}
 8000660:	6010      	str	r0, [r2, #0]
 8000662:	6051      	str	r1, [r2, #4]
 8000664:	881b      	ldrh	r3, [r3, #0]
 8000666:	8113      	strh	r3, [r2, #8]
	  HAL_UART_Transmit(&huart2, cliBufferTX, strlen((char *) cliBufferTX), 1000);
 8000668:	484d      	ldr	r0, [pc, #308]	; (80007a0 <main+0x644>)
 800066a:	f7ff fd6f 	bl	800014c <strlen>
 800066e:	4603      	mov	r3, r0
 8000670:	b29a      	uxth	r2, r3
 8000672:	f44f 737a 	mov.w	r3, #1000	; 0x3e8
 8000676:	494a      	ldr	r1, [pc, #296]	; (80007a0 <main+0x644>)
 8000678:	484a      	ldr	r0, [pc, #296]	; (80007a4 <main+0x648>)
 800067a:	f002 f95a 	bl	8002932 <HAL_UART_Transmit>
	  strcpy((char *)cliBufferTX, "  | v |   |\r\n");
 800067e:	4a48      	ldr	r2, [pc, #288]	; (80007a0 <main+0x644>)
 8000680:	4b53      	ldr	r3, [pc, #332]	; (80007d0 <main+0x674>)
 8000682:	4614      	mov	r4, r2
 8000684:	cb07      	ldmia	r3!, {r0, r1, r2}
 8000686:	6020      	str	r0, [r4, #0]
 8000688:	6061      	str	r1, [r4, #4]
 800068a:	60a2      	str	r2, [r4, #8]
 800068c:	881b      	ldrh	r3, [r3, #0]
 800068e:	81a3      	strh	r3, [r4, #12]
	  HAL_UART_Transmit(&huart2, cliBufferTX, strlen((char *) cliBufferTX), 1000);
 8000690:	4843      	ldr	r0, [pc, #268]	; (80007a0 <main+0x644>)
 8000692:	f7ff fd5b 	bl	800014c <strlen>
 8000696:	4603      	mov	r3, r0
 8000698:	b29a      	uxth	r2, r3
 800069a:	f44f 737a 	mov.w	r3, #1000	; 0x3e8
 800069e:	4940      	ldr	r1, [pc, #256]	; (80007a0 <main+0x644>)
 80006a0:	4840      	ldr	r0, [pc, #256]	; (80007a4 <main+0x648>)
 80006a2:	f002 f946 	bl	8002932 <HAL_UART_Transmit>
	  strcpy((char *)cliBufferTX, "__         __\r\n");
 80006a6:	4a3e      	ldr	r2, [pc, #248]	; (80007a0 <main+0x644>)
 80006a8:	4b44      	ldr	r3, [pc, #272]	; (80007bc <main+0x660>)
 80006aa:	4614      	mov	r4, r2
 80006ac:	461d      	mov	r5, r3
 80006ae:	cd0f      	ldmia	r5!, {r0, r1, r2, r3}
 80006b0:	6020      	str	r0, [r4, #0]
 80006b2:	6061      	str	r1, [r4, #4]
 80006b4:	60a2      	str	r2, [r4, #8]
 80006b6:	60e3      	str	r3, [r4, #12]
	  HAL_UART_Transmit(&huart2, cliBufferTX, strlen((char *) cliBufferTX), 1000);
 80006b8:	4839      	ldr	r0, [pc, #228]	; (80007a0 <main+0x644>)
 80006ba:	f7ff fd47 	bl	800014c <strlen>
 80006be:	4603      	mov	r3, r0
 80006c0:	b29a      	uxth	r2, r3
 80006c2:	f44f 737a 	mov.w	r3, #1000	; 0x3e8
 80006c6:	4936      	ldr	r1, [pc, #216]	; (80007a0 <main+0x644>)
 80006c8:	4836      	ldr	r0, [pc, #216]	; (80007a4 <main+0x648>)
 80006ca:	f002 f932 	bl	8002932 <HAL_UART_Transmit>
	  strcpy((char *)cliBufferTX, "           x\r\n");
 80006ce:	4a34      	ldr	r2, [pc, #208]	; (80007a0 <main+0x644>)
 80006d0:	4b39      	ldr	r3, [pc, #228]	; (80007b8 <main+0x65c>)
 80006d2:	4614      	mov	r4, r2
 80006d4:	cb07      	ldmia	r3!, {r0, r1, r2}
 80006d6:	6020      	str	r0, [r4, #0]
 80006d8:	6061      	str	r1, [r4, #4]
 80006da:	60a2      	str	r2, [r4, #8]
 80006dc:	881a      	ldrh	r2, [r3, #0]
 80006de:	789b      	ldrb	r3, [r3, #2]
 80006e0:	81a2      	strh	r2, [r4, #12]
 80006e2:	73a3      	strb	r3, [r4, #14]
	  HAL_UART_Transmit(&huart2, cliBufferTX, strlen((char *) cliBufferTX), 1000);
 80006e4:	482e      	ldr	r0, [pc, #184]	; (80007a0 <main+0x644>)
 80006e6:	f7ff fd31 	bl	800014c <strlen>
 80006ea:	4603      	mov	r3, r0
 80006ec:	b29a      	uxth	r2, r3
 80006ee:	f44f 737a 	mov.w	r3, #1000	; 0x3e8
 80006f2:	492b      	ldr	r1, [pc, #172]	; (80007a0 <main+0x644>)
 80006f4:	482b      	ldr	r0, [pc, #172]	; (80007a4 <main+0x648>)
 80006f6:	f002 f91c 	bl	8002932 <HAL_UART_Transmit>
	  strcpy((char *)cliBufferTX, "__         __\r\n");
 80006fa:	4a29      	ldr	r2, [pc, #164]	; (80007a0 <main+0x644>)
 80006fc:	4b2f      	ldr	r3, [pc, #188]	; (80007bc <main+0x660>)
 80006fe:	4614      	mov	r4, r2
 8000700:	461d      	mov	r5, r3
 8000702:	cd0f      	ldmia	r5!, {r0, r1, r2, r3}
 8000704:	6020      	str	r0, [r4, #0]
 8000706:	6061      	str	r1, [r4, #4]
 8000708:	60a2      	str	r2, [r4, #8]
 800070a:	60e3      	str	r3, [r4, #12]
	  HAL_UART_Transmit(&huart2, cliBufferTX, strlen((char *) cliBufferTX), 1000);
 800070c:	4824      	ldr	r0, [pc, #144]	; (80007a0 <main+0x644>)
 800070e:	f7ff fd1d 	bl	800014c <strlen>
 8000712:	4603      	mov	r3, r0
 8000714:	b29a      	uxth	r2, r3
 8000716:	f44f 737a 	mov.w	r3, #1000	; 0x3e8
 800071a:	4921      	ldr	r1, [pc, #132]	; (80007a0 <main+0x644>)
 800071c:	4821      	ldr	r0, [pc, #132]	; (80007a4 <main+0x648>)
 800071e:	f002 f908 	bl	8002932 <HAL_UART_Transmit>
	  strcpy((char *)cliBufferTX, " x\r\n");
 8000722:	4b1f      	ldr	r3, [pc, #124]	; (80007a0 <main+0x644>)
 8000724:	4a26      	ldr	r2, [pc, #152]	; (80007c0 <main+0x664>)
 8000726:	6810      	ldr	r0, [r2, #0]
 8000728:	6018      	str	r0, [r3, #0]
 800072a:	7912      	ldrb	r2, [r2, #4]
 800072c:	711a      	strb	r2, [r3, #4]
	  HAL_UART_Transmit(&huart2, cliBufferTX, strlen((char *) cliBufferTX), 1000);
 800072e:	481c      	ldr	r0, [pc, #112]	; (80007a0 <main+0x644>)
 8000730:	f7ff fd0c 	bl	800014c <strlen>
 8000734:	4603      	mov	r3, r0
 8000736:	b29a      	uxth	r2, r3
 8000738:	f44f 737a 	mov.w	r3, #1000	; 0x3e8
 800073c:	4918      	ldr	r1, [pc, #96]	; (80007a0 <main+0x644>)
 800073e:	4819      	ldr	r0, [pc, #100]	; (80007a4 <main+0x648>)
 8000740:	f002 f8f7 	bl	8002932 <HAL_UART_Transmit>
	  strcpy((char *)cliBufferTX, "__         __\r\n");
 8000744:	4a16      	ldr	r2, [pc, #88]	; (80007a0 <main+0x644>)
 8000746:	4b1d      	ldr	r3, [pc, #116]	; (80007bc <main+0x660>)
 8000748:	4614      	mov	r4, r2
 800074a:	461d      	mov	r5, r3
 800074c:	cd0f      	ldmia	r5!, {r0, r1, r2, r3}
 800074e:	6020      	str	r0, [r4, #0]
 8000750:	6061      	str	r1, [r4, #4]
 8000752:	60a2      	str	r2, [r4, #8]
 8000754:	60e3      	str	r3, [r4, #12]
	  HAL_UART_Transmit(&huart2, cliBufferTX, strlen((char *) cliBufferTX), 1000);
 8000756:	4812      	ldr	r0, [pc, #72]	; (80007a0 <main+0x644>)
 8000758:	f7ff fcf8 	bl	800014c <strlen>
 800075c:	4603      	mov	r3, r0
 800075e:	b29a      	uxth	r2, r3
 8000760:	f44f 737a 	mov.w	r3, #1000	; 0x3e8
 8000764:	490e      	ldr	r1, [pc, #56]	; (80007a0 <main+0x644>)
 8000766:	480f      	ldr	r0, [pc, #60]	; (80007a4 <main+0x648>)
 8000768:	f002 f8e3 	bl	8002932 <HAL_UART_Transmit>
	  strcpy((char *)cliBufferTX, "  |   | ^ |\r\n");
 800076c:	4a0c      	ldr	r2, [pc, #48]	; (80007a0 <main+0x644>)
 800076e:	4b19      	ldr	r3, [pc, #100]	; (80007d4 <main+0x678>)
 8000770:	4614      	mov	r4, r2
 8000772:	cb07      	ldmia	r3!, {r0, r1, r2}
 8000774:	6020      	str	r0, [r4, #0]
 8000776:	6061      	str	r1, [r4, #4]
 8000778:	60a2      	str	r2, [r4, #8]
 800077a:	881b      	ldrh	r3, [r3, #0]
 800077c:	81a3      	strh	r3, [r4, #12]
	  HAL_UART_Transmit(&huart2, cliBufferTX, strlen((char *) cliBufferTX), 1000);
 800077e:	4808      	ldr	r0, [pc, #32]	; (80007a0 <main+0x644>)
 8000780:	f7ff fce4 	bl	800014c <strlen>
 8000784:	4603      	mov	r3, r0
 8000786:	b29a      	uxth	r2, r3
 8000788:	f44f 737a 	mov.w	r3, #1000	; 0x3e8
 800078c:	4904      	ldr	r1, [pc, #16]	; (80007a0 <main+0x644>)
 800078e:	4805      	ldr	r0, [pc, #20]	; (80007a4 <main+0x648>)
 8000790:	f002 f8cf 	bl	8002932 <HAL_UART_Transmit>
	  HAL_Delay(4350);
 8000794:	f241 00fe 	movw	r0, #4350	; 0x10fe
 8000798:	f000 ff34 	bl	8001604 <HAL_Delay>
 800079c:	e01c      	b.n	80007d8 <main+0x67c>
 800079e:	bf00      	nop
 80007a0:	20000070 	.word	0x20000070
 80007a4:	20000090 	.word	0x20000090
 80007a8:	08002c84 	.word	0x08002c84
 80007ac:	08002d18 	.word	0x08002d18
 80007b0:	08002d24 	.word	0x08002d24
 80007b4:	08002d34 	.word	0x08002d34
 80007b8:	08002cc4 	.word	0x08002cc4
 80007bc:	08002cb4 	.word	0x08002cb4
 80007c0:	08002cd4 	.word	0x08002cd4
 80007c4:	08002d44 	.word	0x08002d44
 80007c8:	08002d54 	.word	0x08002d54
 80007cc:	08002d64 	.word	0x08002d64
 80007d0:	08002d70 	.word	0x08002d70
 80007d4:	08002d80 	.word	0x08002d80
	  strcpy((char *)cliBufferTX, "echo -e \x1B[2J\x1B[0;0H");
 80007d8:	4abd      	ldr	r2, [pc, #756]	; (8000ad0 <main+0x974>)
 80007da:	4bbe      	ldr	r3, [pc, #760]	; (8000ad4 <main+0x978>)
 80007dc:	4615      	mov	r5, r2
 80007de:	461c      	mov	r4, r3
 80007e0:	cc0f      	ldmia	r4!, {r0, r1, r2, r3}
 80007e2:	6028      	str	r0, [r5, #0]
 80007e4:	6069      	str	r1, [r5, #4]
 80007e6:	60aa      	str	r2, [r5, #8]
 80007e8:	60eb      	str	r3, [r5, #12]
 80007ea:	8823      	ldrh	r3, [r4, #0]
 80007ec:	78a2      	ldrb	r2, [r4, #2]
 80007ee:	822b      	strh	r3, [r5, #16]
 80007f0:	4613      	mov	r3, r2
 80007f2:	74ab      	strb	r3, [r5, #18]
	  HAL_UART_Transmit(&huart2, cliBufferTX, strlen((char *) cliBufferTX), 1000);
 80007f4:	48b6      	ldr	r0, [pc, #728]	; (8000ad0 <main+0x974>)
 80007f6:	f7ff fca9 	bl	800014c <strlen>
 80007fa:	4603      	mov	r3, r0
 80007fc:	b29a      	uxth	r2, r3
 80007fe:	f44f 737a 	mov.w	r3, #1000	; 0x3e8
 8000802:	49b3      	ldr	r1, [pc, #716]	; (8000ad0 <main+0x974>)
 8000804:	48b4      	ldr	r0, [pc, #720]	; (8000ad8 <main+0x97c>)
 8000806:	f002 f894 	bl	8002932 <HAL_UART_Transmit>

	  //STATE E
	  strcpy((char *)cliBufferTX, "State E\r\n");
 800080a:	4ab1      	ldr	r2, [pc, #708]	; (8000ad0 <main+0x974>)
 800080c:	4bb3      	ldr	r3, [pc, #716]	; (8000adc <main+0x980>)
 800080e:	cb03      	ldmia	r3!, {r0, r1}
 8000810:	6010      	str	r0, [r2, #0]
 8000812:	6051      	str	r1, [r2, #4]
 8000814:	881b      	ldrh	r3, [r3, #0]
 8000816:	8113      	strh	r3, [r2, #8]
	  HAL_UART_Transmit(&huart2, cliBufferTX, strlen((char *) cliBufferTX), 1000);
 8000818:	48ad      	ldr	r0, [pc, #692]	; (8000ad0 <main+0x974>)
 800081a:	f7ff fc97 	bl	800014c <strlen>
 800081e:	4603      	mov	r3, r0
 8000820:	b29a      	uxth	r2, r3
 8000822:	f44f 737a 	mov.w	r3, #1000	; 0x3e8
 8000826:	49aa      	ldr	r1, [pc, #680]	; (8000ad0 <main+0x974>)
 8000828:	48ab      	ldr	r0, [pc, #684]	; (8000ad8 <main+0x97c>)
 800082a:	f002 f882 	bl	8002932 <HAL_UART_Transmit>
	  strcpy((char *)cliBufferTX, "  | x |   |\r\n");
 800082e:	4aa8      	ldr	r2, [pc, #672]	; (8000ad0 <main+0x974>)
 8000830:	4bab      	ldr	r3, [pc, #684]	; (8000ae0 <main+0x984>)
 8000832:	4614      	mov	r4, r2
 8000834:	cb07      	ldmia	r3!, {r0, r1, r2}
 8000836:	6020      	str	r0, [r4, #0]
 8000838:	6061      	str	r1, [r4, #4]
 800083a:	60a2      	str	r2, [r4, #8]
 800083c:	881b      	ldrh	r3, [r3, #0]
 800083e:	81a3      	strh	r3, [r4, #12]
	  HAL_UART_Transmit(&huart2, cliBufferTX, strlen((char *) cliBufferTX), 1000);
 8000840:	48a3      	ldr	r0, [pc, #652]	; (8000ad0 <main+0x974>)
 8000842:	f7ff fc83 	bl	800014c <strlen>
 8000846:	4603      	mov	r3, r0
 8000848:	b29a      	uxth	r2, r3
 800084a:	f44f 737a 	mov.w	r3, #1000	; 0x3e8
 800084e:	49a0      	ldr	r1, [pc, #640]	; (8000ad0 <main+0x974>)
 8000850:	48a1      	ldr	r0, [pc, #644]	; (8000ad8 <main+0x97c>)
 8000852:	f002 f86e 	bl	8002932 <HAL_UART_Transmit>
	  strcpy((char *)cliBufferTX, "__         __\r\n");
 8000856:	4a9e      	ldr	r2, [pc, #632]	; (8000ad0 <main+0x974>)
 8000858:	4ba2      	ldr	r3, [pc, #648]	; (8000ae4 <main+0x988>)
 800085a:	4614      	mov	r4, r2
 800085c:	461d      	mov	r5, r3
 800085e:	cd0f      	ldmia	r5!, {r0, r1, r2, r3}
 8000860:	6020      	str	r0, [r4, #0]
 8000862:	6061      	str	r1, [r4, #4]
 8000864:	60a2      	str	r2, [r4, #8]
 8000866:	60e3      	str	r3, [r4, #12]
	  HAL_UART_Transmit(&huart2, cliBufferTX, strlen((char *) cliBufferTX), 1000);
 8000868:	4899      	ldr	r0, [pc, #612]	; (8000ad0 <main+0x974>)
 800086a:	f7ff fc6f 	bl	800014c <strlen>
 800086e:	4603      	mov	r3, r0
 8000870:	b29a      	uxth	r2, r3
 8000872:	f44f 737a 	mov.w	r3, #1000	; 0x3e8
 8000876:	4996      	ldr	r1, [pc, #600]	; (8000ad0 <main+0x974>)
 8000878:	4897      	ldr	r0, [pc, #604]	; (8000ad8 <main+0x97c>)
 800087a:	f002 f85a 	bl	8002932 <HAL_UART_Transmit>
	  strcpy((char *)cliBufferTX, "           x\r\n");
 800087e:	4a94      	ldr	r2, [pc, #592]	; (8000ad0 <main+0x974>)
 8000880:	4b99      	ldr	r3, [pc, #612]	; (8000ae8 <main+0x98c>)
 8000882:	4614      	mov	r4, r2
 8000884:	cb07      	ldmia	r3!, {r0, r1, r2}
 8000886:	6020      	str	r0, [r4, #0]
 8000888:	6061      	str	r1, [r4, #4]
 800088a:	60a2      	str	r2, [r4, #8]
 800088c:	881a      	ldrh	r2, [r3, #0]
 800088e:	789b      	ldrb	r3, [r3, #2]
 8000890:	81a2      	strh	r2, [r4, #12]
 8000892:	73a3      	strb	r3, [r4, #14]
	  HAL_UART_Transmit(&huart2, cliBufferTX, strlen((char *) cliBufferTX), 1000);
 8000894:	488e      	ldr	r0, [pc, #568]	; (8000ad0 <main+0x974>)
 8000896:	f7ff fc59 	bl	800014c <strlen>
 800089a:	4603      	mov	r3, r0
 800089c:	b29a      	uxth	r2, r3
 800089e:	f44f 737a 	mov.w	r3, #1000	; 0x3e8
 80008a2:	498b      	ldr	r1, [pc, #556]	; (8000ad0 <main+0x974>)
 80008a4:	488c      	ldr	r0, [pc, #560]	; (8000ad8 <main+0x97c>)
 80008a6:	f002 f844 	bl	8002932 <HAL_UART_Transmit>
	  strcpy((char *)cliBufferTX, "__         __\r\n");
 80008aa:	4a89      	ldr	r2, [pc, #548]	; (8000ad0 <main+0x974>)
 80008ac:	4b8d      	ldr	r3, [pc, #564]	; (8000ae4 <main+0x988>)
 80008ae:	4614      	mov	r4, r2
 80008b0:	461d      	mov	r5, r3
 80008b2:	cd0f      	ldmia	r5!, {r0, r1, r2, r3}
 80008b4:	6020      	str	r0, [r4, #0]
 80008b6:	6061      	str	r1, [r4, #4]
 80008b8:	60a2      	str	r2, [r4, #8]
 80008ba:	60e3      	str	r3, [r4, #12]
	  HAL_UART_Transmit(&huart2, cliBufferTX, strlen((char *) cliBufferTX), 1000);
 80008bc:	4884      	ldr	r0, [pc, #528]	; (8000ad0 <main+0x974>)
 80008be:	f7ff fc45 	bl	800014c <strlen>
 80008c2:	4603      	mov	r3, r0
 80008c4:	b29a      	uxth	r2, r3
 80008c6:	f44f 737a 	mov.w	r3, #1000	; 0x3e8
 80008ca:	4981      	ldr	r1, [pc, #516]	; (8000ad0 <main+0x974>)
 80008cc:	4882      	ldr	r0, [pc, #520]	; (8000ad8 <main+0x97c>)
 80008ce:	f002 f830 	bl	8002932 <HAL_UART_Transmit>
	  strcpy((char *)cliBufferTX, " x\r\n");
 80008d2:	4b7f      	ldr	r3, [pc, #508]	; (8000ad0 <main+0x974>)
 80008d4:	4a85      	ldr	r2, [pc, #532]	; (8000aec <main+0x990>)
 80008d6:	6810      	ldr	r0, [r2, #0]
 80008d8:	6018      	str	r0, [r3, #0]
 80008da:	7912      	ldrb	r2, [r2, #4]
 80008dc:	711a      	strb	r2, [r3, #4]
	  HAL_UART_Transmit(&huart2, cliBufferTX, strlen((char *) cliBufferTX), 1000);
 80008de:	487c      	ldr	r0, [pc, #496]	; (8000ad0 <main+0x974>)
 80008e0:	f7ff fc34 	bl	800014c <strlen>
 80008e4:	4603      	mov	r3, r0
 80008e6:	b29a      	uxth	r2, r3
 80008e8:	f44f 737a 	mov.w	r3, #1000	; 0x3e8
 80008ec:	4978      	ldr	r1, [pc, #480]	; (8000ad0 <main+0x974>)
 80008ee:	487a      	ldr	r0, [pc, #488]	; (8000ad8 <main+0x97c>)
 80008f0:	f002 f81f 	bl	8002932 <HAL_UART_Transmit>
	  strcpy((char *)cliBufferTX, "__         __\r\n");
 80008f4:	4a76      	ldr	r2, [pc, #472]	; (8000ad0 <main+0x974>)
 80008f6:	4b7b      	ldr	r3, [pc, #492]	; (8000ae4 <main+0x988>)
 80008f8:	4614      	mov	r4, r2
 80008fa:	461d      	mov	r5, r3
 80008fc:	cd0f      	ldmia	r5!, {r0, r1, r2, r3}
 80008fe:	6020      	str	r0, [r4, #0]
 8000900:	6061      	str	r1, [r4, #4]
 8000902:	60a2      	str	r2, [r4, #8]
 8000904:	60e3      	str	r3, [r4, #12]
	  HAL_UART_Transmit(&huart2, cliBufferTX, strlen((char *) cliBufferTX), 1000);
 8000906:	4872      	ldr	r0, [pc, #456]	; (8000ad0 <main+0x974>)
 8000908:	f7ff fc20 	bl	800014c <strlen>
 800090c:	4603      	mov	r3, r0
 800090e:	b29a      	uxth	r2, r3
 8000910:	f44f 737a 	mov.w	r3, #1000	; 0x3e8
 8000914:	496e      	ldr	r1, [pc, #440]	; (8000ad0 <main+0x974>)
 8000916:	4870      	ldr	r0, [pc, #448]	; (8000ad8 <main+0x97c>)
 8000918:	f002 f80b 	bl	8002932 <HAL_UART_Transmit>
	  strcpy((char *)cliBufferTX, "  |   | x |\r\n");
 800091c:	4a6c      	ldr	r2, [pc, #432]	; (8000ad0 <main+0x974>)
 800091e:	4b74      	ldr	r3, [pc, #464]	; (8000af0 <main+0x994>)
 8000920:	4614      	mov	r4, r2
 8000922:	cb07      	ldmia	r3!, {r0, r1, r2}
 8000924:	6020      	str	r0, [r4, #0]
 8000926:	6061      	str	r1, [r4, #4]
 8000928:	60a2      	str	r2, [r4, #8]
 800092a:	881b      	ldrh	r3, [r3, #0]
 800092c:	81a3      	strh	r3, [r4, #12]
	  HAL_UART_Transmit(&huart2, cliBufferTX, strlen((char *) cliBufferTX), 1000);
 800092e:	4868      	ldr	r0, [pc, #416]	; (8000ad0 <main+0x974>)
 8000930:	f7ff fc0c 	bl	800014c <strlen>
 8000934:	4603      	mov	r3, r0
 8000936:	b29a      	uxth	r2, r3
 8000938:	f44f 737a 	mov.w	r3, #1000	; 0x3e8
 800093c:	4964      	ldr	r1, [pc, #400]	; (8000ad0 <main+0x974>)
 800093e:	4866      	ldr	r0, [pc, #408]	; (8000ad8 <main+0x97c>)
 8000940:	f001 fff7 	bl	8002932 <HAL_UART_Transmit>
	  HAL_Delay(3450);
 8000944:	f640 507a 	movw	r0, #3450	; 0xd7a
 8000948:	f000 fe5c 	bl	8001604 <HAL_Delay>
	  strcpy((char *)cliBufferTX, "echo -e \x1B[2J\x1B[0;0H");
 800094c:	4a60      	ldr	r2, [pc, #384]	; (8000ad0 <main+0x974>)
 800094e:	4b61      	ldr	r3, [pc, #388]	; (8000ad4 <main+0x978>)
 8000950:	4615      	mov	r5, r2
 8000952:	461c      	mov	r4, r3
 8000954:	cc0f      	ldmia	r4!, {r0, r1, r2, r3}
 8000956:	6028      	str	r0, [r5, #0]
 8000958:	6069      	str	r1, [r5, #4]
 800095a:	60aa      	str	r2, [r5, #8]
 800095c:	60eb      	str	r3, [r5, #12]
 800095e:	8823      	ldrh	r3, [r4, #0]
 8000960:	78a2      	ldrb	r2, [r4, #2]
 8000962:	822b      	strh	r3, [r5, #16]
 8000964:	4613      	mov	r3, r2
 8000966:	74ab      	strb	r3, [r5, #18]
	  HAL_UART_Transmit(&huart2, cliBufferTX, strlen((char *) cliBufferTX), 1000);
 8000968:	4859      	ldr	r0, [pc, #356]	; (8000ad0 <main+0x974>)
 800096a:	f7ff fbef 	bl	800014c <strlen>
 800096e:	4603      	mov	r3, r0
 8000970:	b29a      	uxth	r2, r3
 8000972:	f44f 737a 	mov.w	r3, #1000	; 0x3e8
 8000976:	4956      	ldr	r1, [pc, #344]	; (8000ad0 <main+0x974>)
 8000978:	4857      	ldr	r0, [pc, #348]	; (8000ad8 <main+0x97c>)
 800097a:	f001 ffda 	bl	8002932 <HAL_UART_Transmit>

	  //STATE F
	  strcpy((char *)cliBufferTX, "State F\r\n");
 800097e:	4a54      	ldr	r2, [pc, #336]	; (8000ad0 <main+0x974>)
 8000980:	4b5c      	ldr	r3, [pc, #368]	; (8000af4 <main+0x998>)
 8000982:	cb03      	ldmia	r3!, {r0, r1}
 8000984:	6010      	str	r0, [r2, #0]
 8000986:	6051      	str	r1, [r2, #4]
 8000988:	881b      	ldrh	r3, [r3, #0]
 800098a:	8113      	strh	r3, [r2, #8]
	  HAL_UART_Transmit(&huart2, cliBufferTX, strlen((char *) cliBufferTX), 1000);
 800098c:	4850      	ldr	r0, [pc, #320]	; (8000ad0 <main+0x974>)
 800098e:	f7ff fbdd 	bl	800014c <strlen>
 8000992:	4603      	mov	r3, r0
 8000994:	b29a      	uxth	r2, r3
 8000996:	f44f 737a 	mov.w	r3, #1000	; 0x3e8
 800099a:	494d      	ldr	r1, [pc, #308]	; (8000ad0 <main+0x974>)
 800099c:	484e      	ldr	r0, [pc, #312]	; (8000ad8 <main+0x97c>)
 800099e:	f001 ffc8 	bl	8002932 <HAL_UART_Transmit>
	  strcpy((char *)cliBufferTX, "  | x |   |\r\n");
 80009a2:	4a4b      	ldr	r2, [pc, #300]	; (8000ad0 <main+0x974>)
 80009a4:	4b4e      	ldr	r3, [pc, #312]	; (8000ae0 <main+0x984>)
 80009a6:	4614      	mov	r4, r2
 80009a8:	cb07      	ldmia	r3!, {r0, r1, r2}
 80009aa:	6020      	str	r0, [r4, #0]
 80009ac:	6061      	str	r1, [r4, #4]
 80009ae:	60a2      	str	r2, [r4, #8]
 80009b0:	881b      	ldrh	r3, [r3, #0]
 80009b2:	81a3      	strh	r3, [r4, #12]
	  HAL_UART_Transmit(&huart2, cliBufferTX, strlen((char *) cliBufferTX), 1000);
 80009b4:	4846      	ldr	r0, [pc, #280]	; (8000ad0 <main+0x974>)
 80009b6:	f7ff fbc9 	bl	800014c <strlen>
 80009ba:	4603      	mov	r3, r0
 80009bc:	b29a      	uxth	r2, r3
 80009be:	f44f 737a 	mov.w	r3, #1000	; 0x3e8
 80009c2:	4943      	ldr	r1, [pc, #268]	; (8000ad0 <main+0x974>)
 80009c4:	4844      	ldr	r0, [pc, #272]	; (8000ad8 <main+0x97c>)
 80009c6:	f001 ffb4 	bl	8002932 <HAL_UART_Transmit>
	  strcpy((char *)cliBufferTX, "__         __\r\n");
 80009ca:	4a41      	ldr	r2, [pc, #260]	; (8000ad0 <main+0x974>)
 80009cc:	4b45      	ldr	r3, [pc, #276]	; (8000ae4 <main+0x988>)
 80009ce:	4614      	mov	r4, r2
 80009d0:	461d      	mov	r5, r3
 80009d2:	cd0f      	ldmia	r5!, {r0, r1, r2, r3}
 80009d4:	6020      	str	r0, [r4, #0]
 80009d6:	6061      	str	r1, [r4, #4]
 80009d8:	60a2      	str	r2, [r4, #8]
 80009da:	60e3      	str	r3, [r4, #12]
	  HAL_UART_Transmit(&huart2, cliBufferTX, strlen((char *) cliBufferTX), 1000);
 80009dc:	483c      	ldr	r0, [pc, #240]	; (8000ad0 <main+0x974>)
 80009de:	f7ff fbb5 	bl	800014c <strlen>
 80009e2:	4603      	mov	r3, r0
 80009e4:	b29a      	uxth	r2, r3
 80009e6:	f44f 737a 	mov.w	r3, #1000	; 0x3e8
 80009ea:	4939      	ldr	r1, [pc, #228]	; (8000ad0 <main+0x974>)
 80009ec:	483a      	ldr	r0, [pc, #232]	; (8000ad8 <main+0x97c>)
 80009ee:	f001 ffa0 	bl	8002932 <HAL_UART_Transmit>
	  strcpy((char *)cliBufferTX, "          v-\r\n");
 80009f2:	4a37      	ldr	r2, [pc, #220]	; (8000ad0 <main+0x974>)
 80009f4:	4b40      	ldr	r3, [pc, #256]	; (8000af8 <main+0x99c>)
 80009f6:	4614      	mov	r4, r2
 80009f8:	cb07      	ldmia	r3!, {r0, r1, r2}
 80009fa:	6020      	str	r0, [r4, #0]
 80009fc:	6061      	str	r1, [r4, #4]
 80009fe:	60a2      	str	r2, [r4, #8]
 8000a00:	881a      	ldrh	r2, [r3, #0]
 8000a02:	789b      	ldrb	r3, [r3, #2]
 8000a04:	81a2      	strh	r2, [r4, #12]
 8000a06:	73a3      	strb	r3, [r4, #14]
	  HAL_UART_Transmit(&huart2, cliBufferTX, strlen((char *) cliBufferTX), 1000);
 8000a08:	4831      	ldr	r0, [pc, #196]	; (8000ad0 <main+0x974>)
 8000a0a:	f7ff fb9f 	bl	800014c <strlen>
 8000a0e:	4603      	mov	r3, r0
 8000a10:	b29a      	uxth	r2, r3
 8000a12:	f44f 737a 	mov.w	r3, #1000	; 0x3e8
 8000a16:	492e      	ldr	r1, [pc, #184]	; (8000ad0 <main+0x974>)
 8000a18:	482f      	ldr	r0, [pc, #188]	; (8000ad8 <main+0x97c>)
 8000a1a:	f001 ff8a 	bl	8002932 <HAL_UART_Transmit>
	  strcpy((char *)cliBufferTX, "__         __\r\n");
 8000a1e:	4a2c      	ldr	r2, [pc, #176]	; (8000ad0 <main+0x974>)
 8000a20:	4b30      	ldr	r3, [pc, #192]	; (8000ae4 <main+0x988>)
 8000a22:	4614      	mov	r4, r2
 8000a24:	461d      	mov	r5, r3
 8000a26:	cd0f      	ldmia	r5!, {r0, r1, r2, r3}
 8000a28:	6020      	str	r0, [r4, #0]
 8000a2a:	6061      	str	r1, [r4, #4]
 8000a2c:	60a2      	str	r2, [r4, #8]
 8000a2e:	60e3      	str	r3, [r4, #12]
	  HAL_UART_Transmit(&huart2, cliBufferTX, strlen((char *) cliBufferTX), 1000);
 8000a30:	4827      	ldr	r0, [pc, #156]	; (8000ad0 <main+0x974>)
 8000a32:	f7ff fb8b 	bl	800014c <strlen>
 8000a36:	4603      	mov	r3, r0
 8000a38:	b29a      	uxth	r2, r3
 8000a3a:	f44f 737a 	mov.w	r3, #1000	; 0x3e8
 8000a3e:	4924      	ldr	r1, [pc, #144]	; (8000ad0 <main+0x974>)
 8000a40:	4825      	ldr	r0, [pc, #148]	; (8000ad8 <main+0x97c>)
 8000a42:	f001 ff76 	bl	8002932 <HAL_UART_Transmit>
	  strcpy((char *)cliBufferTX, " -^\r\n");
 8000a46:	4b22      	ldr	r3, [pc, #136]	; (8000ad0 <main+0x974>)
 8000a48:	4a2c      	ldr	r2, [pc, #176]	; (8000afc <main+0x9a0>)
 8000a4a:	6810      	ldr	r0, [r2, #0]
 8000a4c:	6018      	str	r0, [r3, #0]
 8000a4e:	8892      	ldrh	r2, [r2, #4]
 8000a50:	809a      	strh	r2, [r3, #4]
	  HAL_UART_Transmit(&huart2, cliBufferTX, strlen((char *) cliBufferTX), 1000);
 8000a52:	481f      	ldr	r0, [pc, #124]	; (8000ad0 <main+0x974>)
 8000a54:	f7ff fb7a 	bl	800014c <strlen>
 8000a58:	4603      	mov	r3, r0
 8000a5a:	b29a      	uxth	r2, r3
 8000a5c:	f44f 737a 	mov.w	r3, #1000	; 0x3e8
 8000a60:	491b      	ldr	r1, [pc, #108]	; (8000ad0 <main+0x974>)
 8000a62:	481d      	ldr	r0, [pc, #116]	; (8000ad8 <main+0x97c>)
 8000a64:	f001 ff65 	bl	8002932 <HAL_UART_Transmit>
	  strcpy((char *)cliBufferTX, "__         __\r\n");
 8000a68:	4a19      	ldr	r2, [pc, #100]	; (8000ad0 <main+0x974>)
 8000a6a:	4b1e      	ldr	r3, [pc, #120]	; (8000ae4 <main+0x988>)
 8000a6c:	4614      	mov	r4, r2
 8000a6e:	461d      	mov	r5, r3
 8000a70:	cd0f      	ldmia	r5!, {r0, r1, r2, r3}
 8000a72:	6020      	str	r0, [r4, #0]
 8000a74:	6061      	str	r1, [r4, #4]
 8000a76:	60a2      	str	r2, [r4, #8]
 8000a78:	60e3      	str	r3, [r4, #12]
	  HAL_UART_Transmit(&huart2, cliBufferTX, strlen((char *) cliBufferTX), 1000);
 8000a7a:	4815      	ldr	r0, [pc, #84]	; (8000ad0 <main+0x974>)
 8000a7c:	f7ff fb66 	bl	800014c <strlen>
 8000a80:	4603      	mov	r3, r0
 8000a82:	b29a      	uxth	r2, r3
 8000a84:	f44f 737a 	mov.w	r3, #1000	; 0x3e8
 8000a88:	4911      	ldr	r1, [pc, #68]	; (8000ad0 <main+0x974>)
 8000a8a:	4813      	ldr	r0, [pc, #76]	; (8000ad8 <main+0x97c>)
 8000a8c:	f001 ff51 	bl	8002932 <HAL_UART_Transmit>
	  strcpy((char *)cliBufferTX, "  |   | x |\r\n");
 8000a90:	4a0f      	ldr	r2, [pc, #60]	; (8000ad0 <main+0x974>)
 8000a92:	4b17      	ldr	r3, [pc, #92]	; (8000af0 <main+0x994>)
 8000a94:	4614      	mov	r4, r2
 8000a96:	cb07      	ldmia	r3!, {r0, r1, r2}
 8000a98:	6020      	str	r0, [r4, #0]
 8000a9a:	6061      	str	r1, [r4, #4]
 8000a9c:	60a2      	str	r2, [r4, #8]
 8000a9e:	881b      	ldrh	r3, [r3, #0]
 8000aa0:	81a3      	strh	r3, [r4, #12]
	  HAL_UART_Transmit(&huart2, cliBufferTX, strlen((char *) cliBufferTX), 1000);
 8000aa2:	480b      	ldr	r0, [pc, #44]	; (8000ad0 <main+0x974>)
 8000aa4:	f7ff fb52 	bl	800014c <strlen>
 8000aa8:	4603      	mov	r3, r0
 8000aaa:	b29a      	uxth	r2, r3
 8000aac:	f44f 737a 	mov.w	r3, #1000	; 0x3e8
 8000ab0:	4907      	ldr	r1, [pc, #28]	; (8000ad0 <main+0x974>)
 8000ab2:	4809      	ldr	r0, [pc, #36]	; (8000ad8 <main+0x97c>)
 8000ab4:	f001 ff3d 	bl	8002932 <HAL_UART_Transmit>
	  HAL_Delay(10440);
 8000ab8:	f642 00c8 	movw	r0, #10440	; 0x28c8
 8000abc:	f000 fda2 	bl	8001604 <HAL_Delay>
	  strcpy((char *)cliBufferTX, "echo -e \x1B[2J\x1B[0;0H");
 8000ac0:	4a03      	ldr	r2, [pc, #12]	; (8000ad0 <main+0x974>)
 8000ac2:	4b04      	ldr	r3, [pc, #16]	; (8000ad4 <main+0x978>)
 8000ac4:	4615      	mov	r5, r2
 8000ac6:	461c      	mov	r4, r3
 8000ac8:	cc0f      	ldmia	r4!, {r0, r1, r2, r3}
 8000aca:	6028      	str	r0, [r5, #0]
 8000acc:	6069      	str	r1, [r5, #4]
 8000ace:	e017      	b.n	8000b00 <main+0x9a4>
 8000ad0:	20000070 	.word	0x20000070
 8000ad4:	08002c84 	.word	0x08002c84
 8000ad8:	20000090 	.word	0x20000090
 8000adc:	08002c78 	.word	0x08002c78
 8000ae0:	08002d90 	.word	0x08002d90
 8000ae4:	08002cb4 	.word	0x08002cb4
 8000ae8:	08002cc4 	.word	0x08002cc4
 8000aec:	08002cd4 	.word	0x08002cd4
 8000af0:	08002da0 	.word	0x08002da0
 8000af4:	08002db0 	.word	0x08002db0
 8000af8:	08002dbc 	.word	0x08002dbc
 8000afc:	08002dcc 	.word	0x08002dcc
 8000b00:	60aa      	str	r2, [r5, #8]
 8000b02:	60eb      	str	r3, [r5, #12]
 8000b04:	8823      	ldrh	r3, [r4, #0]
 8000b06:	78a2      	ldrb	r2, [r4, #2]
 8000b08:	822b      	strh	r3, [r5, #16]
 8000b0a:	4613      	mov	r3, r2
 8000b0c:	74ab      	strb	r3, [r5, #18]
	  HAL_UART_Transmit(&huart2, cliBufferTX, strlen((char *) cliBufferTX), 1000);
 8000b0e:	48be      	ldr	r0, [pc, #760]	; (8000e08 <main+0xcac>)
 8000b10:	f7ff fb1c 	bl	800014c <strlen>
 8000b14:	4603      	mov	r3, r0
 8000b16:	b29a      	uxth	r2, r3
 8000b18:	f44f 737a 	mov.w	r3, #1000	; 0x3e8
 8000b1c:	49ba      	ldr	r1, [pc, #744]	; (8000e08 <main+0xcac>)
 8000b1e:	48bb      	ldr	r0, [pc, #748]	; (8000e0c <main+0xcb0>)
 8000b20:	f001 ff07 	bl	8002932 <HAL_UART_Transmit>

	  //STATE G
	  strcpy((char *)cliBufferTX, "State G\r\n");
 8000b24:	4ab8      	ldr	r2, [pc, #736]	; (8000e08 <main+0xcac>)
 8000b26:	4bba      	ldr	r3, [pc, #744]	; (8000e10 <main+0xcb4>)
 8000b28:	cb03      	ldmia	r3!, {r0, r1}
 8000b2a:	6010      	str	r0, [r2, #0]
 8000b2c:	6051      	str	r1, [r2, #4]
 8000b2e:	881b      	ldrh	r3, [r3, #0]
 8000b30:	8113      	strh	r3, [r2, #8]
	  HAL_UART_Transmit(&huart2, cliBufferTX, strlen((char *) cliBufferTX), 1000);
 8000b32:	48b5      	ldr	r0, [pc, #724]	; (8000e08 <main+0xcac>)
 8000b34:	f7ff fb0a 	bl	800014c <strlen>
 8000b38:	4603      	mov	r3, r0
 8000b3a:	b29a      	uxth	r2, r3
 8000b3c:	f44f 737a 	mov.w	r3, #1000	; 0x3e8
 8000b40:	49b1      	ldr	r1, [pc, #708]	; (8000e08 <main+0xcac>)
 8000b42:	48b2      	ldr	r0, [pc, #712]	; (8000e0c <main+0xcb0>)
 8000b44:	f001 fef5 	bl	8002932 <HAL_UART_Transmit>
	  strcpy((char *)cliBufferTX, "  | x |   |\r\n");
 8000b48:	4aaf      	ldr	r2, [pc, #700]	; (8000e08 <main+0xcac>)
 8000b4a:	4bb2      	ldr	r3, [pc, #712]	; (8000e14 <main+0xcb8>)
 8000b4c:	4614      	mov	r4, r2
 8000b4e:	cb07      	ldmia	r3!, {r0, r1, r2}
 8000b50:	6020      	str	r0, [r4, #0]
 8000b52:	6061      	str	r1, [r4, #4]
 8000b54:	60a2      	str	r2, [r4, #8]
 8000b56:	881b      	ldrh	r3, [r3, #0]
 8000b58:	81a3      	strh	r3, [r4, #12]
	  HAL_UART_Transmit(&huart2, cliBufferTX, strlen((char *) cliBufferTX), 1000);
 8000b5a:	48ab      	ldr	r0, [pc, #684]	; (8000e08 <main+0xcac>)
 8000b5c:	f7ff faf6 	bl	800014c <strlen>
 8000b60:	4603      	mov	r3, r0
 8000b62:	b29a      	uxth	r2, r3
 8000b64:	f44f 737a 	mov.w	r3, #1000	; 0x3e8
 8000b68:	49a7      	ldr	r1, [pc, #668]	; (8000e08 <main+0xcac>)
 8000b6a:	48a8      	ldr	r0, [pc, #672]	; (8000e0c <main+0xcb0>)
 8000b6c:	f001 fee1 	bl	8002932 <HAL_UART_Transmit>
	  strcpy((char *)cliBufferTX, "__         __\r\n");
 8000b70:	4aa5      	ldr	r2, [pc, #660]	; (8000e08 <main+0xcac>)
 8000b72:	4ba9      	ldr	r3, [pc, #676]	; (8000e18 <main+0xcbc>)
 8000b74:	4614      	mov	r4, r2
 8000b76:	461d      	mov	r5, r3
 8000b78:	cd0f      	ldmia	r5!, {r0, r1, r2, r3}
 8000b7a:	6020      	str	r0, [r4, #0]
 8000b7c:	6061      	str	r1, [r4, #4]
 8000b7e:	60a2      	str	r2, [r4, #8]
 8000b80:	60e3      	str	r3, [r4, #12]
	  HAL_UART_Transmit(&huart2, cliBufferTX, strlen((char *) cliBufferTX), 1000);
 8000b82:	48a1      	ldr	r0, [pc, #644]	; (8000e08 <main+0xcac>)
 8000b84:	f7ff fae2 	bl	800014c <strlen>
 8000b88:	4603      	mov	r3, r0
 8000b8a:	b29a      	uxth	r2, r3
 8000b8c:	f44f 737a 	mov.w	r3, #1000	; 0x3e8
 8000b90:	499d      	ldr	r1, [pc, #628]	; (8000e08 <main+0xcac>)
 8000b92:	489e      	ldr	r0, [pc, #632]	; (8000e0c <main+0xcb0>)
 8000b94:	f001 fecd 	bl	8002932 <HAL_UART_Transmit>
	  strcpy((char *)cliBufferTX, "           v\r\n");
 8000b98:	4a9b      	ldr	r2, [pc, #620]	; (8000e08 <main+0xcac>)
 8000b9a:	4ba0      	ldr	r3, [pc, #640]	; (8000e1c <main+0xcc0>)
 8000b9c:	4614      	mov	r4, r2
 8000b9e:	cb07      	ldmia	r3!, {r0, r1, r2}
 8000ba0:	6020      	str	r0, [r4, #0]
 8000ba2:	6061      	str	r1, [r4, #4]
 8000ba4:	60a2      	str	r2, [r4, #8]
 8000ba6:	881a      	ldrh	r2, [r3, #0]
 8000ba8:	789b      	ldrb	r3, [r3, #2]
 8000baa:	81a2      	strh	r2, [r4, #12]
 8000bac:	73a3      	strb	r3, [r4, #14]
	  HAL_UART_Transmit(&huart2, cliBufferTX, strlen((char *) cliBufferTX), 1000);
 8000bae:	4896      	ldr	r0, [pc, #600]	; (8000e08 <main+0xcac>)
 8000bb0:	f7ff facc 	bl	800014c <strlen>
 8000bb4:	4603      	mov	r3, r0
 8000bb6:	b29a      	uxth	r2, r3
 8000bb8:	f44f 737a 	mov.w	r3, #1000	; 0x3e8
 8000bbc:	4992      	ldr	r1, [pc, #584]	; (8000e08 <main+0xcac>)
 8000bbe:	4893      	ldr	r0, [pc, #588]	; (8000e0c <main+0xcb0>)
 8000bc0:	f001 feb7 	bl	8002932 <HAL_UART_Transmit>
	  strcpy((char *)cliBufferTX, "__         __\r\n");
 8000bc4:	4a90      	ldr	r2, [pc, #576]	; (8000e08 <main+0xcac>)
 8000bc6:	4b94      	ldr	r3, [pc, #592]	; (8000e18 <main+0xcbc>)
 8000bc8:	4614      	mov	r4, r2
 8000bca:	461d      	mov	r5, r3
 8000bcc:	cd0f      	ldmia	r5!, {r0, r1, r2, r3}
 8000bce:	6020      	str	r0, [r4, #0]
 8000bd0:	6061      	str	r1, [r4, #4]
 8000bd2:	60a2      	str	r2, [r4, #8]
 8000bd4:	60e3      	str	r3, [r4, #12]
	  HAL_UART_Transmit(&huart2, cliBufferTX, strlen((char *) cliBufferTX), 1000);
 8000bd6:	488c      	ldr	r0, [pc, #560]	; (8000e08 <main+0xcac>)
 8000bd8:	f7ff fab8 	bl	800014c <strlen>
 8000bdc:	4603      	mov	r3, r0
 8000bde:	b29a      	uxth	r2, r3
 8000be0:	f44f 737a 	mov.w	r3, #1000	; 0x3e8
 8000be4:	4988      	ldr	r1, [pc, #544]	; (8000e08 <main+0xcac>)
 8000be6:	4889      	ldr	r0, [pc, #548]	; (8000e0c <main+0xcb0>)
 8000be8:	f001 fea3 	bl	8002932 <HAL_UART_Transmit>
	  strcpy((char *)cliBufferTX, " ^\r\n");
 8000bec:	4b86      	ldr	r3, [pc, #536]	; (8000e08 <main+0xcac>)
 8000bee:	4a8c      	ldr	r2, [pc, #560]	; (8000e20 <main+0xcc4>)
 8000bf0:	6810      	ldr	r0, [r2, #0]
 8000bf2:	6018      	str	r0, [r3, #0]
 8000bf4:	7912      	ldrb	r2, [r2, #4]
 8000bf6:	711a      	strb	r2, [r3, #4]
	  HAL_UART_Transmit(&huart2, cliBufferTX, strlen((char *) cliBufferTX), 1000);
 8000bf8:	4883      	ldr	r0, [pc, #524]	; (8000e08 <main+0xcac>)
 8000bfa:	f7ff faa7 	bl	800014c <strlen>
 8000bfe:	4603      	mov	r3, r0
 8000c00:	b29a      	uxth	r2, r3
 8000c02:	f44f 737a 	mov.w	r3, #1000	; 0x3e8
 8000c06:	4980      	ldr	r1, [pc, #512]	; (8000e08 <main+0xcac>)
 8000c08:	4880      	ldr	r0, [pc, #512]	; (8000e0c <main+0xcb0>)
 8000c0a:	f001 fe92 	bl	8002932 <HAL_UART_Transmit>
	  strcpy((char *)cliBufferTX, "__         __\r\n");
 8000c0e:	4a7e      	ldr	r2, [pc, #504]	; (8000e08 <main+0xcac>)
 8000c10:	4b81      	ldr	r3, [pc, #516]	; (8000e18 <main+0xcbc>)
 8000c12:	4614      	mov	r4, r2
 8000c14:	461d      	mov	r5, r3
 8000c16:	cd0f      	ldmia	r5!, {r0, r1, r2, r3}
 8000c18:	6020      	str	r0, [r4, #0]
 8000c1a:	6061      	str	r1, [r4, #4]
 8000c1c:	60a2      	str	r2, [r4, #8]
 8000c1e:	60e3      	str	r3, [r4, #12]
	  HAL_UART_Transmit(&huart2, cliBufferTX, strlen((char *) cliBufferTX), 1000);
 8000c20:	4879      	ldr	r0, [pc, #484]	; (8000e08 <main+0xcac>)
 8000c22:	f7ff fa93 	bl	800014c <strlen>
 8000c26:	4603      	mov	r3, r0
 8000c28:	b29a      	uxth	r2, r3
 8000c2a:	f44f 737a 	mov.w	r3, #1000	; 0x3e8
 8000c2e:	4976      	ldr	r1, [pc, #472]	; (8000e08 <main+0xcac>)
 8000c30:	4876      	ldr	r0, [pc, #472]	; (8000e0c <main+0xcb0>)
 8000c32:	f001 fe7e 	bl	8002932 <HAL_UART_Transmit>
	  strcpy((char *)cliBufferTX, "  |   | x |\r\n");
 8000c36:	4a74      	ldr	r2, [pc, #464]	; (8000e08 <main+0xcac>)
 8000c38:	4b7a      	ldr	r3, [pc, #488]	; (8000e24 <main+0xcc8>)
 8000c3a:	4614      	mov	r4, r2
 8000c3c:	cb07      	ldmia	r3!, {r0, r1, r2}
 8000c3e:	6020      	str	r0, [r4, #0]
 8000c40:	6061      	str	r1, [r4, #4]
 8000c42:	60a2      	str	r2, [r4, #8]
 8000c44:	881b      	ldrh	r3, [r3, #0]
 8000c46:	81a3      	strh	r3, [r4, #12]
	  HAL_UART_Transmit(&huart2, cliBufferTX, strlen((char *) cliBufferTX), 1000);
 8000c48:	486f      	ldr	r0, [pc, #444]	; (8000e08 <main+0xcac>)
 8000c4a:	f7ff fa7f 	bl	800014c <strlen>
 8000c4e:	4603      	mov	r3, r0
 8000c50:	b29a      	uxth	r2, r3
 8000c52:	f44f 737a 	mov.w	r3, #1000	; 0x3e8
 8000c56:	496c      	ldr	r1, [pc, #432]	; (8000e08 <main+0xcac>)
 8000c58:	486c      	ldr	r0, [pc, #432]	; (8000e0c <main+0xcb0>)
 8000c5a:	f001 fe6a 	bl	8002932 <HAL_UART_Transmit>
	  HAL_Delay(2960);
 8000c5e:	f44f 6039 	mov.w	r0, #2960	; 0xb90
 8000c62:	f000 fccf 	bl	8001604 <HAL_Delay>
	  strcpy((char *)cliBufferTX, "echo -e \x1B[2J\x1B[0;0H");
 8000c66:	4a68      	ldr	r2, [pc, #416]	; (8000e08 <main+0xcac>)
 8000c68:	4b6f      	ldr	r3, [pc, #444]	; (8000e28 <main+0xccc>)
 8000c6a:	4615      	mov	r5, r2
 8000c6c:	461c      	mov	r4, r3
 8000c6e:	cc0f      	ldmia	r4!, {r0, r1, r2, r3}
 8000c70:	6028      	str	r0, [r5, #0]
 8000c72:	6069      	str	r1, [r5, #4]
 8000c74:	60aa      	str	r2, [r5, #8]
 8000c76:	60eb      	str	r3, [r5, #12]
 8000c78:	8823      	ldrh	r3, [r4, #0]
 8000c7a:	78a2      	ldrb	r2, [r4, #2]
 8000c7c:	822b      	strh	r3, [r5, #16]
 8000c7e:	4613      	mov	r3, r2
 8000c80:	74ab      	strb	r3, [r5, #18]
	  HAL_UART_Transmit(&huart2, cliBufferTX, strlen((char *) cliBufferTX), 1000);
 8000c82:	4861      	ldr	r0, [pc, #388]	; (8000e08 <main+0xcac>)
 8000c84:	f7ff fa62 	bl	800014c <strlen>
 8000c88:	4603      	mov	r3, r0
 8000c8a:	b29a      	uxth	r2, r3
 8000c8c:	f44f 737a 	mov.w	r3, #1000	; 0x3e8
 8000c90:	495d      	ldr	r1, [pc, #372]	; (8000e08 <main+0xcac>)
 8000c92:	485e      	ldr	r0, [pc, #376]	; (8000e0c <main+0xcb0>)
 8000c94:	f001 fe4d 	bl	8002932 <HAL_UART_Transmit>

	  //STATE H
	  strcpy((char *)cliBufferTX, "State H\r\n");
 8000c98:	4a5b      	ldr	r2, [pc, #364]	; (8000e08 <main+0xcac>)
 8000c9a:	4b64      	ldr	r3, [pc, #400]	; (8000e2c <main+0xcd0>)
 8000c9c:	cb03      	ldmia	r3!, {r0, r1}
 8000c9e:	6010      	str	r0, [r2, #0]
 8000ca0:	6051      	str	r1, [r2, #4]
 8000ca2:	881b      	ldrh	r3, [r3, #0]
 8000ca4:	8113      	strh	r3, [r2, #8]
	  HAL_UART_Transmit(&huart2, cliBufferTX, strlen((char *) cliBufferTX), 1000);
 8000ca6:	4858      	ldr	r0, [pc, #352]	; (8000e08 <main+0xcac>)
 8000ca8:	f7ff fa50 	bl	800014c <strlen>
 8000cac:	4603      	mov	r3, r0
 8000cae:	b29a      	uxth	r2, r3
 8000cb0:	f44f 737a 	mov.w	r3, #1000	; 0x3e8
 8000cb4:	4954      	ldr	r1, [pc, #336]	; (8000e08 <main+0xcac>)
 8000cb6:	4855      	ldr	r0, [pc, #340]	; (8000e0c <main+0xcb0>)
 8000cb8:	f001 fe3b 	bl	8002932 <HAL_UART_Transmit>
	  strcpy((char *)cliBufferTX, "  | x |   |\r\n");
 8000cbc:	4a52      	ldr	r2, [pc, #328]	; (8000e08 <main+0xcac>)
 8000cbe:	4b55      	ldr	r3, [pc, #340]	; (8000e14 <main+0xcb8>)
 8000cc0:	4614      	mov	r4, r2
 8000cc2:	cb07      	ldmia	r3!, {r0, r1, r2}
 8000cc4:	6020      	str	r0, [r4, #0]
 8000cc6:	6061      	str	r1, [r4, #4]
 8000cc8:	60a2      	str	r2, [r4, #8]
 8000cca:	881b      	ldrh	r3, [r3, #0]
 8000ccc:	81a3      	strh	r3, [r4, #12]
	  HAL_UART_Transmit(&huart2, cliBufferTX, strlen((char *) cliBufferTX), 1000);
 8000cce:	484e      	ldr	r0, [pc, #312]	; (8000e08 <main+0xcac>)
 8000cd0:	f7ff fa3c 	bl	800014c <strlen>
 8000cd4:	4603      	mov	r3, r0
 8000cd6:	b29a      	uxth	r2, r3
 8000cd8:	f44f 737a 	mov.w	r3, #1000	; 0x3e8
 8000cdc:	494a      	ldr	r1, [pc, #296]	; (8000e08 <main+0xcac>)
 8000cde:	484b      	ldr	r0, [pc, #300]	; (8000e0c <main+0xcb0>)
 8000ce0:	f001 fe27 	bl	8002932 <HAL_UART_Transmit>
	  strcpy((char *)cliBufferTX, "__         __\r\n");
 8000ce4:	4a48      	ldr	r2, [pc, #288]	; (8000e08 <main+0xcac>)
 8000ce6:	4b4c      	ldr	r3, [pc, #304]	; (8000e18 <main+0xcbc>)
 8000ce8:	4614      	mov	r4, r2
 8000cea:	461d      	mov	r5, r3
 8000cec:	cd0f      	ldmia	r5!, {r0, r1, r2, r3}
 8000cee:	6020      	str	r0, [r4, #0]
 8000cf0:	6061      	str	r1, [r4, #4]
 8000cf2:	60a2      	str	r2, [r4, #8]
 8000cf4:	60e3      	str	r3, [r4, #12]
	  HAL_UART_Transmit(&huart2, cliBufferTX, strlen((char *) cliBufferTX), 1000);
 8000cf6:	4844      	ldr	r0, [pc, #272]	; (8000e08 <main+0xcac>)
 8000cf8:	f7ff fa28 	bl	800014c <strlen>
 8000cfc:	4603      	mov	r3, r0
 8000cfe:	b29a      	uxth	r2, r3
 8000d00:	f44f 737a 	mov.w	r3, #1000	; 0x3e8
 8000d04:	4940      	ldr	r1, [pc, #256]	; (8000e08 <main+0xcac>)
 8000d06:	4841      	ldr	r0, [pc, #260]	; (8000e0c <main+0xcb0>)
 8000d08:	f001 fe13 	bl	8002932 <HAL_UART_Transmit>
	  strcpy((char *)cliBufferTX, "          <-\r\n");
 8000d0c:	4a3e      	ldr	r2, [pc, #248]	; (8000e08 <main+0xcac>)
 8000d0e:	4b48      	ldr	r3, [pc, #288]	; (8000e30 <main+0xcd4>)
 8000d10:	4614      	mov	r4, r2
 8000d12:	cb07      	ldmia	r3!, {r0, r1, r2}
 8000d14:	6020      	str	r0, [r4, #0]
 8000d16:	6061      	str	r1, [r4, #4]
 8000d18:	60a2      	str	r2, [r4, #8]
 8000d1a:	881a      	ldrh	r2, [r3, #0]
 8000d1c:	789b      	ldrb	r3, [r3, #2]
 8000d1e:	81a2      	strh	r2, [r4, #12]
 8000d20:	73a3      	strb	r3, [r4, #14]
	  HAL_UART_Transmit(&huart2, cliBufferTX, strlen((char *) cliBufferTX), 1000);
 8000d22:	4839      	ldr	r0, [pc, #228]	; (8000e08 <main+0xcac>)
 8000d24:	f7ff fa12 	bl	800014c <strlen>
 8000d28:	4603      	mov	r3, r0
 8000d2a:	b29a      	uxth	r2, r3
 8000d2c:	f44f 737a 	mov.w	r3, #1000	; 0x3e8
 8000d30:	4935      	ldr	r1, [pc, #212]	; (8000e08 <main+0xcac>)
 8000d32:	4836      	ldr	r0, [pc, #216]	; (8000e0c <main+0xcb0>)
 8000d34:	f001 fdfd 	bl	8002932 <HAL_UART_Transmit>
	  strcpy((char *)cliBufferTX, "__         __\r\n");
 8000d38:	4a33      	ldr	r2, [pc, #204]	; (8000e08 <main+0xcac>)
 8000d3a:	4b37      	ldr	r3, [pc, #220]	; (8000e18 <main+0xcbc>)
 8000d3c:	4614      	mov	r4, r2
 8000d3e:	461d      	mov	r5, r3
 8000d40:	cd0f      	ldmia	r5!, {r0, r1, r2, r3}
 8000d42:	6020      	str	r0, [r4, #0]
 8000d44:	6061      	str	r1, [r4, #4]
 8000d46:	60a2      	str	r2, [r4, #8]
 8000d48:	60e3      	str	r3, [r4, #12]
	  HAL_UART_Transmit(&huart2, cliBufferTX, strlen((char *) cliBufferTX), 1000);
 8000d4a:	482f      	ldr	r0, [pc, #188]	; (8000e08 <main+0xcac>)
 8000d4c:	f7ff f9fe 	bl	800014c <strlen>
 8000d50:	4603      	mov	r3, r0
 8000d52:	b29a      	uxth	r2, r3
 8000d54:	f44f 737a 	mov.w	r3, #1000	; 0x3e8
 8000d58:	492b      	ldr	r1, [pc, #172]	; (8000e08 <main+0xcac>)
 8000d5a:	482c      	ldr	r0, [pc, #176]	; (8000e0c <main+0xcb0>)
 8000d5c:	f001 fde9 	bl	8002932 <HAL_UART_Transmit>
	  strcpy((char *)cliBufferTX, " ->\r\n");
 8000d60:	4b29      	ldr	r3, [pc, #164]	; (8000e08 <main+0xcac>)
 8000d62:	4a34      	ldr	r2, [pc, #208]	; (8000e34 <main+0xcd8>)
 8000d64:	6810      	ldr	r0, [r2, #0]
 8000d66:	6018      	str	r0, [r3, #0]
 8000d68:	8892      	ldrh	r2, [r2, #4]
 8000d6a:	809a      	strh	r2, [r3, #4]
	  HAL_UART_Transmit(&huart2, cliBufferTX, strlen((char *) cliBufferTX), 1000);
 8000d6c:	4826      	ldr	r0, [pc, #152]	; (8000e08 <main+0xcac>)
 8000d6e:	f7ff f9ed 	bl	800014c <strlen>
 8000d72:	4603      	mov	r3, r0
 8000d74:	b29a      	uxth	r2, r3
 8000d76:	f44f 737a 	mov.w	r3, #1000	; 0x3e8
 8000d7a:	4923      	ldr	r1, [pc, #140]	; (8000e08 <main+0xcac>)
 8000d7c:	4823      	ldr	r0, [pc, #140]	; (8000e0c <main+0xcb0>)
 8000d7e:	f001 fdd8 	bl	8002932 <HAL_UART_Transmit>
	  strcpy((char *)cliBufferTX, "__         __\r\n");
 8000d82:	4a21      	ldr	r2, [pc, #132]	; (8000e08 <main+0xcac>)
 8000d84:	4b24      	ldr	r3, [pc, #144]	; (8000e18 <main+0xcbc>)
 8000d86:	4614      	mov	r4, r2
 8000d88:	461d      	mov	r5, r3
 8000d8a:	cd0f      	ldmia	r5!, {r0, r1, r2, r3}
 8000d8c:	6020      	str	r0, [r4, #0]
 8000d8e:	6061      	str	r1, [r4, #4]
 8000d90:	60a2      	str	r2, [r4, #8]
 8000d92:	60e3      	str	r3, [r4, #12]
	  HAL_UART_Transmit(&huart2, cliBufferTX, strlen((char *) cliBufferTX), 1000);
 8000d94:	481c      	ldr	r0, [pc, #112]	; (8000e08 <main+0xcac>)
 8000d96:	f7ff f9d9 	bl	800014c <strlen>
 8000d9a:	4603      	mov	r3, r0
 8000d9c:	b29a      	uxth	r2, r3
 8000d9e:	f44f 737a 	mov.w	r3, #1000	; 0x3e8
 8000da2:	4919      	ldr	r1, [pc, #100]	; (8000e08 <main+0xcac>)
 8000da4:	4819      	ldr	r0, [pc, #100]	; (8000e0c <main+0xcb0>)
 8000da6:	f001 fdc4 	bl	8002932 <HAL_UART_Transmit>
	  strcpy((char *)cliBufferTX, "  |   | x |\r\n");
 8000daa:	4a17      	ldr	r2, [pc, #92]	; (8000e08 <main+0xcac>)
 8000dac:	4b1d      	ldr	r3, [pc, #116]	; (8000e24 <main+0xcc8>)
 8000dae:	4614      	mov	r4, r2
 8000db0:	cb07      	ldmia	r3!, {r0, r1, r2}
 8000db2:	6020      	str	r0, [r4, #0]
 8000db4:	6061      	str	r1, [r4, #4]
 8000db6:	60a2      	str	r2, [r4, #8]
 8000db8:	881b      	ldrh	r3, [r3, #0]
 8000dba:	81a3      	strh	r3, [r4, #12]
	  HAL_UART_Transmit(&huart2, cliBufferTX, strlen((char *) cliBufferTX), 1000);
 8000dbc:	4812      	ldr	r0, [pc, #72]	; (8000e08 <main+0xcac>)
 8000dbe:	f7ff f9c5 	bl	800014c <strlen>
 8000dc2:	4603      	mov	r3, r0
 8000dc4:	b29a      	uxth	r2, r3
 8000dc6:	f44f 737a 	mov.w	r3, #1000	; 0x3e8
 8000dca:	490f      	ldr	r1, [pc, #60]	; (8000e08 <main+0xcac>)
 8000dcc:	480f      	ldr	r0, [pc, #60]	; (8000e0c <main+0xcb0>)
 8000dce:	f001 fdb0 	bl	8002932 <HAL_UART_Transmit>
	  HAL_Delay(36120);
 8000dd2:	f648 5018 	movw	r0, #36120	; 0x8d18
 8000dd6:	f000 fc15 	bl	8001604 <HAL_Delay>
	  strcpy((char *)cliBufferTX, "echo -e \x1B[2J\x1B[0;0H");
 8000dda:	4a0b      	ldr	r2, [pc, #44]	; (8000e08 <main+0xcac>)
 8000ddc:	4b12      	ldr	r3, [pc, #72]	; (8000e28 <main+0xccc>)
 8000dde:	4615      	mov	r5, r2
 8000de0:	461c      	mov	r4, r3
 8000de2:	cc0f      	ldmia	r4!, {r0, r1, r2, r3}
 8000de4:	6028      	str	r0, [r5, #0]
 8000de6:	6069      	str	r1, [r5, #4]
 8000de8:	60aa      	str	r2, [r5, #8]
 8000dea:	60eb      	str	r3, [r5, #12]
 8000dec:	8823      	ldrh	r3, [r4, #0]
 8000dee:	78a2      	ldrb	r2, [r4, #2]
 8000df0:	822b      	strh	r3, [r5, #16]
 8000df2:	4613      	mov	r3, r2
 8000df4:	74ab      	strb	r3, [r5, #18]
	  HAL_UART_Transmit(&huart2, cliBufferTX, strlen((char *) cliBufferTX), 1000);
 8000df6:	4804      	ldr	r0, [pc, #16]	; (8000e08 <main+0xcac>)
 8000df8:	f7ff f9a8 	bl	800014c <strlen>
 8000dfc:	4603      	mov	r3, r0
 8000dfe:	b29a      	uxth	r2, r3
 8000e00:	f44f 737a 	mov.w	r3, #1000	; 0x3e8
 8000e04:	e018      	b.n	8000e38 <main+0xcdc>
 8000e06:	bf00      	nop
 8000e08:	20000070 	.word	0x20000070
 8000e0c:	20000090 	.word	0x20000090
 8000e10:	08002dd4 	.word	0x08002dd4
 8000e14:	08002d90 	.word	0x08002d90
 8000e18:	08002cb4 	.word	0x08002cb4
 8000e1c:	08002de0 	.word	0x08002de0
 8000e20:	08002df0 	.word	0x08002df0
 8000e24:	08002da0 	.word	0x08002da0
 8000e28:	08002c84 	.word	0x08002c84
 8000e2c:	08002df8 	.word	0x08002df8
 8000e30:	08002e04 	.word	0x08002e04
 8000e34:	08002e14 	.word	0x08002e14
 8000e38:	49bc      	ldr	r1, [pc, #752]	; (800112c <main+0xfd0>)
 8000e3a:	48bd      	ldr	r0, [pc, #756]	; (8001130 <main+0xfd4>)
 8000e3c:	f001 fd79 	bl	8002932 <HAL_UART_Transmit>

	  //STATE I
	  strcpy((char *)cliBufferTX, "State I\r\n");
 8000e40:	4aba      	ldr	r2, [pc, #744]	; (800112c <main+0xfd0>)
 8000e42:	4bbc      	ldr	r3, [pc, #752]	; (8001134 <main+0xfd8>)
 8000e44:	cb03      	ldmia	r3!, {r0, r1}
 8000e46:	6010      	str	r0, [r2, #0]
 8000e48:	6051      	str	r1, [r2, #4]
 8000e4a:	881b      	ldrh	r3, [r3, #0]
 8000e4c:	8113      	strh	r3, [r2, #8]
	  HAL_UART_Transmit(&huart2, cliBufferTX, strlen((char *) cliBufferTX), 1000);
 8000e4e:	48b7      	ldr	r0, [pc, #732]	; (800112c <main+0xfd0>)
 8000e50:	f7ff f97c 	bl	800014c <strlen>
 8000e54:	4603      	mov	r3, r0
 8000e56:	b29a      	uxth	r2, r3
 8000e58:	f44f 737a 	mov.w	r3, #1000	; 0x3e8
 8000e5c:	49b3      	ldr	r1, [pc, #716]	; (800112c <main+0xfd0>)
 8000e5e:	48b4      	ldr	r0, [pc, #720]	; (8001130 <main+0xfd4>)
 8000e60:	f001 fd67 	bl	8002932 <HAL_UART_Transmit>
	  strcpy((char *)cliBufferTX, "  | x |   |\r\n");
 8000e64:	4ab1      	ldr	r2, [pc, #708]	; (800112c <main+0xfd0>)
 8000e66:	4bb4      	ldr	r3, [pc, #720]	; (8001138 <main+0xfdc>)
 8000e68:	4614      	mov	r4, r2
 8000e6a:	cb07      	ldmia	r3!, {r0, r1, r2}
 8000e6c:	6020      	str	r0, [r4, #0]
 8000e6e:	6061      	str	r1, [r4, #4]
 8000e70:	60a2      	str	r2, [r4, #8]
 8000e72:	881b      	ldrh	r3, [r3, #0]
 8000e74:	81a3      	strh	r3, [r4, #12]
	  HAL_UART_Transmit(&huart2, cliBufferTX, strlen((char *) cliBufferTX), 1000);
 8000e76:	48ad      	ldr	r0, [pc, #692]	; (800112c <main+0xfd0>)
 8000e78:	f7ff f968 	bl	800014c <strlen>
 8000e7c:	4603      	mov	r3, r0
 8000e7e:	b29a      	uxth	r2, r3
 8000e80:	f44f 737a 	mov.w	r3, #1000	; 0x3e8
 8000e84:	49a9      	ldr	r1, [pc, #676]	; (800112c <main+0xfd0>)
 8000e86:	48aa      	ldr	r0, [pc, #680]	; (8001130 <main+0xfd4>)
 8000e88:	f001 fd53 	bl	8002932 <HAL_UART_Transmit>
	  strcpy((char *)cliBufferTX, "__         __\r\n");
 8000e8c:	4aa7      	ldr	r2, [pc, #668]	; (800112c <main+0xfd0>)
 8000e8e:	4bab      	ldr	r3, [pc, #684]	; (800113c <main+0xfe0>)
 8000e90:	4614      	mov	r4, r2
 8000e92:	461d      	mov	r5, r3
 8000e94:	cd0f      	ldmia	r5!, {r0, r1, r2, r3}
 8000e96:	6020      	str	r0, [r4, #0]
 8000e98:	6061      	str	r1, [r4, #4]
 8000e9a:	60a2      	str	r2, [r4, #8]
 8000e9c:	60e3      	str	r3, [r4, #12]
	  HAL_UART_Transmit(&huart2, cliBufferTX, strlen((char *) cliBufferTX), 1000);
 8000e9e:	48a3      	ldr	r0, [pc, #652]	; (800112c <main+0xfd0>)
 8000ea0:	f7ff f954 	bl	800014c <strlen>
 8000ea4:	4603      	mov	r3, r0
 8000ea6:	b29a      	uxth	r2, r3
 8000ea8:	f44f 737a 	mov.w	r3, #1000	; 0x3e8
 8000eac:	499f      	ldr	r1, [pc, #636]	; (800112c <main+0xfd0>)
 8000eae:	48a0      	ldr	r0, [pc, #640]	; (8001130 <main+0xfd4>)
 8000eb0:	f001 fd3f 	bl	8002932 <HAL_UART_Transmit>
	  strcpy((char *)cliBufferTX, "           <\r\n");
 8000eb4:	4a9d      	ldr	r2, [pc, #628]	; (800112c <main+0xfd0>)
 8000eb6:	4ba2      	ldr	r3, [pc, #648]	; (8001140 <main+0xfe4>)
 8000eb8:	4614      	mov	r4, r2
 8000eba:	cb07      	ldmia	r3!, {r0, r1, r2}
 8000ebc:	6020      	str	r0, [r4, #0]
 8000ebe:	6061      	str	r1, [r4, #4]
 8000ec0:	60a2      	str	r2, [r4, #8]
 8000ec2:	881a      	ldrh	r2, [r3, #0]
 8000ec4:	789b      	ldrb	r3, [r3, #2]
 8000ec6:	81a2      	strh	r2, [r4, #12]
 8000ec8:	73a3      	strb	r3, [r4, #14]
	  HAL_UART_Transmit(&huart2, cliBufferTX, strlen((char *) cliBufferTX), 1000);
 8000eca:	4898      	ldr	r0, [pc, #608]	; (800112c <main+0xfd0>)
 8000ecc:	f7ff f93e 	bl	800014c <strlen>
 8000ed0:	4603      	mov	r3, r0
 8000ed2:	b29a      	uxth	r2, r3
 8000ed4:	f44f 737a 	mov.w	r3, #1000	; 0x3e8
 8000ed8:	4994      	ldr	r1, [pc, #592]	; (800112c <main+0xfd0>)
 8000eda:	4895      	ldr	r0, [pc, #596]	; (8001130 <main+0xfd4>)
 8000edc:	f001 fd29 	bl	8002932 <HAL_UART_Transmit>
	  strcpy((char *)cliBufferTX, "__         __\r\n");
 8000ee0:	4a92      	ldr	r2, [pc, #584]	; (800112c <main+0xfd0>)
 8000ee2:	4b96      	ldr	r3, [pc, #600]	; (800113c <main+0xfe0>)
 8000ee4:	4614      	mov	r4, r2
 8000ee6:	461d      	mov	r5, r3
 8000ee8:	cd0f      	ldmia	r5!, {r0, r1, r2, r3}
 8000eea:	6020      	str	r0, [r4, #0]
 8000eec:	6061      	str	r1, [r4, #4]
 8000eee:	60a2      	str	r2, [r4, #8]
 8000ef0:	60e3      	str	r3, [r4, #12]
	  HAL_UART_Transmit(&huart2, cliBufferTX, strlen((char *) cliBufferTX), 1000);
 8000ef2:	488e      	ldr	r0, [pc, #568]	; (800112c <main+0xfd0>)
 8000ef4:	f7ff f92a 	bl	800014c <strlen>
 8000ef8:	4603      	mov	r3, r0
 8000efa:	b29a      	uxth	r2, r3
 8000efc:	f44f 737a 	mov.w	r3, #1000	; 0x3e8
 8000f00:	498a      	ldr	r1, [pc, #552]	; (800112c <main+0xfd0>)
 8000f02:	488b      	ldr	r0, [pc, #556]	; (8001130 <main+0xfd4>)
 8000f04:	f001 fd15 	bl	8002932 <HAL_UART_Transmit>
	  strcpy((char *)cliBufferTX, " >\r\n");
 8000f08:	4b88      	ldr	r3, [pc, #544]	; (800112c <main+0xfd0>)
 8000f0a:	4a8e      	ldr	r2, [pc, #568]	; (8001144 <main+0xfe8>)
 8000f0c:	6810      	ldr	r0, [r2, #0]
 8000f0e:	6018      	str	r0, [r3, #0]
 8000f10:	7912      	ldrb	r2, [r2, #4]
 8000f12:	711a      	strb	r2, [r3, #4]
	  HAL_UART_Transmit(&huart2, cliBufferTX, strlen((char *) cliBufferTX), 1000);
 8000f14:	4885      	ldr	r0, [pc, #532]	; (800112c <main+0xfd0>)
 8000f16:	f7ff f919 	bl	800014c <strlen>
 8000f1a:	4603      	mov	r3, r0
 8000f1c:	b29a      	uxth	r2, r3
 8000f1e:	f44f 737a 	mov.w	r3, #1000	; 0x3e8
 8000f22:	4982      	ldr	r1, [pc, #520]	; (800112c <main+0xfd0>)
 8000f24:	4882      	ldr	r0, [pc, #520]	; (8001130 <main+0xfd4>)
 8000f26:	f001 fd04 	bl	8002932 <HAL_UART_Transmit>
	  strcpy((char *)cliBufferTX, "__         __\r\n");
 8000f2a:	4a80      	ldr	r2, [pc, #512]	; (800112c <main+0xfd0>)
 8000f2c:	4b83      	ldr	r3, [pc, #524]	; (800113c <main+0xfe0>)
 8000f2e:	4614      	mov	r4, r2
 8000f30:	461d      	mov	r5, r3
 8000f32:	cd0f      	ldmia	r5!, {r0, r1, r2, r3}
 8000f34:	6020      	str	r0, [r4, #0]
 8000f36:	6061      	str	r1, [r4, #4]
 8000f38:	60a2      	str	r2, [r4, #8]
 8000f3a:	60e3      	str	r3, [r4, #12]
	  HAL_UART_Transmit(&huart2, cliBufferTX, strlen((char *) cliBufferTX), 1000);
 8000f3c:	487b      	ldr	r0, [pc, #492]	; (800112c <main+0xfd0>)
 8000f3e:	f7ff f905 	bl	800014c <strlen>
 8000f42:	4603      	mov	r3, r0
 8000f44:	b29a      	uxth	r2, r3
 8000f46:	f44f 737a 	mov.w	r3, #1000	; 0x3e8
 8000f4a:	4978      	ldr	r1, [pc, #480]	; (800112c <main+0xfd0>)
 8000f4c:	4878      	ldr	r0, [pc, #480]	; (8001130 <main+0xfd4>)
 8000f4e:	f001 fcf0 	bl	8002932 <HAL_UART_Transmit>
	  strcpy((char *)cliBufferTX, "  |   | x |\r\n");
 8000f52:	4a76      	ldr	r2, [pc, #472]	; (800112c <main+0xfd0>)
 8000f54:	4b7c      	ldr	r3, [pc, #496]	; (8001148 <main+0xfec>)
 8000f56:	4614      	mov	r4, r2
 8000f58:	cb07      	ldmia	r3!, {r0, r1, r2}
 8000f5a:	6020      	str	r0, [r4, #0]
 8000f5c:	6061      	str	r1, [r4, #4]
 8000f5e:	60a2      	str	r2, [r4, #8]
 8000f60:	881b      	ldrh	r3, [r3, #0]
 8000f62:	81a3      	strh	r3, [r4, #12]
	  HAL_UART_Transmit(&huart2, cliBufferTX, strlen((char *) cliBufferTX), 1000);
 8000f64:	4871      	ldr	r0, [pc, #452]	; (800112c <main+0xfd0>)
 8000f66:	f7ff f8f1 	bl	800014c <strlen>
 8000f6a:	4603      	mov	r3, r0
 8000f6c:	b29a      	uxth	r2, r3
 8000f6e:	f44f 737a 	mov.w	r3, #1000	; 0x3e8
 8000f72:	496e      	ldr	r1, [pc, #440]	; (800112c <main+0xfd0>)
 8000f74:	486e      	ldr	r0, [pc, #440]	; (8001130 <main+0xfd4>)
 8000f76:	f001 fcdc 	bl	8002932 <HAL_UART_Transmit>
	  HAL_Delay(3790);
 8000f7a:	f640 60ce 	movw	r0, #3790	; 0xece
 8000f7e:	f000 fb41 	bl	8001604 <HAL_Delay>
	  strcpy((char *)cliBufferTX, "echo -e \x1B[2J\x1B[0;0H");
 8000f82:	4a6a      	ldr	r2, [pc, #424]	; (800112c <main+0xfd0>)
 8000f84:	4b71      	ldr	r3, [pc, #452]	; (800114c <main+0xff0>)
 8000f86:	4615      	mov	r5, r2
 8000f88:	461c      	mov	r4, r3
 8000f8a:	cc0f      	ldmia	r4!, {r0, r1, r2, r3}
 8000f8c:	6028      	str	r0, [r5, #0]
 8000f8e:	6069      	str	r1, [r5, #4]
 8000f90:	60aa      	str	r2, [r5, #8]
 8000f92:	60eb      	str	r3, [r5, #12]
 8000f94:	8823      	ldrh	r3, [r4, #0]
 8000f96:	78a2      	ldrb	r2, [r4, #2]
 8000f98:	822b      	strh	r3, [r5, #16]
 8000f9a:	4613      	mov	r3, r2
 8000f9c:	74ab      	strb	r3, [r5, #18]
	  HAL_UART_Transmit(&huart2, cliBufferTX, strlen((char *) cliBufferTX), 1000);
 8000f9e:	4863      	ldr	r0, [pc, #396]	; (800112c <main+0xfd0>)
 8000fa0:	f7ff f8d4 	bl	800014c <strlen>
 8000fa4:	4603      	mov	r3, r0
 8000fa6:	b29a      	uxth	r2, r3
 8000fa8:	f44f 737a 	mov.w	r3, #1000	; 0x3e8
 8000fac:	495f      	ldr	r1, [pc, #380]	; (800112c <main+0xfd0>)
 8000fae:	4860      	ldr	r0, [pc, #384]	; (8001130 <main+0xfd4>)
 8000fb0:	f001 fcbf 	bl	8002932 <HAL_UART_Transmit>

	  //STATE E
	  strcpy((char *)cliBufferTX, "State E\r\n");
 8000fb4:	4a5d      	ldr	r2, [pc, #372]	; (800112c <main+0xfd0>)
 8000fb6:	4b66      	ldr	r3, [pc, #408]	; (8001150 <main+0xff4>)
 8000fb8:	cb03      	ldmia	r3!, {r0, r1}
 8000fba:	6010      	str	r0, [r2, #0]
 8000fbc:	6051      	str	r1, [r2, #4]
 8000fbe:	881b      	ldrh	r3, [r3, #0]
 8000fc0:	8113      	strh	r3, [r2, #8]
	  HAL_UART_Transmit(&huart2, cliBufferTX, strlen((char *) cliBufferTX), 1000);
 8000fc2:	485a      	ldr	r0, [pc, #360]	; (800112c <main+0xfd0>)
 8000fc4:	f7ff f8c2 	bl	800014c <strlen>
 8000fc8:	4603      	mov	r3, r0
 8000fca:	b29a      	uxth	r2, r3
 8000fcc:	f44f 737a 	mov.w	r3, #1000	; 0x3e8
 8000fd0:	4956      	ldr	r1, [pc, #344]	; (800112c <main+0xfd0>)
 8000fd2:	4857      	ldr	r0, [pc, #348]	; (8001130 <main+0xfd4>)
 8000fd4:	f001 fcad 	bl	8002932 <HAL_UART_Transmit>
	  strcpy((char *)cliBufferTX, "  | x |   |\r\n");
 8000fd8:	4a54      	ldr	r2, [pc, #336]	; (800112c <main+0xfd0>)
 8000fda:	4b57      	ldr	r3, [pc, #348]	; (8001138 <main+0xfdc>)
 8000fdc:	4614      	mov	r4, r2
 8000fde:	cb07      	ldmia	r3!, {r0, r1, r2}
 8000fe0:	6020      	str	r0, [r4, #0]
 8000fe2:	6061      	str	r1, [r4, #4]
 8000fe4:	60a2      	str	r2, [r4, #8]
 8000fe6:	881b      	ldrh	r3, [r3, #0]
 8000fe8:	81a3      	strh	r3, [r4, #12]
	  HAL_UART_Transmit(&huart2, cliBufferTX, strlen((char *) cliBufferTX), 1000);
 8000fea:	4850      	ldr	r0, [pc, #320]	; (800112c <main+0xfd0>)
 8000fec:	f7ff f8ae 	bl	800014c <strlen>
 8000ff0:	4603      	mov	r3, r0
 8000ff2:	b29a      	uxth	r2, r3
 8000ff4:	f44f 737a 	mov.w	r3, #1000	; 0x3e8
 8000ff8:	494c      	ldr	r1, [pc, #304]	; (800112c <main+0xfd0>)
 8000ffa:	484d      	ldr	r0, [pc, #308]	; (8001130 <main+0xfd4>)
 8000ffc:	f001 fc99 	bl	8002932 <HAL_UART_Transmit>
	  strcpy((char *)cliBufferTX, "__         __\r\n");
 8001000:	4a4a      	ldr	r2, [pc, #296]	; (800112c <main+0xfd0>)
 8001002:	4b4e      	ldr	r3, [pc, #312]	; (800113c <main+0xfe0>)
 8001004:	4614      	mov	r4, r2
 8001006:	461d      	mov	r5, r3
 8001008:	cd0f      	ldmia	r5!, {r0, r1, r2, r3}
 800100a:	6020      	str	r0, [r4, #0]
 800100c:	6061      	str	r1, [r4, #4]
 800100e:	60a2      	str	r2, [r4, #8]
 8001010:	60e3      	str	r3, [r4, #12]
	  HAL_UART_Transmit(&huart2, cliBufferTX, strlen((char *) cliBufferTX), 1000);
 8001012:	4846      	ldr	r0, [pc, #280]	; (800112c <main+0xfd0>)
 8001014:	f7ff f89a 	bl	800014c <strlen>
 8001018:	4603      	mov	r3, r0
 800101a:	b29a      	uxth	r2, r3
 800101c:	f44f 737a 	mov.w	r3, #1000	; 0x3e8
 8001020:	4942      	ldr	r1, [pc, #264]	; (800112c <main+0xfd0>)
 8001022:	4843      	ldr	r0, [pc, #268]	; (8001130 <main+0xfd4>)
 8001024:	f001 fc85 	bl	8002932 <HAL_UART_Transmit>
	  strcpy((char *)cliBufferTX, "           x\r\n");
 8001028:	4a40      	ldr	r2, [pc, #256]	; (800112c <main+0xfd0>)
 800102a:	4b4a      	ldr	r3, [pc, #296]	; (8001154 <main+0xff8>)
 800102c:	4614      	mov	r4, r2
 800102e:	cb07      	ldmia	r3!, {r0, r1, r2}
 8001030:	6020      	str	r0, [r4, #0]
 8001032:	6061      	str	r1, [r4, #4]
 8001034:	60a2      	str	r2, [r4, #8]
 8001036:	881a      	ldrh	r2, [r3, #0]
 8001038:	789b      	ldrb	r3, [r3, #2]
 800103a:	81a2      	strh	r2, [r4, #12]
 800103c:	73a3      	strb	r3, [r4, #14]
	  HAL_UART_Transmit(&huart2, cliBufferTX, strlen((char *) cliBufferTX), 1000);
 800103e:	483b      	ldr	r0, [pc, #236]	; (800112c <main+0xfd0>)
 8001040:	f7ff f884 	bl	800014c <strlen>
 8001044:	4603      	mov	r3, r0
 8001046:	b29a      	uxth	r2, r3
 8001048:	f44f 737a 	mov.w	r3, #1000	; 0x3e8
 800104c:	4937      	ldr	r1, [pc, #220]	; (800112c <main+0xfd0>)
 800104e:	4838      	ldr	r0, [pc, #224]	; (8001130 <main+0xfd4>)
 8001050:	f001 fc6f 	bl	8002932 <HAL_UART_Transmit>
	  strcpy((char *)cliBufferTX, "__         __\r\n");
 8001054:	4a35      	ldr	r2, [pc, #212]	; (800112c <main+0xfd0>)
 8001056:	4b39      	ldr	r3, [pc, #228]	; (800113c <main+0xfe0>)
 8001058:	4614      	mov	r4, r2
 800105a:	461d      	mov	r5, r3
 800105c:	cd0f      	ldmia	r5!, {r0, r1, r2, r3}
 800105e:	6020      	str	r0, [r4, #0]
 8001060:	6061      	str	r1, [r4, #4]
 8001062:	60a2      	str	r2, [r4, #8]
 8001064:	60e3      	str	r3, [r4, #12]
	  HAL_UART_Transmit(&huart2, cliBufferTX, strlen((char *) cliBufferTX), 1000);
 8001066:	4831      	ldr	r0, [pc, #196]	; (800112c <main+0xfd0>)
 8001068:	f7ff f870 	bl	800014c <strlen>
 800106c:	4603      	mov	r3, r0
 800106e:	b29a      	uxth	r2, r3
 8001070:	f44f 737a 	mov.w	r3, #1000	; 0x3e8
 8001074:	492d      	ldr	r1, [pc, #180]	; (800112c <main+0xfd0>)
 8001076:	482e      	ldr	r0, [pc, #184]	; (8001130 <main+0xfd4>)
 8001078:	f001 fc5b 	bl	8002932 <HAL_UART_Transmit>
	  strcpy((char *)cliBufferTX, " x\r\n");
 800107c:	4b2b      	ldr	r3, [pc, #172]	; (800112c <main+0xfd0>)
 800107e:	4a36      	ldr	r2, [pc, #216]	; (8001158 <main+0xffc>)
 8001080:	6810      	ldr	r0, [r2, #0]
 8001082:	6018      	str	r0, [r3, #0]
 8001084:	7912      	ldrb	r2, [r2, #4]
 8001086:	711a      	strb	r2, [r3, #4]
	  HAL_UART_Transmit(&huart2, cliBufferTX, strlen((char *) cliBufferTX), 1000);
 8001088:	4828      	ldr	r0, [pc, #160]	; (800112c <main+0xfd0>)
 800108a:	f7ff f85f 	bl	800014c <strlen>
 800108e:	4603      	mov	r3, r0
 8001090:	b29a      	uxth	r2, r3
 8001092:	f44f 737a 	mov.w	r3, #1000	; 0x3e8
 8001096:	4925      	ldr	r1, [pc, #148]	; (800112c <main+0xfd0>)
 8001098:	4825      	ldr	r0, [pc, #148]	; (8001130 <main+0xfd4>)
 800109a:	f001 fc4a 	bl	8002932 <HAL_UART_Transmit>
	  strcpy((char *)cliBufferTX, "__         __\r\n");
 800109e:	4a23      	ldr	r2, [pc, #140]	; (800112c <main+0xfd0>)
 80010a0:	4b26      	ldr	r3, [pc, #152]	; (800113c <main+0xfe0>)
 80010a2:	4614      	mov	r4, r2
 80010a4:	461d      	mov	r5, r3
 80010a6:	cd0f      	ldmia	r5!, {r0, r1, r2, r3}
 80010a8:	6020      	str	r0, [r4, #0]
 80010aa:	6061      	str	r1, [r4, #4]
 80010ac:	60a2      	str	r2, [r4, #8]
 80010ae:	60e3      	str	r3, [r4, #12]
	  HAL_UART_Transmit(&huart2, cliBufferTX, strlen((char *) cliBufferTX), 1000);
 80010b0:	481e      	ldr	r0, [pc, #120]	; (800112c <main+0xfd0>)
 80010b2:	f7ff f84b 	bl	800014c <strlen>
 80010b6:	4603      	mov	r3, r0
 80010b8:	b29a      	uxth	r2, r3
 80010ba:	f44f 737a 	mov.w	r3, #1000	; 0x3e8
 80010be:	491b      	ldr	r1, [pc, #108]	; (800112c <main+0xfd0>)
 80010c0:	481b      	ldr	r0, [pc, #108]	; (8001130 <main+0xfd4>)
 80010c2:	f001 fc36 	bl	8002932 <HAL_UART_Transmit>
	  strcpy((char *)cliBufferTX, "  |   | x |\r\n");
 80010c6:	4a19      	ldr	r2, [pc, #100]	; (800112c <main+0xfd0>)
 80010c8:	4b1f      	ldr	r3, [pc, #124]	; (8001148 <main+0xfec>)
 80010ca:	4614      	mov	r4, r2
 80010cc:	cb07      	ldmia	r3!, {r0, r1, r2}
 80010ce:	6020      	str	r0, [r4, #0]
 80010d0:	6061      	str	r1, [r4, #4]
 80010d2:	60a2      	str	r2, [r4, #8]
 80010d4:	881b      	ldrh	r3, [r3, #0]
 80010d6:	81a3      	strh	r3, [r4, #12]
	  HAL_UART_Transmit(&huart2, cliBufferTX, strlen((char *) cliBufferTX), 1000);
 80010d8:	4814      	ldr	r0, [pc, #80]	; (800112c <main+0xfd0>)
 80010da:	f7ff f837 	bl	800014c <strlen>
 80010de:	4603      	mov	r3, r0
 80010e0:	b29a      	uxth	r2, r3
 80010e2:	f44f 737a 	mov.w	r3, #1000	; 0x3e8
 80010e6:	4911      	ldr	r1, [pc, #68]	; (800112c <main+0xfd0>)
 80010e8:	4811      	ldr	r0, [pc, #68]	; (8001130 <main+0xfd4>)
 80010ea:	f001 fc22 	bl	8002932 <HAL_UART_Transmit>
	  HAL_Delay(2830);
 80010ee:	f640 300e 	movw	r0, #2830	; 0xb0e
 80010f2:	f000 fa87 	bl	8001604 <HAL_Delay>
	  strcpy((char *)cliBufferTX, "echo -e \x1B[2J\x1B[0;0H");
 80010f6:	4a0d      	ldr	r2, [pc, #52]	; (800112c <main+0xfd0>)
 80010f8:	4b14      	ldr	r3, [pc, #80]	; (800114c <main+0xff0>)
 80010fa:	4615      	mov	r5, r2
 80010fc:	461c      	mov	r4, r3
 80010fe:	cc0f      	ldmia	r4!, {r0, r1, r2, r3}
 8001100:	6028      	str	r0, [r5, #0]
 8001102:	6069      	str	r1, [r5, #4]
 8001104:	60aa      	str	r2, [r5, #8]
 8001106:	60eb      	str	r3, [r5, #12]
 8001108:	8823      	ldrh	r3, [r4, #0]
 800110a:	78a2      	ldrb	r2, [r4, #2]
 800110c:	822b      	strh	r3, [r5, #16]
 800110e:	4613      	mov	r3, r2
 8001110:	74ab      	strb	r3, [r5, #18]
	  HAL_UART_Transmit(&huart2, cliBufferTX, strlen((char *) cliBufferTX), 1000);
 8001112:	4806      	ldr	r0, [pc, #24]	; (800112c <main+0xfd0>)
 8001114:	f7ff f81a 	bl	800014c <strlen>
 8001118:	4603      	mov	r3, r0
 800111a:	b29a      	uxth	r2, r3
 800111c:	f44f 737a 	mov.w	r3, #1000	; 0x3e8
 8001120:	4902      	ldr	r1, [pc, #8]	; (800112c <main+0xfd0>)
 8001122:	4803      	ldr	r0, [pc, #12]	; (8001130 <main+0xfd4>)
 8001124:	f001 fc05 	bl	8002932 <HAL_UART_Transmit>
  {
 8001128:	f7ff b82e 	b.w	8000188 <main+0x2c>
 800112c:	20000070 	.word	0x20000070
 8001130:	20000090 	.word	0x20000090
 8001134:	08002e1c 	.word	0x08002e1c
 8001138:	08002d90 	.word	0x08002d90
 800113c:	08002cb4 	.word	0x08002cb4
 8001140:	08002e28 	.word	0x08002e28
 8001144:	08002e38 	.word	0x08002e38
 8001148:	08002da0 	.word	0x08002da0
 800114c:	08002c84 	.word	0x08002c84
 8001150:	08002c78 	.word	0x08002c78
 8001154:	08002cc4 	.word	0x08002cc4
 8001158:	08002cd4 	.word	0x08002cd4

0800115c <SystemClock_Config>:
/**
  * @brief System Clock Configuration
  * @retval None
  */
void SystemClock_Config(void)
{
 800115c:	b580      	push	{r7, lr}
 800115e:	b090      	sub	sp, #64	; 0x40
 8001160:	af00      	add	r7, sp, #0
  RCC_OscInitTypeDef RCC_OscInitStruct = {0};
 8001162:	f107 0318 	add.w	r3, r7, #24
 8001166:	2228      	movs	r2, #40	; 0x28
 8001168:	2100      	movs	r1, #0
 800116a:	4618      	mov	r0, r3
 800116c:	f001 fd70 	bl	8002c50 <memset>
  RCC_ClkInitTypeDef RCC_ClkInitStruct = {0};
 8001170:	1d3b      	adds	r3, r7, #4
 8001172:	2200      	movs	r2, #0
 8001174:	601a      	str	r2, [r3, #0]
 8001176:	605a      	str	r2, [r3, #4]
 8001178:	609a      	str	r2, [r3, #8]
 800117a:	60da      	str	r2, [r3, #12]
 800117c:	611a      	str	r2, [r3, #16]

  /** Initializes the RCC Oscillators according to the specified parameters
  * in the RCC_OscInitTypeDef structure.
  */
  RCC_OscInitStruct.OscillatorType = RCC_OSCILLATORTYPE_HSI;
 800117e:	2302      	movs	r3, #2
 8001180:	61bb      	str	r3, [r7, #24]
  RCC_OscInitStruct.HSIState = RCC_HSI_ON;
 8001182:	2301      	movs	r3, #1
 8001184:	62bb      	str	r3, [r7, #40]	; 0x28
  RCC_OscInitStruct.HSICalibrationValue = RCC_HSICALIBRATION_DEFAULT;
 8001186:	2310      	movs	r3, #16
 8001188:	62fb      	str	r3, [r7, #44]	; 0x2c
  RCC_OscInitStruct.PLL.PLLState = RCC_PLL_NONE;
 800118a:	2300      	movs	r3, #0
 800118c:	637b      	str	r3, [r7, #52]	; 0x34
  if (HAL_RCC_OscConfig(&RCC_OscInitStruct) != HAL_OK)
 800118e:	f107 0318 	add.w	r3, r7, #24
 8001192:	4618      	mov	r0, r3
 8001194:	f000 fcd0 	bl	8001b38 <HAL_RCC_OscConfig>
 8001198:	4603      	mov	r3, r0
 800119a:	2b00      	cmp	r3, #0
 800119c:	d001      	beq.n	80011a2 <SystemClock_Config+0x46>
  {
    Error_Handler();
 800119e:	f000 f8db 	bl	8001358 <Error_Handler>
  }
  /** Initializes the CPU, AHB and APB buses clocks
  */
  RCC_ClkInitStruct.ClockType = RCC_CLOCKTYPE_HCLK|RCC_CLOCKTYPE_SYSCLK
 80011a2:	230f      	movs	r3, #15
 80011a4:	607b      	str	r3, [r7, #4]
                              |RCC_CLOCKTYPE_PCLK1|RCC_CLOCKTYPE_PCLK2;
  RCC_ClkInitStruct.SYSCLKSource = RCC_SYSCLKSOURCE_HSI;
 80011a6:	2300      	movs	r3, #0
 80011a8:	60bb      	str	r3, [r7, #8]
  RCC_ClkInitStruct.AHBCLKDivider = RCC_SYSCLK_DIV1;
 80011aa:	2300      	movs	r3, #0
 80011ac:	60fb      	str	r3, [r7, #12]
  RCC_ClkInitStruct.APB1CLKDivider = RCC_HCLK_DIV1;
 80011ae:	2300      	movs	r3, #0
 80011b0:	613b      	str	r3, [r7, #16]
  RCC_ClkInitStruct.APB2CLKDivider = RCC_HCLK_DIV1;
 80011b2:	2300      	movs	r3, #0
 80011b4:	617b      	str	r3, [r7, #20]

  if (HAL_RCC_ClockConfig(&RCC_ClkInitStruct, FLASH_LATENCY_0) != HAL_OK)
 80011b6:	1d3b      	adds	r3, r7, #4
 80011b8:	2100      	movs	r1, #0
 80011ba:	4618      	mov	r0, r3
 80011bc:	f000 ff3c 	bl	8002038 <HAL_RCC_ClockConfig>
 80011c0:	4603      	mov	r3, r0
 80011c2:	2b00      	cmp	r3, #0
 80011c4:	d001      	beq.n	80011ca <SystemClock_Config+0x6e>
  {
    Error_Handler();
 80011c6:	f000 f8c7 	bl	8001358 <Error_Handler>
  }
}
 80011ca:	bf00      	nop
 80011cc:	3740      	adds	r7, #64	; 0x40
 80011ce:	46bd      	mov	sp, r7
 80011d0:	bd80      	pop	{r7, pc}
	...

080011d4 <MX_TIM4_Init>:
  * @brief TIM4 Initialization Function
  * @param None
  * @retval None
  */
static void MX_TIM4_Init(void)
{
 80011d4:	b580      	push	{r7, lr}
 80011d6:	b086      	sub	sp, #24
 80011d8:	af00      	add	r7, sp, #0

  /* USER CODE BEGIN TIM4_Init 0 */

  /* USER CODE END TIM4_Init 0 */

  TIM_ClockConfigTypeDef sClockSourceConfig = {0};
 80011da:	f107 0308 	add.w	r3, r7, #8
 80011de:	2200      	movs	r2, #0
 80011e0:	601a      	str	r2, [r3, #0]
 80011e2:	605a      	str	r2, [r3, #4]
 80011e4:	609a      	str	r2, [r3, #8]
 80011e6:	60da      	str	r2, [r3, #12]
  TIM_MasterConfigTypeDef sMasterConfig = {0};
 80011e8:	463b      	mov	r3, r7
 80011ea:	2200      	movs	r2, #0
 80011ec:	601a      	str	r2, [r3, #0]
 80011ee:	605a      	str	r2, [r3, #4]

  /* USER CODE BEGIN TIM4_Init 1 */

  /* USER CODE END TIM4_Init 1 */
  htim4.Instance = TIM4;
 80011f0:	4b1d      	ldr	r3, [pc, #116]	; (8001268 <MX_TIM4_Init+0x94>)
 80011f2:	4a1e      	ldr	r2, [pc, #120]	; (800126c <MX_TIM4_Init+0x98>)
 80011f4:	601a      	str	r2, [r3, #0]
  htim4.Init.Prescaler = 0;
 80011f6:	4b1c      	ldr	r3, [pc, #112]	; (8001268 <MX_TIM4_Init+0x94>)
 80011f8:	2200      	movs	r2, #0
 80011fa:	605a      	str	r2, [r3, #4]
  htim4.Init.CounterMode = TIM_COUNTERMODE_DOWN;
 80011fc:	4b1a      	ldr	r3, [pc, #104]	; (8001268 <MX_TIM4_Init+0x94>)
 80011fe:	2210      	movs	r2, #16
 8001200:	609a      	str	r2, [r3, #8]
  htim4.Init.Period = 65535;
 8001202:	4b19      	ldr	r3, [pc, #100]	; (8001268 <MX_TIM4_Init+0x94>)
 8001204:	f64f 72ff 	movw	r2, #65535	; 0xffff
 8001208:	60da      	str	r2, [r3, #12]
  htim4.Init.ClockDivision = TIM_CLOCKDIVISION_DIV1;
 800120a:	4b17      	ldr	r3, [pc, #92]	; (8001268 <MX_TIM4_Init+0x94>)
 800120c:	2200      	movs	r2, #0
 800120e:	611a      	str	r2, [r3, #16]
  htim4.Init.AutoReloadPreload = TIM_AUTORELOAD_PRELOAD_DISABLE;
 8001210:	4b15      	ldr	r3, [pc, #84]	; (8001268 <MX_TIM4_Init+0x94>)
 8001212:	2200      	movs	r2, #0
 8001214:	619a      	str	r2, [r3, #24]
  if (HAL_TIM_Base_Init(&htim4) != HAL_OK)
 8001216:	4814      	ldr	r0, [pc, #80]	; (8001268 <MX_TIM4_Init+0x94>)
 8001218:	f001 f8a8 	bl	800236c <HAL_TIM_Base_Init>
 800121c:	4603      	mov	r3, r0
 800121e:	2b00      	cmp	r3, #0
 8001220:	d001      	beq.n	8001226 <MX_TIM4_Init+0x52>
  {
    Error_Handler();
 8001222:	f000 f899 	bl	8001358 <Error_Handler>
  }
  sClockSourceConfig.ClockSource = TIM_CLOCKSOURCE_INTERNAL;
 8001226:	f44f 5380 	mov.w	r3, #4096	; 0x1000
 800122a:	60bb      	str	r3, [r7, #8]
  if (HAL_TIM_ConfigClockSource(&htim4, &sClockSourceConfig) != HAL_OK)
 800122c:	f107 0308 	add.w	r3, r7, #8
 8001230:	4619      	mov	r1, r3
 8001232:	480d      	ldr	r0, [pc, #52]	; (8001268 <MX_TIM4_Init+0x94>)
 8001234:	f001 f92e 	bl	8002494 <HAL_TIM_ConfigClockSource>
 8001238:	4603      	mov	r3, r0
 800123a:	2b00      	cmp	r3, #0
 800123c:	d001      	beq.n	8001242 <MX_TIM4_Init+0x6e>
  {
    Error_Handler();
 800123e:	f000 f88b 	bl	8001358 <Error_Handler>
  }
  sMasterConfig.MasterOutputTrigger = TIM_TRGO_RESET;
 8001242:	2300      	movs	r3, #0
 8001244:	603b      	str	r3, [r7, #0]
  sMasterConfig.MasterSlaveMode = TIM_MASTERSLAVEMODE_DISABLE;
 8001246:	2300      	movs	r3, #0
 8001248:	607b      	str	r3, [r7, #4]
  if (HAL_TIMEx_MasterConfigSynchronization(&htim4, &sMasterConfig) != HAL_OK)
 800124a:	463b      	mov	r3, r7
 800124c:	4619      	mov	r1, r3
 800124e:	4806      	ldr	r0, [pc, #24]	; (8001268 <MX_TIM4_Init+0x94>)
 8001250:	f001 faca 	bl	80027e8 <HAL_TIMEx_MasterConfigSynchronization>
 8001254:	4603      	mov	r3, r0
 8001256:	2b00      	cmp	r3, #0
 8001258:	d001      	beq.n	800125e <MX_TIM4_Init+0x8a>
  {
    Error_Handler();
 800125a:	f000 f87d 	bl	8001358 <Error_Handler>
  }
  /* USER CODE BEGIN TIM4_Init 2 */

  /* USER CODE END TIM4_Init 2 */

}
 800125e:	bf00      	nop
 8001260:	3718      	adds	r7, #24
 8001262:	46bd      	mov	sp, r7
 8001264:	bd80      	pop	{r7, pc}
 8001266:	bf00      	nop
 8001268:	20000028 	.word	0x20000028
 800126c:	40000800 	.word	0x40000800

08001270 <MX_USART2_UART_Init>:
  * @brief USART2 Initialization Function
  * @param None
  * @retval None
  */
static void MX_USART2_UART_Init(void)
{
 8001270:	b580      	push	{r7, lr}
 8001272:	af00      	add	r7, sp, #0
  /* USER CODE END USART2_Init 0 */

  /* USER CODE BEGIN USART2_Init 1 */

  /* USER CODE END USART2_Init 1 */
  huart2.Instance = USART2;
 8001274:	4b11      	ldr	r3, [pc, #68]	; (80012bc <MX_USART2_UART_Init+0x4c>)
 8001276:	4a12      	ldr	r2, [pc, #72]	; (80012c0 <MX_USART2_UART_Init+0x50>)
 8001278:	601a      	str	r2, [r3, #0]
  huart2.Init.BaudRate = 115200;
 800127a:	4b10      	ldr	r3, [pc, #64]	; (80012bc <MX_USART2_UART_Init+0x4c>)
 800127c:	f44f 32e1 	mov.w	r2, #115200	; 0x1c200
 8001280:	605a      	str	r2, [r3, #4]
  huart2.Init.WordLength = UART_WORDLENGTH_8B;
 8001282:	4b0e      	ldr	r3, [pc, #56]	; (80012bc <MX_USART2_UART_Init+0x4c>)
 8001284:	2200      	movs	r2, #0
 8001286:	609a      	str	r2, [r3, #8]
  huart2.Init.StopBits = UART_STOPBITS_1;
 8001288:	4b0c      	ldr	r3, [pc, #48]	; (80012bc <MX_USART2_UART_Init+0x4c>)
 800128a:	2200      	movs	r2, #0
 800128c:	60da      	str	r2, [r3, #12]
  huart2.Init.Parity = UART_PARITY_NONE;
 800128e:	4b0b      	ldr	r3, [pc, #44]	; (80012bc <MX_USART2_UART_Init+0x4c>)
 8001290:	2200      	movs	r2, #0
 8001292:	611a      	str	r2, [r3, #16]
  huart2.Init.Mode = UART_MODE_TX_RX;
 8001294:	4b09      	ldr	r3, [pc, #36]	; (80012bc <MX_USART2_UART_Init+0x4c>)
 8001296:	220c      	movs	r2, #12
 8001298:	615a      	str	r2, [r3, #20]
  huart2.Init.HwFlowCtl = UART_HWCONTROL_NONE;
 800129a:	4b08      	ldr	r3, [pc, #32]	; (80012bc <MX_USART2_UART_Init+0x4c>)
 800129c:	2200      	movs	r2, #0
 800129e:	619a      	str	r2, [r3, #24]
  huart2.Init.OverSampling = UART_OVERSAMPLING_16;
 80012a0:	4b06      	ldr	r3, [pc, #24]	; (80012bc <MX_USART2_UART_Init+0x4c>)
 80012a2:	2200      	movs	r2, #0
 80012a4:	61da      	str	r2, [r3, #28]
  if (HAL_UART_Init(&huart2) != HAL_OK)
 80012a6:	4805      	ldr	r0, [pc, #20]	; (80012bc <MX_USART2_UART_Init+0x4c>)
 80012a8:	f001 faf6 	bl	8002898 <HAL_UART_Init>
 80012ac:	4603      	mov	r3, r0
 80012ae:	2b00      	cmp	r3, #0
 80012b0:	d001      	beq.n	80012b6 <MX_USART2_UART_Init+0x46>
  {
    Error_Handler();
 80012b2:	f000 f851 	bl	8001358 <Error_Handler>
  }
  /* USER CODE BEGIN USART2_Init 2 */

  /* USER CODE END USART2_Init 2 */

}
 80012b6:	bf00      	nop
 80012b8:	bd80      	pop	{r7, pc}
 80012ba:	bf00      	nop
 80012bc:	20000090 	.word	0x20000090
 80012c0:	40004400 	.word	0x40004400

080012c4 <MX_GPIO_Init>:
  * @brief GPIO Initialization Function
  * @param None
  * @retval None
  */
static void MX_GPIO_Init(void)
{
 80012c4:	b580      	push	{r7, lr}
 80012c6:	b088      	sub	sp, #32
 80012c8:	af00      	add	r7, sp, #0
  GPIO_InitTypeDef GPIO_InitStruct = {0};
 80012ca:	f107 0310 	add.w	r3, r7, #16
 80012ce:	2200      	movs	r2, #0
 80012d0:	601a      	str	r2, [r3, #0]
 80012d2:	605a      	str	r2, [r3, #4]
 80012d4:	609a      	str	r2, [r3, #8]
 80012d6:	60da      	str	r2, [r3, #12]

  /* GPIO Ports Clock Enable */
  __HAL_RCC_GPIOC_CLK_ENABLE();
 80012d8:	4b1d      	ldr	r3, [pc, #116]	; (8001350 <MX_GPIO_Init+0x8c>)
 80012da:	699b      	ldr	r3, [r3, #24]
 80012dc:	4a1c      	ldr	r2, [pc, #112]	; (8001350 <MX_GPIO_Init+0x8c>)
 80012de:	f043 0310 	orr.w	r3, r3, #16
 80012e2:	6193      	str	r3, [r2, #24]
 80012e4:	4b1a      	ldr	r3, [pc, #104]	; (8001350 <MX_GPIO_Init+0x8c>)
 80012e6:	699b      	ldr	r3, [r3, #24]
 80012e8:	f003 0310 	and.w	r3, r3, #16
 80012ec:	60fb      	str	r3, [r7, #12]
 80012ee:	68fb      	ldr	r3, [r7, #12]
  __HAL_RCC_GPIOD_CLK_ENABLE();
 80012f0:	4b17      	ldr	r3, [pc, #92]	; (8001350 <MX_GPIO_Init+0x8c>)
 80012f2:	699b      	ldr	r3, [r3, #24]
 80012f4:	4a16      	ldr	r2, [pc, #88]	; (8001350 <MX_GPIO_Init+0x8c>)
 80012f6:	f043 0320 	orr.w	r3, r3, #32
 80012fa:	6193      	str	r3, [r2, #24]
 80012fc:	4b14      	ldr	r3, [pc, #80]	; (8001350 <MX_GPIO_Init+0x8c>)
 80012fe:	699b      	ldr	r3, [r3, #24]
 8001300:	f003 0320 	and.w	r3, r3, #32
 8001304:	60bb      	str	r3, [r7, #8]
 8001306:	68bb      	ldr	r3, [r7, #8]
  __HAL_RCC_GPIOA_CLK_ENABLE();
 8001308:	4b11      	ldr	r3, [pc, #68]	; (8001350 <MX_GPIO_Init+0x8c>)
 800130a:	699b      	ldr	r3, [r3, #24]
 800130c:	4a10      	ldr	r2, [pc, #64]	; (8001350 <MX_GPIO_Init+0x8c>)
 800130e:	f043 0304 	orr.w	r3, r3, #4
 8001312:	6193      	str	r3, [r2, #24]
 8001314:	4b0e      	ldr	r3, [pc, #56]	; (8001350 <MX_GPIO_Init+0x8c>)
 8001316:	699b      	ldr	r3, [r3, #24]
 8001318:	f003 0304 	and.w	r3, r3, #4
 800131c:	607b      	str	r3, [r7, #4]
 800131e:	687b      	ldr	r3, [r7, #4]

  /*Configure GPIO pin Output Level */
  HAL_GPIO_WritePin(GPIOA, GPIO_PIN_5, GPIO_PIN_RESET);
 8001320:	2200      	movs	r2, #0
 8001322:	2120      	movs	r1, #32
 8001324:	480b      	ldr	r0, [pc, #44]	; (8001354 <MX_GPIO_Init+0x90>)
 8001326:	f000 fbef 	bl	8001b08 <HAL_GPIO_WritePin>

  /*Configure GPIO pin : PA5 */
  GPIO_InitStruct.Pin = GPIO_PIN_5;
 800132a:	2320      	movs	r3, #32
 800132c:	613b      	str	r3, [r7, #16]
  GPIO_InitStruct.Mode = GPIO_MODE_OUTPUT_PP;
 800132e:	2301      	movs	r3, #1
 8001330:	617b      	str	r3, [r7, #20]
  GPIO_InitStruct.Pull = GPIO_NOPULL;
 8001332:	2300      	movs	r3, #0
 8001334:	61bb      	str	r3, [r7, #24]
  GPIO_InitStruct.Speed = GPIO_SPEED_FREQ_LOW;
 8001336:	2302      	movs	r3, #2
 8001338:	61fb      	str	r3, [r7, #28]
  HAL_GPIO_Init(GPIOA, &GPIO_InitStruct);
 800133a:	f107 0310 	add.w	r3, r7, #16
 800133e:	4619      	mov	r1, r3
 8001340:	4804      	ldr	r0, [pc, #16]	; (8001354 <MX_GPIO_Init+0x90>)
 8001342:	f000 fa67 	bl	8001814 <HAL_GPIO_Init>

}
 8001346:	bf00      	nop
 8001348:	3720      	adds	r7, #32
 800134a:	46bd      	mov	sp, r7
 800134c:	bd80      	pop	{r7, pc}
 800134e:	bf00      	nop
 8001350:	40021000 	.word	0x40021000
 8001354:	40010800 	.word	0x40010800

08001358 <Error_Handler>:
/**
  * @brief  This function is executed in case of error occurrence.
  * @retval None
  */
void Error_Handler(void)
{
 8001358:	b480      	push	{r7}
 800135a:	af00      	add	r7, sp, #0
  \details Disables IRQ interrupts by setting the I-bit in the CPSR.
           Can only be executed in Privileged modes.
 */
__STATIC_FORCEINLINE void __disable_irq(void)
{
  __ASM volatile ("cpsid i" : : : "memory");
 800135c:	b672      	cpsid	i
}
 800135e:	bf00      	nop
  /* USER CODE BEGIN Error_Handler_Debug */
  /* User can add his own implementation to report the HAL error return state */
  __disable_irq();
  while (1)
 8001360:	e7fe      	b.n	8001360 <Error_Handler+0x8>
	...

08001364 <HAL_MspInit>:
/* USER CODE END 0 */
/**
  * Initializes the Global MSP.
  */
void HAL_MspInit(void)
{
 8001364:	b480      	push	{r7}
 8001366:	b085      	sub	sp, #20
 8001368:	af00      	add	r7, sp, #0
  /* USER CODE BEGIN MspInit 0 */

  /* USER CODE END MspInit 0 */

  __HAL_RCC_AFIO_CLK_ENABLE();
 800136a:	4b15      	ldr	r3, [pc, #84]	; (80013c0 <HAL_MspInit+0x5c>)
 800136c:	699b      	ldr	r3, [r3, #24]
 800136e:	4a14      	ldr	r2, [pc, #80]	; (80013c0 <HAL_MspInit+0x5c>)
 8001370:	f043 0301 	orr.w	r3, r3, #1
 8001374:	6193      	str	r3, [r2, #24]
 8001376:	4b12      	ldr	r3, [pc, #72]	; (80013c0 <HAL_MspInit+0x5c>)
 8001378:	699b      	ldr	r3, [r3, #24]
 800137a:	f003 0301 	and.w	r3, r3, #1
 800137e:	60bb      	str	r3, [r7, #8]
 8001380:	68bb      	ldr	r3, [r7, #8]
  __HAL_RCC_PWR_CLK_ENABLE();
 8001382:	4b0f      	ldr	r3, [pc, #60]	; (80013c0 <HAL_MspInit+0x5c>)
 8001384:	69db      	ldr	r3, [r3, #28]
 8001386:	4a0e      	ldr	r2, [pc, #56]	; (80013c0 <HAL_MspInit+0x5c>)
 8001388:	f043 5380 	orr.w	r3, r3, #268435456	; 0x10000000
 800138c:	61d3      	str	r3, [r2, #28]
 800138e:	4b0c      	ldr	r3, [pc, #48]	; (80013c0 <HAL_MspInit+0x5c>)
 8001390:	69db      	ldr	r3, [r3, #28]
 8001392:	f003 5380 	and.w	r3, r3, #268435456	; 0x10000000
 8001396:	607b      	str	r3, [r7, #4]
 8001398:	687b      	ldr	r3, [r7, #4]

  /* System interrupt init*/

  /** NOJTAG: JTAG-DP Disabled and SW-DP Enabled
  */
  __HAL_AFIO_REMAP_SWJ_NOJTAG();
 800139a:	4b0a      	ldr	r3, [pc, #40]	; (80013c4 <HAL_MspInit+0x60>)
 800139c:	685b      	ldr	r3, [r3, #4]
 800139e:	60fb      	str	r3, [r7, #12]
 80013a0:	68fb      	ldr	r3, [r7, #12]
 80013a2:	f023 63e0 	bic.w	r3, r3, #117440512	; 0x7000000
 80013a6:	60fb      	str	r3, [r7, #12]
 80013a8:	68fb      	ldr	r3, [r7, #12]
 80013aa:	f043 7300 	orr.w	r3, r3, #33554432	; 0x2000000
 80013ae:	60fb      	str	r3, [r7, #12]
 80013b0:	4a04      	ldr	r2, [pc, #16]	; (80013c4 <HAL_MspInit+0x60>)
 80013b2:	68fb      	ldr	r3, [r7, #12]
 80013b4:	6053      	str	r3, [r2, #4]

  /* USER CODE BEGIN MspInit 1 */

  /* USER CODE END MspInit 1 */
}
 80013b6:	bf00      	nop
 80013b8:	3714      	adds	r7, #20
 80013ba:	46bd      	mov	sp, r7
 80013bc:	bc80      	pop	{r7}
 80013be:	4770      	bx	lr
 80013c0:	40021000 	.word	0x40021000
 80013c4:	40010000 	.word	0x40010000

080013c8 <HAL_TIM_Base_MspInit>:
* This function configures the hardware resources used in this example
* @param htim_base: TIM_Base handle pointer
* @retval None
*/
void HAL_TIM_Base_MspInit(TIM_HandleTypeDef* htim_base)
{
 80013c8:	b480      	push	{r7}
 80013ca:	b085      	sub	sp, #20
 80013cc:	af00      	add	r7, sp, #0
 80013ce:	6078      	str	r0, [r7, #4]
  if(htim_base->Instance==TIM4)
 80013d0:	687b      	ldr	r3, [r7, #4]
 80013d2:	681b      	ldr	r3, [r3, #0]
 80013d4:	4a09      	ldr	r2, [pc, #36]	; (80013fc <HAL_TIM_Base_MspInit+0x34>)
 80013d6:	4293      	cmp	r3, r2
 80013d8:	d10b      	bne.n	80013f2 <HAL_TIM_Base_MspInit+0x2a>
  {
  /* USER CODE BEGIN TIM4_MspInit 0 */

  /* USER CODE END TIM4_MspInit 0 */
    /* Peripheral clock enable */
    __HAL_RCC_TIM4_CLK_ENABLE();
 80013da:	4b09      	ldr	r3, [pc, #36]	; (8001400 <HAL_TIM_Base_MspInit+0x38>)
 80013dc:	69db      	ldr	r3, [r3, #28]
 80013de:	4a08      	ldr	r2, [pc, #32]	; (8001400 <HAL_TIM_Base_MspInit+0x38>)
 80013e0:	f043 0304 	orr.w	r3, r3, #4
 80013e4:	61d3      	str	r3, [r2, #28]
 80013e6:	4b06      	ldr	r3, [pc, #24]	; (8001400 <HAL_TIM_Base_MspInit+0x38>)
 80013e8:	69db      	ldr	r3, [r3, #28]
 80013ea:	f003 0304 	and.w	r3, r3, #4
 80013ee:	60fb      	str	r3, [r7, #12]
 80013f0:	68fb      	ldr	r3, [r7, #12]
  /* USER CODE BEGIN TIM4_MspInit 1 */

  /* USER CODE END TIM4_MspInit 1 */
  }

}
 80013f2:	bf00      	nop
 80013f4:	3714      	adds	r7, #20
 80013f6:	46bd      	mov	sp, r7
 80013f8:	bc80      	pop	{r7}
 80013fa:	4770      	bx	lr
 80013fc:	40000800 	.word	0x40000800
 8001400:	40021000 	.word	0x40021000

08001404 <HAL_UART_MspInit>:
* This function configures the hardware resources used in this example
* @param huart: UART handle pointer
* @retval None
*/
void HAL_UART_MspInit(UART_HandleTypeDef* huart)
{
 8001404:	b580      	push	{r7, lr}
 8001406:	b088      	sub	sp, #32
 8001408:	af00      	add	r7, sp, #0
 800140a:	6078      	str	r0, [r7, #4]
  GPIO_InitTypeDef GPIO_InitStruct = {0};
 800140c:	f107 0310 	add.w	r3, r7, #16
 8001410:	2200      	movs	r2, #0
 8001412:	601a      	str	r2, [r3, #0]
 8001414:	605a      	str	r2, [r3, #4]
 8001416:	609a      	str	r2, [r3, #8]
 8001418:	60da      	str	r2, [r3, #12]
  if(huart->Instance==USART2)
 800141a:	687b      	ldr	r3, [r7, #4]
 800141c:	681b      	ldr	r3, [r3, #0]
 800141e:	4a1b      	ldr	r2, [pc, #108]	; (800148c <HAL_UART_MspInit+0x88>)
 8001420:	4293      	cmp	r3, r2
 8001422:	d12f      	bne.n	8001484 <HAL_UART_MspInit+0x80>
  {
  /* USER CODE BEGIN USART2_MspInit 0 */

  /* USER CODE END USART2_MspInit 0 */
    /* Peripheral clock enable */
    __HAL_RCC_USART2_CLK_ENABLE();
 8001424:	4b1a      	ldr	r3, [pc, #104]	; (8001490 <HAL_UART_MspInit+0x8c>)
 8001426:	69db      	ldr	r3, [r3, #28]
 8001428:	4a19      	ldr	r2, [pc, #100]	; (8001490 <HAL_UART_MspInit+0x8c>)
 800142a:	f443 3300 	orr.w	r3, r3, #131072	; 0x20000
 800142e:	61d3      	str	r3, [r2, #28]
 8001430:	4b17      	ldr	r3, [pc, #92]	; (8001490 <HAL_UART_MspInit+0x8c>)
 8001432:	69db      	ldr	r3, [r3, #28]
 8001434:	f403 3300 	and.w	r3, r3, #131072	; 0x20000
 8001438:	60fb      	str	r3, [r7, #12]
 800143a:	68fb      	ldr	r3, [r7, #12]

    __HAL_RCC_GPIOA_CLK_ENABLE();
 800143c:	4b14      	ldr	r3, [pc, #80]	; (8001490 <HAL_UART_MspInit+0x8c>)
 800143e:	699b      	ldr	r3, [r3, #24]
 8001440:	4a13      	ldr	r2, [pc, #76]	; (8001490 <HAL_UART_MspInit+0x8c>)
 8001442:	f043 0304 	orr.w	r3, r3, #4
 8001446:	6193      	str	r3, [r2, #24]
 8001448:	4b11      	ldr	r3, [pc, #68]	; (8001490 <HAL_UART_MspInit+0x8c>)
 800144a:	699b      	ldr	r3, [r3, #24]
 800144c:	f003 0304 	and.w	r3, r3, #4
 8001450:	60bb      	str	r3, [r7, #8]
 8001452:	68bb      	ldr	r3, [r7, #8]
    /**USART2 GPIO Configuration
    PA2     ------> USART2_TX
    PA3     ------> USART2_RX
    */
    GPIO_InitStruct.Pin = GPIO_PIN_2;
 8001454:	2304      	movs	r3, #4
 8001456:	613b      	str	r3, [r7, #16]
    GPIO_InitStruct.Mode = GPIO_MODE_AF_PP;
 8001458:	2302      	movs	r3, #2
 800145a:	617b      	str	r3, [r7, #20]
    GPIO_InitStruct.Speed = GPIO_SPEED_FREQ_HIGH;
 800145c:	2303      	movs	r3, #3
 800145e:	61fb      	str	r3, [r7, #28]
    HAL_GPIO_Init(GPIOA, &GPIO_InitStruct);
 8001460:	f107 0310 	add.w	r3, r7, #16
 8001464:	4619      	mov	r1, r3
 8001466:	480b      	ldr	r0, [pc, #44]	; (8001494 <HAL_UART_MspInit+0x90>)
 8001468:	f000 f9d4 	bl	8001814 <HAL_GPIO_Init>

    GPIO_InitStruct.Pin = GPIO_PIN_3;
 800146c:	2308      	movs	r3, #8
 800146e:	613b      	str	r3, [r7, #16]
    GPIO_InitStruct.Mode = GPIO_MODE_INPUT;
 8001470:	2300      	movs	r3, #0
 8001472:	617b      	str	r3, [r7, #20]
    GPIO_InitStruct.Pull = GPIO_NOPULL;
 8001474:	2300      	movs	r3, #0
 8001476:	61bb      	str	r3, [r7, #24]
    HAL_GPIO_Init(GPIOA, &GPIO_InitStruct);
 8001478:	f107 0310 	add.w	r3, r7, #16
 800147c:	4619      	mov	r1, r3
 800147e:	4805      	ldr	r0, [pc, #20]	; (8001494 <HAL_UART_MspInit+0x90>)
 8001480:	f000 f9c8 	bl	8001814 <HAL_GPIO_Init>
  /* USER CODE BEGIN USART2_MspInit 1 */

  /* USER CODE END USART2_MspInit 1 */
  }

}
 8001484:	bf00      	nop
 8001486:	3720      	adds	r7, #32
 8001488:	46bd      	mov	sp, r7
 800148a:	bd80      	pop	{r7, pc}
 800148c:	40004400 	.word	0x40004400
 8001490:	40021000 	.word	0x40021000
 8001494:	40010800 	.word	0x40010800

08001498 <NMI_Handler>:
/******************************************************************************/
/**
  * @brief This function handles Non maskable interrupt.
  */
void NMI_Handler(void)
{
 8001498:	b480      	push	{r7}
 800149a:	af00      	add	r7, sp, #0
  /* USER CODE BEGIN NonMaskableInt_IRQn 0 */

  /* USER CODE END NonMaskableInt_IRQn 0 */
  /* USER CODE BEGIN NonMaskableInt_IRQn 1 */
  while (1)
 800149c:	e7fe      	b.n	800149c <NMI_Handler+0x4>

0800149e <HardFault_Handler>:

/**
  * @brief This function handles Hard fault interrupt.
  */
void HardFault_Handler(void)
{
 800149e:	b480      	push	{r7}
 80014a0:	af00      	add	r7, sp, #0
  /* USER CODE BEGIN HardFault_IRQn 0 */

  /* USER CODE END HardFault_IRQn 0 */
  while (1)
 80014a2:	e7fe      	b.n	80014a2 <HardFault_Handler+0x4>

080014a4 <MemManage_Handler>:

/**
  * @brief This function handles Memory management fault.
  */
void MemManage_Handler(void)
{
 80014a4:	b480      	push	{r7}
 80014a6:	af00      	add	r7, sp, #0
  /* USER CODE BEGIN MemoryManagement_IRQn 0 */

  /* USER CODE END MemoryManagement_IRQn 0 */
  while (1)
 80014a8:	e7fe      	b.n	80014a8 <MemManage_Handler+0x4>

080014aa <BusFault_Handler>:

/**
  * @brief This function handles Prefetch fault, memory access fault.
  */
void BusFault_Handler(void)
{
 80014aa:	b480      	push	{r7}
 80014ac:	af00      	add	r7, sp, #0
  /* USER CODE BEGIN BusFault_IRQn 0 */

  /* USER CODE END BusFault_IRQn 0 */
  while (1)
 80014ae:	e7fe      	b.n	80014ae <BusFault_Handler+0x4>

080014b0 <UsageFault_Handler>:

/**
  * @brief This function handles Undefined instruction or illegal state.
  */
void UsageFault_Handler(void)
{
 80014b0:	b480      	push	{r7}
 80014b2:	af00      	add	r7, sp, #0
  /* USER CODE BEGIN UsageFault_IRQn 0 */

  /* USER CODE END UsageFault_IRQn 0 */
  while (1)
 80014b4:	e7fe      	b.n	80014b4 <UsageFault_Handler+0x4>

080014b6 <SVC_Handler>:

/**
  * @brief This function handles System service call via SWI instruction.
  */
void SVC_Handler(void)
{
 80014b6:	b480      	push	{r7}
 80014b8:	af00      	add	r7, sp, #0

  /* USER CODE END SVCall_IRQn 0 */
  /* USER CODE BEGIN SVCall_IRQn 1 */

  /* USER CODE END SVCall_IRQn 1 */
}
 80014ba:	bf00      	nop
 80014bc:	46bd      	mov	sp, r7
 80014be:	bc80      	pop	{r7}
 80014c0:	4770      	bx	lr

080014c2 <DebugMon_Handler>:

/**
  * @brief This function handles Debug monitor.
  */
void DebugMon_Handler(void)
{
 80014c2:	b480      	push	{r7}
 80014c4:	af00      	add	r7, sp, #0

  /* USER CODE END DebugMonitor_IRQn 0 */
  /* USER CODE BEGIN DebugMonitor_IRQn 1 */

  /* USER CODE END DebugMonitor_IRQn 1 */
}
 80014c6:	bf00      	nop
 80014c8:	46bd      	mov	sp, r7
 80014ca:	bc80      	pop	{r7}
 80014cc:	4770      	bx	lr

080014ce <PendSV_Handler>:

/**
  * @brief This function handles Pendable request for system service.
  */
void PendSV_Handler(void)
{
 80014ce:	b480      	push	{r7}
 80014d0:	af00      	add	r7, sp, #0

  /* USER CODE END PendSV_IRQn 0 */
  /* USER CODE BEGIN PendSV_IRQn 1 */

  /* USER CODE END PendSV_IRQn 1 */
}
 80014d2:	bf00      	nop
 80014d4:	46bd      	mov	sp, r7
 80014d6:	bc80      	pop	{r7}
 80014d8:	4770      	bx	lr

080014da <SysTick_Handler>:

/**
  * @brief This function handles System tick timer.
  */
void SysTick_Handler(void)
{
 80014da:	b580      	push	{r7, lr}
 80014dc:	af00      	add	r7, sp, #0
  /* USER CODE BEGIN SysTick_IRQn 0 */

  /* USER CODE END SysTick_IRQn 0 */
  HAL_IncTick();
 80014de:	f000 f875 	bl	80015cc <HAL_IncTick>
  /* USER CODE BEGIN SysTick_IRQn 1 */

  /* USER CODE END SysTick_IRQn 1 */
}
 80014e2:	bf00      	nop
 80014e4:	bd80      	pop	{r7, pc}

080014e6 <SystemInit>:
  * @note   This function should be used only after reset.
  * @param  None
  * @retval None
  */
void SystemInit (void)
{
 80014e6:	b480      	push	{r7}
 80014e8:	af00      	add	r7, sp, #0

  /* Configure the Vector Table location -------------------------------------*/
#if defined(USER_VECT_TAB_ADDRESS)
  SCB->VTOR = VECT_TAB_BASE_ADDRESS | VECT_TAB_OFFSET; /* Vector Table Relocation in Internal SRAM. */
#endif /* USER_VECT_TAB_ADDRESS */
}
 80014ea:	bf00      	nop
 80014ec:	46bd      	mov	sp, r7
 80014ee:	bc80      	pop	{r7}
 80014f0:	4770      	bx	lr
	...

080014f4 <Reset_Handler>:
  .weak Reset_Handler
  .type Reset_Handler, %function
Reset_Handler:

/* Copy the data segment initializers from flash to SRAM */
  ldr r0, =_sdata
 80014f4:	480c      	ldr	r0, [pc, #48]	; (8001528 <LoopFillZerobss+0x12>)
  ldr r1, =_edata
 80014f6:	490d      	ldr	r1, [pc, #52]	; (800152c <LoopFillZerobss+0x16>)
  ldr r2, =_sidata
 80014f8:	4a0d      	ldr	r2, [pc, #52]	; (8001530 <LoopFillZerobss+0x1a>)
  movs r3, #0
 80014fa:	2300      	movs	r3, #0
  b LoopCopyDataInit
 80014fc:	e002      	b.n	8001504 <LoopCopyDataInit>

080014fe <CopyDataInit>:

CopyDataInit:
  ldr r4, [r2, r3]
 80014fe:	58d4      	ldr	r4, [r2, r3]
  str r4, [r0, r3]
 8001500:	50c4      	str	r4, [r0, r3]
  adds r3, r3, #4
 8001502:	3304      	adds	r3, #4

08001504 <LoopCopyDataInit>:

LoopCopyDataInit:
  adds r4, r0, r3
 8001504:	18c4      	adds	r4, r0, r3
  cmp r4, r1
 8001506:	428c      	cmp	r4, r1
  bcc CopyDataInit
 8001508:	d3f9      	bcc.n	80014fe <CopyDataInit>
  
/* Zero fill the bss segment. */
  ldr r2, =_sbss
 800150a:	4a0a      	ldr	r2, [pc, #40]	; (8001534 <LoopFillZerobss+0x1e>)
  ldr r4, =_ebss
 800150c:	4c0a      	ldr	r4, [pc, #40]	; (8001538 <LoopFillZerobss+0x22>)
  movs r3, #0
 800150e:	2300      	movs	r3, #0
  b LoopFillZerobss
 8001510:	e001      	b.n	8001516 <LoopFillZerobss>

08001512 <FillZerobss>:

FillZerobss:
  str  r3, [r2]
 8001512:	6013      	str	r3, [r2, #0]
  adds r2, r2, #4
 8001514:	3204      	adds	r2, #4

08001516 <LoopFillZerobss>:

LoopFillZerobss:
  cmp r2, r4
 8001516:	42a2      	cmp	r2, r4
  bcc FillZerobss
 8001518:	d3fb      	bcc.n	8001512 <FillZerobss>

/* Call the clock system intitialization function.*/
    bl  SystemInit
 800151a:	f7ff ffe4 	bl	80014e6 <SystemInit>
/* Call static constructors */
    bl __libc_init_array
 800151e:	f001 fb73 	bl	8002c08 <__libc_init_array>
/* Call the application's entry point.*/
  bl main
 8001522:	f7fe fe1b 	bl	800015c <main>
  bx lr
 8001526:	4770      	bx	lr
  ldr r0, =_sdata
 8001528:	20000000 	.word	0x20000000
  ldr r1, =_edata
 800152c:	2000000c 	.word	0x2000000c
  ldr r2, =_sidata
 8001530:	08002e70 	.word	0x08002e70
  ldr r2, =_sbss
 8001534:	2000000c 	.word	0x2000000c
  ldr r4, =_ebss
 8001538:	200000d8 	.word	0x200000d8

0800153c <ADC1_IRQHandler>:
 * @retval : None
*/
    .section .text.Default_Handler,"ax",%progbits
Default_Handler:
Infinite_Loop:
  b Infinite_Loop
 800153c:	e7fe      	b.n	800153c <ADC1_IRQHandler>
	...

08001540 <HAL_Init>:
  *         need to ensure that the SysTick time base is always set to 1 millisecond
  *         to have correct HAL operation.
  * @retval HAL status
  */
HAL_StatusTypeDef HAL_Init(void)
{
 8001540:	b580      	push	{r7, lr}
 8001542:	af00      	add	r7, sp, #0
    defined(STM32F102x6) || defined(STM32F102xB) || \
    defined(STM32F103x6) || defined(STM32F103xB) || defined(STM32F103xE) || defined(STM32F103xG) || \
    defined(STM32F105xC) || defined(STM32F107xC)

  /* Prefetch buffer is not available on value line devices */
  __HAL_FLASH_PREFETCH_BUFFER_ENABLE();
 8001544:	4b08      	ldr	r3, [pc, #32]	; (8001568 <HAL_Init+0x28>)
 8001546:	681b      	ldr	r3, [r3, #0]
 8001548:	4a07      	ldr	r2, [pc, #28]	; (8001568 <HAL_Init+0x28>)
 800154a:	f043 0310 	orr.w	r3, r3, #16
 800154e:	6013      	str	r3, [r2, #0]
#endif
#endif /* PREFETCH_ENABLE */

  /* Set Interrupt Group Priority */
  HAL_NVIC_SetPriorityGrouping(NVIC_PRIORITYGROUP_4);
 8001550:	2003      	movs	r0, #3
 8001552:	f000 f92b 	bl	80017ac <HAL_NVIC_SetPriorityGrouping>

  /* Use systick as time base source and configure 1ms tick (default clock after Reset is HSI) */
  HAL_InitTick(TICK_INT_PRIORITY);
 8001556:	200f      	movs	r0, #15
 8001558:	f000 f808 	bl	800156c <HAL_InitTick>

  /* Init the low level hardware */
  HAL_MspInit();
 800155c:	f7ff ff02 	bl	8001364 <HAL_MspInit>

  /* Return function status */
  return HAL_OK;
 8001560:	2300      	movs	r3, #0
}
 8001562:	4618      	mov	r0, r3
 8001564:	bd80      	pop	{r7, pc}
 8001566:	bf00      	nop
 8001568:	40022000 	.word	0x40022000

0800156c <HAL_InitTick>:
  *       implementation  in user file.
  * @param TickPriority Tick interrupt priority.
  * @retval HAL status
  */
__weak HAL_StatusTypeDef HAL_InitTick(uint32_t TickPriority)
{
 800156c:	b580      	push	{r7, lr}
 800156e:	b082      	sub	sp, #8
 8001570:	af00      	add	r7, sp, #0
 8001572:	6078      	str	r0, [r7, #4]
  /* Configure the SysTick to have interrupt in 1ms time basis*/
  if (HAL_SYSTICK_Config(SystemCoreClock / (1000U / uwTickFreq)) > 0U)
 8001574:	4b12      	ldr	r3, [pc, #72]	; (80015c0 <HAL_InitTick+0x54>)
 8001576:	681a      	ldr	r2, [r3, #0]
 8001578:	4b12      	ldr	r3, [pc, #72]	; (80015c4 <HAL_InitTick+0x58>)
 800157a:	781b      	ldrb	r3, [r3, #0]
 800157c:	4619      	mov	r1, r3
 800157e:	f44f 737a 	mov.w	r3, #1000	; 0x3e8
 8001582:	fbb3 f3f1 	udiv	r3, r3, r1
 8001586:	fbb2 f3f3 	udiv	r3, r2, r3
 800158a:	4618      	mov	r0, r3
 800158c:	f000 f935 	bl	80017fa <HAL_SYSTICK_Config>
 8001590:	4603      	mov	r3, r0
 8001592:	2b00      	cmp	r3, #0
 8001594:	d001      	beq.n	800159a <HAL_InitTick+0x2e>
  {
    return HAL_ERROR;
 8001596:	2301      	movs	r3, #1
 8001598:	e00e      	b.n	80015b8 <HAL_InitTick+0x4c>
  }

  /* Configure the SysTick IRQ priority */
  if (TickPriority < (1UL << __NVIC_PRIO_BITS))
 800159a:	687b      	ldr	r3, [r7, #4]
 800159c:	2b0f      	cmp	r3, #15
 800159e:	d80a      	bhi.n	80015b6 <HAL_InitTick+0x4a>
  {
    HAL_NVIC_SetPriority(SysTick_IRQn, TickPriority, 0U);
 80015a0:	2200      	movs	r2, #0
 80015a2:	6879      	ldr	r1, [r7, #4]
 80015a4:	f04f 30ff 	mov.w	r0, #4294967295
 80015a8:	f000 f90b 	bl	80017c2 <HAL_NVIC_SetPriority>
    uwTickPrio = TickPriority;
 80015ac:	4a06      	ldr	r2, [pc, #24]	; (80015c8 <HAL_InitTick+0x5c>)
 80015ae:	687b      	ldr	r3, [r7, #4]
 80015b0:	6013      	str	r3, [r2, #0]
  {
    return HAL_ERROR;
  }

  /* Return function status */
  return HAL_OK;
 80015b2:	2300      	movs	r3, #0
 80015b4:	e000      	b.n	80015b8 <HAL_InitTick+0x4c>
    return HAL_ERROR;
 80015b6:	2301      	movs	r3, #1
}
 80015b8:	4618      	mov	r0, r3
 80015ba:	3708      	adds	r7, #8
 80015bc:	46bd      	mov	sp, r7
 80015be:	bd80      	pop	{r7, pc}
 80015c0:	20000000 	.word	0x20000000
 80015c4:	20000008 	.word	0x20000008
 80015c8:	20000004 	.word	0x20000004

080015cc <HAL_IncTick>:
  * @note This function is declared as __weak to be overwritten in case of other
  *      implementations in user file.
  * @retval None
  */
__weak void HAL_IncTick(void)
{
 80015cc:	b480      	push	{r7}
 80015ce:	af00      	add	r7, sp, #0
  uwTick += uwTickFreq;
 80015d0:	4b05      	ldr	r3, [pc, #20]	; (80015e8 <HAL_IncTick+0x1c>)
 80015d2:	781b      	ldrb	r3, [r3, #0]
 80015d4:	461a      	mov	r2, r3
 80015d6:	4b05      	ldr	r3, [pc, #20]	; (80015ec <HAL_IncTick+0x20>)
 80015d8:	681b      	ldr	r3, [r3, #0]
 80015da:	4413      	add	r3, r2
 80015dc:	4a03      	ldr	r2, [pc, #12]	; (80015ec <HAL_IncTick+0x20>)
 80015de:	6013      	str	r3, [r2, #0]
}
 80015e0:	bf00      	nop
 80015e2:	46bd      	mov	sp, r7
 80015e4:	bc80      	pop	{r7}
 80015e6:	4770      	bx	lr
 80015e8:	20000008 	.word	0x20000008
 80015ec:	200000d4 	.word	0x200000d4

080015f0 <HAL_GetTick>:
  * @note  This function is declared as __weak to be overwritten in case of other
  *       implementations in user file.
  * @retval tick value
  */
__weak uint32_t HAL_GetTick(void)
{
 80015f0:	b480      	push	{r7}
 80015f2:	af00      	add	r7, sp, #0
  return uwTick;
 80015f4:	4b02      	ldr	r3, [pc, #8]	; (8001600 <HAL_GetTick+0x10>)
 80015f6:	681b      	ldr	r3, [r3, #0]
}
 80015f8:	4618      	mov	r0, r3
 80015fa:	46bd      	mov	sp, r7
 80015fc:	bc80      	pop	{r7}
 80015fe:	4770      	bx	lr
 8001600:	200000d4 	.word	0x200000d4

08001604 <HAL_Delay>:
  *       implementations in user file.
  * @param Delay specifies the delay time length, in milliseconds.
  * @retval None
  */
__weak void HAL_Delay(uint32_t Delay)
{
 8001604:	b580      	push	{r7, lr}
 8001606:	b084      	sub	sp, #16
 8001608:	af00      	add	r7, sp, #0
 800160a:	6078      	str	r0, [r7, #4]
  uint32_t tickstart = HAL_GetTick();
 800160c:	f7ff fff0 	bl	80015f0 <HAL_GetTick>
 8001610:	60b8      	str	r0, [r7, #8]
  uint32_t wait = Delay;
 8001612:	687b      	ldr	r3, [r7, #4]
 8001614:	60fb      	str	r3, [r7, #12]

  /* Add a freq to guarantee minimum wait */
  if (wait < HAL_MAX_DELAY)
 8001616:	68fb      	ldr	r3, [r7, #12]
 8001618:	f1b3 3fff 	cmp.w	r3, #4294967295
 800161c:	d005      	beq.n	800162a <HAL_Delay+0x26>
  {
    wait += (uint32_t)(uwTickFreq);
 800161e:	4b0a      	ldr	r3, [pc, #40]	; (8001648 <HAL_Delay+0x44>)
 8001620:	781b      	ldrb	r3, [r3, #0]
 8001622:	461a      	mov	r2, r3
 8001624:	68fb      	ldr	r3, [r7, #12]
 8001626:	4413      	add	r3, r2
 8001628:	60fb      	str	r3, [r7, #12]
  }

  while ((HAL_GetTick() - tickstart) < wait)
 800162a:	bf00      	nop
 800162c:	f7ff ffe0 	bl	80015f0 <HAL_GetTick>
 8001630:	4602      	mov	r2, r0
 8001632:	68bb      	ldr	r3, [r7, #8]
 8001634:	1ad3      	subs	r3, r2, r3
 8001636:	68fa      	ldr	r2, [r7, #12]
 8001638:	429a      	cmp	r2, r3
 800163a:	d8f7      	bhi.n	800162c <HAL_Delay+0x28>
  {
  }
}
 800163c:	bf00      	nop
 800163e:	bf00      	nop
 8001640:	3710      	adds	r7, #16
 8001642:	46bd      	mov	sp, r7
 8001644:	bd80      	pop	{r7, pc}
 8001646:	bf00      	nop
 8001648:	20000008 	.word	0x20000008

0800164c <__NVIC_SetPriorityGrouping>:
           In case of a conflict between priority grouping and available
           priority bits (__NVIC_PRIO_BITS), the smallest possible priority group is set.
  \param [in]      PriorityGroup  Priority grouping field.
 */
__STATIC_INLINE void __NVIC_SetPriorityGrouping(uint32_t PriorityGroup)
{
 800164c:	b480      	push	{r7}
 800164e:	b085      	sub	sp, #20
 8001650:	af00      	add	r7, sp, #0
 8001652:	6078      	str	r0, [r7, #4]
  uint32_t reg_value;
  uint32_t PriorityGroupTmp = (PriorityGroup & (uint32_t)0x07UL);             /* only values 0..7 are used          */
 8001654:	687b      	ldr	r3, [r7, #4]
 8001656:	f003 0307 	and.w	r3, r3, #7
 800165a:	60fb      	str	r3, [r7, #12]

  reg_value  =  SCB->AIRCR;                                                   /* read old register configuration    */
 800165c:	4b0c      	ldr	r3, [pc, #48]	; (8001690 <__NVIC_SetPriorityGrouping+0x44>)
 800165e:	68db      	ldr	r3, [r3, #12]
 8001660:	60bb      	str	r3, [r7, #8]
  reg_value &= ~((uint32_t)(SCB_AIRCR_VECTKEY_Msk | SCB_AIRCR_PRIGROUP_Msk)); /* clear bits to change               */
 8001662:	68ba      	ldr	r2, [r7, #8]
 8001664:	f64f 03ff 	movw	r3, #63743	; 0xf8ff
 8001668:	4013      	ands	r3, r2
 800166a:	60bb      	str	r3, [r7, #8]
  reg_value  =  (reg_value                                   |
                ((uint32_t)0x5FAUL << SCB_AIRCR_VECTKEY_Pos) |
                (PriorityGroupTmp << SCB_AIRCR_PRIGROUP_Pos) );               /* Insert write key and priority group */
 800166c:	68fb      	ldr	r3, [r7, #12]
 800166e:	021a      	lsls	r2, r3, #8
                ((uint32_t)0x5FAUL << SCB_AIRCR_VECTKEY_Pos) |
 8001670:	68bb      	ldr	r3, [r7, #8]
 8001672:	4313      	orrs	r3, r2
  reg_value  =  (reg_value                                   |
 8001674:	f043 63bf 	orr.w	r3, r3, #100139008	; 0x5f80000
 8001678:	f443 3300 	orr.w	r3, r3, #131072	; 0x20000
 800167c:	60bb      	str	r3, [r7, #8]
  SCB->AIRCR =  reg_value;
 800167e:	4a04      	ldr	r2, [pc, #16]	; (8001690 <__NVIC_SetPriorityGrouping+0x44>)
 8001680:	68bb      	ldr	r3, [r7, #8]
 8001682:	60d3      	str	r3, [r2, #12]
}
 8001684:	bf00      	nop
 8001686:	3714      	adds	r7, #20
 8001688:	46bd      	mov	sp, r7
 800168a:	bc80      	pop	{r7}
 800168c:	4770      	bx	lr
 800168e:	bf00      	nop
 8001690:	e000ed00 	.word	0xe000ed00

08001694 <__NVIC_GetPriorityGrouping>:
  \brief   Get Priority Grouping
  \details Reads the priority grouping field from the NVIC Interrupt Controller.
  \return                Priority grouping field (SCB->AIRCR [10:8] PRIGROUP field).
 */
__STATIC_INLINE uint32_t __NVIC_GetPriorityGrouping(void)
{
 8001694:	b480      	push	{r7}
 8001696:	af00      	add	r7, sp, #0
  return ((uint32_t)((SCB->AIRCR & SCB_AIRCR_PRIGROUP_Msk) >> SCB_AIRCR_PRIGROUP_Pos));
 8001698:	4b04      	ldr	r3, [pc, #16]	; (80016ac <__NVIC_GetPriorityGrouping+0x18>)
 800169a:	68db      	ldr	r3, [r3, #12]
 800169c:	0a1b      	lsrs	r3, r3, #8
 800169e:	f003 0307 	and.w	r3, r3, #7
}
 80016a2:	4618      	mov	r0, r3
 80016a4:	46bd      	mov	sp, r7
 80016a6:	bc80      	pop	{r7}
 80016a8:	4770      	bx	lr
 80016aa:	bf00      	nop
 80016ac:	e000ed00 	.word	0xe000ed00

080016b0 <__NVIC_SetPriority>:
  \param [in]      IRQn  Interrupt number.
  \param [in]  priority  Priority to set.
  \note    The priority cannot be set for every processor exception.
 */
__STATIC_INLINE void __NVIC_SetPriority(IRQn_Type IRQn, uint32_t priority)
{
 80016b0:	b480      	push	{r7}
 80016b2:	b083      	sub	sp, #12
 80016b4:	af00      	add	r7, sp, #0
 80016b6:	4603      	mov	r3, r0
 80016b8:	6039      	str	r1, [r7, #0]
 80016ba:	71fb      	strb	r3, [r7, #7]
  if ((int32_t)(IRQn) >= 0)
 80016bc:	f997 3007 	ldrsb.w	r3, [r7, #7]
 80016c0:	2b00      	cmp	r3, #0
 80016c2:	db0a      	blt.n	80016da <__NVIC_SetPriority+0x2a>
  {
    NVIC->IP[((uint32_t)IRQn)]               = (uint8_t)((priority << (8U - __NVIC_PRIO_BITS)) & (uint32_t)0xFFUL);
 80016c4:	683b      	ldr	r3, [r7, #0]
 80016c6:	b2da      	uxtb	r2, r3
 80016c8:	490c      	ldr	r1, [pc, #48]	; (80016fc <__NVIC_SetPriority+0x4c>)
 80016ca:	f997 3007 	ldrsb.w	r3, [r7, #7]
 80016ce:	0112      	lsls	r2, r2, #4
 80016d0:	b2d2      	uxtb	r2, r2
 80016d2:	440b      	add	r3, r1
 80016d4:	f883 2300 	strb.w	r2, [r3, #768]	; 0x300
  }
  else
  {
    SCB->SHP[(((uint32_t)IRQn) & 0xFUL)-4UL] = (uint8_t)((priority << (8U - __NVIC_PRIO_BITS)) & (uint32_t)0xFFUL);
  }
}
 80016d8:	e00a      	b.n	80016f0 <__NVIC_SetPriority+0x40>
    SCB->SHP[(((uint32_t)IRQn) & 0xFUL)-4UL] = (uint8_t)((priority << (8U - __NVIC_PRIO_BITS)) & (uint32_t)0xFFUL);
 80016da:	683b      	ldr	r3, [r7, #0]
 80016dc:	b2da      	uxtb	r2, r3
 80016de:	4908      	ldr	r1, [pc, #32]	; (8001700 <__NVIC_SetPriority+0x50>)
 80016e0:	79fb      	ldrb	r3, [r7, #7]
 80016e2:	f003 030f 	and.w	r3, r3, #15
 80016e6:	3b04      	subs	r3, #4
 80016e8:	0112      	lsls	r2, r2, #4
 80016ea:	b2d2      	uxtb	r2, r2
 80016ec:	440b      	add	r3, r1
 80016ee:	761a      	strb	r2, [r3, #24]
}
 80016f0:	bf00      	nop
 80016f2:	370c      	adds	r7, #12
 80016f4:	46bd      	mov	sp, r7
 80016f6:	bc80      	pop	{r7}
 80016f8:	4770      	bx	lr
 80016fa:	bf00      	nop
 80016fc:	e000e100 	.word	0xe000e100
 8001700:	e000ed00 	.word	0xe000ed00

08001704 <NVIC_EncodePriority>:
  \param [in]   PreemptPriority  Preemptive priority value (starting from 0).
  \param [in]       SubPriority  Subpriority value (starting from 0).
  \return                        Encoded priority. Value can be used in the function \ref NVIC_SetPriority().
 */
__STATIC_INLINE uint32_t NVIC_EncodePriority (uint32_t PriorityGroup, uint32_t PreemptPriority, uint32_t SubPriority)
{
 8001704:	b480      	push	{r7}
 8001706:	b089      	sub	sp, #36	; 0x24
 8001708:	af00      	add	r7, sp, #0
 800170a:	60f8      	str	r0, [r7, #12]
 800170c:	60b9      	str	r1, [r7, #8]
 800170e:	607a      	str	r2, [r7, #4]
  uint32_t PriorityGroupTmp = (PriorityGroup & (uint32_t)0x07UL);   /* only values 0..7 are used          */
 8001710:	68fb      	ldr	r3, [r7, #12]
 8001712:	f003 0307 	and.w	r3, r3, #7
 8001716:	61fb      	str	r3, [r7, #28]
  uint32_t PreemptPriorityBits;
  uint32_t SubPriorityBits;

  PreemptPriorityBits = ((7UL - PriorityGroupTmp) > (uint32_t)(__NVIC_PRIO_BITS)) ? (uint32_t)(__NVIC_PRIO_BITS) : (uint32_t)(7UL - PriorityGroupTmp);
 8001718:	69fb      	ldr	r3, [r7, #28]
 800171a:	f1c3 0307 	rsb	r3, r3, #7
 800171e:	2b04      	cmp	r3, #4
 8001720:	bf28      	it	cs
 8001722:	2304      	movcs	r3, #4
 8001724:	61bb      	str	r3, [r7, #24]
  SubPriorityBits     = ((PriorityGroupTmp + (uint32_t)(__NVIC_PRIO_BITS)) < (uint32_t)7UL) ? (uint32_t)0UL : (uint32_t)((PriorityGroupTmp - 7UL) + (uint32_t)(__NVIC_PRIO_BITS));
 8001726:	69fb      	ldr	r3, [r7, #28]
 8001728:	3304      	adds	r3, #4
 800172a:	2b06      	cmp	r3, #6
 800172c:	d902      	bls.n	8001734 <NVIC_EncodePriority+0x30>
 800172e:	69fb      	ldr	r3, [r7, #28]
 8001730:	3b03      	subs	r3, #3
 8001732:	e000      	b.n	8001736 <NVIC_EncodePriority+0x32>
 8001734:	2300      	movs	r3, #0
 8001736:	617b      	str	r3, [r7, #20]

  return (
           ((PreemptPriority & (uint32_t)((1UL << (PreemptPriorityBits)) - 1UL)) << SubPriorityBits) |
 8001738:	f04f 32ff 	mov.w	r2, #4294967295
 800173c:	69bb      	ldr	r3, [r7, #24]
 800173e:	fa02 f303 	lsl.w	r3, r2, r3
 8001742:	43da      	mvns	r2, r3
 8001744:	68bb      	ldr	r3, [r7, #8]
 8001746:	401a      	ands	r2, r3
 8001748:	697b      	ldr	r3, [r7, #20]
 800174a:	409a      	lsls	r2, r3
           ((SubPriority     & (uint32_t)((1UL << (SubPriorityBits    )) - 1UL)))
 800174c:	f04f 31ff 	mov.w	r1, #4294967295
 8001750:	697b      	ldr	r3, [r7, #20]
 8001752:	fa01 f303 	lsl.w	r3, r1, r3
 8001756:	43d9      	mvns	r1, r3
 8001758:	687b      	ldr	r3, [r7, #4]
 800175a:	400b      	ands	r3, r1
           ((PreemptPriority & (uint32_t)((1UL << (PreemptPriorityBits)) - 1UL)) << SubPriorityBits) |
 800175c:	4313      	orrs	r3, r2
         );
}
 800175e:	4618      	mov	r0, r3
 8001760:	3724      	adds	r7, #36	; 0x24
 8001762:	46bd      	mov	sp, r7
 8001764:	bc80      	pop	{r7}
 8001766:	4770      	bx	lr

08001768 <SysTick_Config>:
  \note    When the variable <b>__Vendor_SysTickConfig</b> is set to 1, then the
           function <b>SysTick_Config</b> is not included. In this case, the file <b><i>device</i>.h</b>
           must contain a vendor-specific implementation of this function.
 */
__STATIC_INLINE uint32_t SysTick_Config(uint32_t ticks)
{
 8001768:	b580      	push	{r7, lr}
 800176a:	b082      	sub	sp, #8
 800176c:	af00      	add	r7, sp, #0
 800176e:	6078      	str	r0, [r7, #4]
  if ((ticks - 1UL) > SysTick_LOAD_RELOAD_Msk)
 8001770:	687b      	ldr	r3, [r7, #4]
 8001772:	3b01      	subs	r3, #1
 8001774:	f1b3 7f80 	cmp.w	r3, #16777216	; 0x1000000
 8001778:	d301      	bcc.n	800177e <SysTick_Config+0x16>
  {
    return (1UL);                                                   /* Reload value impossible */
 800177a:	2301      	movs	r3, #1
 800177c:	e00f      	b.n	800179e <SysTick_Config+0x36>
  }

  SysTick->LOAD  = (uint32_t)(ticks - 1UL);                         /* set reload register */
 800177e:	4a0a      	ldr	r2, [pc, #40]	; (80017a8 <SysTick_Config+0x40>)
 8001780:	687b      	ldr	r3, [r7, #4]
 8001782:	3b01      	subs	r3, #1
 8001784:	6053      	str	r3, [r2, #4]
  NVIC_SetPriority (SysTick_IRQn, (1UL << __NVIC_PRIO_BITS) - 1UL); /* set Priority for Systick Interrupt */
 8001786:	210f      	movs	r1, #15
 8001788:	f04f 30ff 	mov.w	r0, #4294967295
 800178c:	f7ff ff90 	bl	80016b0 <__NVIC_SetPriority>
  SysTick->VAL   = 0UL;                                             /* Load the SysTick Counter Value */
 8001790:	4b05      	ldr	r3, [pc, #20]	; (80017a8 <SysTick_Config+0x40>)
 8001792:	2200      	movs	r2, #0
 8001794:	609a      	str	r2, [r3, #8]
  SysTick->CTRL  = SysTick_CTRL_CLKSOURCE_Msk |
 8001796:	4b04      	ldr	r3, [pc, #16]	; (80017a8 <SysTick_Config+0x40>)
 8001798:	2207      	movs	r2, #7
 800179a:	601a      	str	r2, [r3, #0]
                   SysTick_CTRL_TICKINT_Msk   |
                   SysTick_CTRL_ENABLE_Msk;                         /* Enable SysTick IRQ and SysTick Timer */
  return (0UL);                                                     /* Function successful */
 800179c:	2300      	movs	r3, #0
}
 800179e:	4618      	mov	r0, r3
 80017a0:	3708      	adds	r7, #8
 80017a2:	46bd      	mov	sp, r7
 80017a4:	bd80      	pop	{r7, pc}
 80017a6:	bf00      	nop
 80017a8:	e000e010 	.word	0xe000e010

080017ac <HAL_NVIC_SetPriorityGrouping>:
  * @note   When the NVIC_PriorityGroup_0 is selected, IRQ preemption is no more possible. 
  *         The pending IRQ priority will be managed only by the subpriority. 
  * @retval None
  */
void HAL_NVIC_SetPriorityGrouping(uint32_t PriorityGroup)
{
 80017ac:	b580      	push	{r7, lr}
 80017ae:	b082      	sub	sp, #8
 80017b0:	af00      	add	r7, sp, #0
 80017b2:	6078      	str	r0, [r7, #4]
  /* Check the parameters */
  assert_param(IS_NVIC_PRIORITY_GROUP(PriorityGroup));
  
  /* Set the PRIGROUP[10:8] bits according to the PriorityGroup parameter value */
  NVIC_SetPriorityGrouping(PriorityGroup);
 80017b4:	6878      	ldr	r0, [r7, #4]
 80017b6:	f7ff ff49 	bl	800164c <__NVIC_SetPriorityGrouping>
}
 80017ba:	bf00      	nop
 80017bc:	3708      	adds	r7, #8
 80017be:	46bd      	mov	sp, r7
 80017c0:	bd80      	pop	{r7, pc}

080017c2 <HAL_NVIC_SetPriority>:
  *         This parameter can be a value between 0 and 15
  *         A lower priority value indicates a higher priority.          
  * @retval None
  */
void HAL_NVIC_SetPriority(IRQn_Type IRQn, uint32_t PreemptPriority, uint32_t SubPriority)
{ 
 80017c2:	b580      	push	{r7, lr}
 80017c4:	b086      	sub	sp, #24
 80017c6:	af00      	add	r7, sp, #0
 80017c8:	4603      	mov	r3, r0
 80017ca:	60b9      	str	r1, [r7, #8]
 80017cc:	607a      	str	r2, [r7, #4]
 80017ce:	73fb      	strb	r3, [r7, #15]
  uint32_t prioritygroup = 0x00U;
 80017d0:	2300      	movs	r3, #0
 80017d2:	617b      	str	r3, [r7, #20]
  
  /* Check the parameters */
  assert_param(IS_NVIC_SUB_PRIORITY(SubPriority));
  assert_param(IS_NVIC_PREEMPTION_PRIORITY(PreemptPriority));
  
  prioritygroup = NVIC_GetPriorityGrouping();
 80017d4:	f7ff ff5e 	bl	8001694 <__NVIC_GetPriorityGrouping>
 80017d8:	6178      	str	r0, [r7, #20]
  
  NVIC_SetPriority(IRQn, NVIC_EncodePriority(prioritygroup, PreemptPriority, SubPriority));
 80017da:	687a      	ldr	r2, [r7, #4]
 80017dc:	68b9      	ldr	r1, [r7, #8]
 80017de:	6978      	ldr	r0, [r7, #20]
 80017e0:	f7ff ff90 	bl	8001704 <NVIC_EncodePriority>
 80017e4:	4602      	mov	r2, r0
 80017e6:	f997 300f 	ldrsb.w	r3, [r7, #15]
 80017ea:	4611      	mov	r1, r2
 80017ec:	4618      	mov	r0, r3
 80017ee:	f7ff ff5f 	bl	80016b0 <__NVIC_SetPriority>
}
 80017f2:	bf00      	nop
 80017f4:	3718      	adds	r7, #24
 80017f6:	46bd      	mov	sp, r7
 80017f8:	bd80      	pop	{r7, pc}

080017fa <HAL_SYSTICK_Config>:
  * @param  TicksNumb: Specifies the ticks Number of ticks between two interrupts.
  * @retval status:  - 0  Function succeeded.
  *                  - 1  Function failed.
  */
uint32_t HAL_SYSTICK_Config(uint32_t TicksNumb)
{
 80017fa:	b580      	push	{r7, lr}
 80017fc:	b082      	sub	sp, #8
 80017fe:	af00      	add	r7, sp, #0
 8001800:	6078      	str	r0, [r7, #4]
   return SysTick_Config(TicksNumb);
 8001802:	6878      	ldr	r0, [r7, #4]
 8001804:	f7ff ffb0 	bl	8001768 <SysTick_Config>
 8001808:	4603      	mov	r3, r0
}
 800180a:	4618      	mov	r0, r3
 800180c:	3708      	adds	r7, #8
 800180e:	46bd      	mov	sp, r7
 8001810:	bd80      	pop	{r7, pc}
	...

08001814 <HAL_GPIO_Init>:
  * @param  GPIO_Init: pointer to a GPIO_InitTypeDef structure that contains
  *         the configuration information for the specified GPIO peripheral.
  * @retval None
  */
void HAL_GPIO_Init(GPIO_TypeDef  *GPIOx, GPIO_InitTypeDef *GPIO_Init)
{
 8001814:	b480      	push	{r7}
 8001816:	b08b      	sub	sp, #44	; 0x2c
 8001818:	af00      	add	r7, sp, #0
 800181a:	6078      	str	r0, [r7, #4]
 800181c:	6039      	str	r1, [r7, #0]
  uint32_t position = 0x00u;
 800181e:	2300      	movs	r3, #0
 8001820:	627b      	str	r3, [r7, #36]	; 0x24
  uint32_t ioposition;
  uint32_t iocurrent;
  uint32_t temp;
  uint32_t config = 0x00u;
 8001822:	2300      	movs	r3, #0
 8001824:	623b      	str	r3, [r7, #32]
  assert_param(IS_GPIO_ALL_INSTANCE(GPIOx));
  assert_param(IS_GPIO_PIN(GPIO_Init->Pin));
  assert_param(IS_GPIO_MODE(GPIO_Init->Mode));

  /* Configure the port pins */
  while (((GPIO_Init->Pin) >> position) != 0x00u)
 8001826:	e148      	b.n	8001aba <HAL_GPIO_Init+0x2a6>
  {
    /* Get the IO position */
    ioposition = (0x01uL << position);
 8001828:	2201      	movs	r2, #1
 800182a:	6a7b      	ldr	r3, [r7, #36]	; 0x24
 800182c:	fa02 f303 	lsl.w	r3, r2, r3
 8001830:	61fb      	str	r3, [r7, #28]

    /* Get the current IO position */
    iocurrent = (uint32_t)(GPIO_Init->Pin) & ioposition;
 8001832:	683b      	ldr	r3, [r7, #0]
 8001834:	681b      	ldr	r3, [r3, #0]
 8001836:	69fa      	ldr	r2, [r7, #28]
 8001838:	4013      	ands	r3, r2
 800183a:	61bb      	str	r3, [r7, #24]

    if (iocurrent == ioposition)
 800183c:	69ba      	ldr	r2, [r7, #24]
 800183e:	69fb      	ldr	r3, [r7, #28]
 8001840:	429a      	cmp	r2, r3
 8001842:	f040 8137 	bne.w	8001ab4 <HAL_GPIO_Init+0x2a0>
    {
      /* Check the Alternate function parameters */
      assert_param(IS_GPIO_AF_INSTANCE(GPIOx));

      /* Based on the required mode, filling config variable with MODEy[1:0] and CNFy[3:2] corresponding bits */
      switch (GPIO_Init->Mode)
 8001846:	683b      	ldr	r3, [r7, #0]
 8001848:	685b      	ldr	r3, [r3, #4]
 800184a:	4aa3      	ldr	r2, [pc, #652]	; (8001ad8 <HAL_GPIO_Init+0x2c4>)
 800184c:	4293      	cmp	r3, r2
 800184e:	d05e      	beq.n	800190e <HAL_GPIO_Init+0xfa>
 8001850:	4aa1      	ldr	r2, [pc, #644]	; (8001ad8 <HAL_GPIO_Init+0x2c4>)
 8001852:	4293      	cmp	r3, r2
 8001854:	d875      	bhi.n	8001942 <HAL_GPIO_Init+0x12e>
 8001856:	4aa1      	ldr	r2, [pc, #644]	; (8001adc <HAL_GPIO_Init+0x2c8>)
 8001858:	4293      	cmp	r3, r2
 800185a:	d058      	beq.n	800190e <HAL_GPIO_Init+0xfa>
 800185c:	4a9f      	ldr	r2, [pc, #636]	; (8001adc <HAL_GPIO_Init+0x2c8>)
 800185e:	4293      	cmp	r3, r2
 8001860:	d86f      	bhi.n	8001942 <HAL_GPIO_Init+0x12e>
 8001862:	4a9f      	ldr	r2, [pc, #636]	; (8001ae0 <HAL_GPIO_Init+0x2cc>)
 8001864:	4293      	cmp	r3, r2
 8001866:	d052      	beq.n	800190e <HAL_GPIO_Init+0xfa>
 8001868:	4a9d      	ldr	r2, [pc, #628]	; (8001ae0 <HAL_GPIO_Init+0x2cc>)
 800186a:	4293      	cmp	r3, r2
 800186c:	d869      	bhi.n	8001942 <HAL_GPIO_Init+0x12e>
 800186e:	4a9d      	ldr	r2, [pc, #628]	; (8001ae4 <HAL_GPIO_Init+0x2d0>)
 8001870:	4293      	cmp	r3, r2
 8001872:	d04c      	beq.n	800190e <HAL_GPIO_Init+0xfa>
 8001874:	4a9b      	ldr	r2, [pc, #620]	; (8001ae4 <HAL_GPIO_Init+0x2d0>)
 8001876:	4293      	cmp	r3, r2
 8001878:	d863      	bhi.n	8001942 <HAL_GPIO_Init+0x12e>
 800187a:	4a9b      	ldr	r2, [pc, #620]	; (8001ae8 <HAL_GPIO_Init+0x2d4>)
 800187c:	4293      	cmp	r3, r2
 800187e:	d046      	beq.n	800190e <HAL_GPIO_Init+0xfa>
 8001880:	4a99      	ldr	r2, [pc, #612]	; (8001ae8 <HAL_GPIO_Init+0x2d4>)
 8001882:	4293      	cmp	r3, r2
 8001884:	d85d      	bhi.n	8001942 <HAL_GPIO_Init+0x12e>
 8001886:	2b12      	cmp	r3, #18
 8001888:	d82a      	bhi.n	80018e0 <HAL_GPIO_Init+0xcc>
 800188a:	2b12      	cmp	r3, #18
 800188c:	d859      	bhi.n	8001942 <HAL_GPIO_Init+0x12e>
 800188e:	a201      	add	r2, pc, #4	; (adr r2, 8001894 <HAL_GPIO_Init+0x80>)
 8001890:	f852 f023 	ldr.w	pc, [r2, r3, lsl #2]
 8001894:	0800190f 	.word	0x0800190f
 8001898:	080018e9 	.word	0x080018e9
 800189c:	080018fb 	.word	0x080018fb
 80018a0:	0800193d 	.word	0x0800193d
 80018a4:	08001943 	.word	0x08001943
 80018a8:	08001943 	.word	0x08001943
 80018ac:	08001943 	.word	0x08001943
 80018b0:	08001943 	.word	0x08001943
 80018b4:	08001943 	.word	0x08001943
 80018b8:	08001943 	.word	0x08001943
 80018bc:	08001943 	.word	0x08001943
 80018c0:	08001943 	.word	0x08001943
 80018c4:	08001943 	.word	0x08001943
 80018c8:	08001943 	.word	0x08001943
 80018cc:	08001943 	.word	0x08001943
 80018d0:	08001943 	.word	0x08001943
 80018d4:	08001943 	.word	0x08001943
 80018d8:	080018f1 	.word	0x080018f1
 80018dc:	08001905 	.word	0x08001905
 80018e0:	4a82      	ldr	r2, [pc, #520]	; (8001aec <HAL_GPIO_Init+0x2d8>)
 80018e2:	4293      	cmp	r3, r2
 80018e4:	d013      	beq.n	800190e <HAL_GPIO_Init+0xfa>
          config = GPIO_CR_MODE_INPUT + GPIO_CR_CNF_ANALOG;
          break;

        /* Parameters are checked with assert_param */
        default:
          break;
 80018e6:	e02c      	b.n	8001942 <HAL_GPIO_Init+0x12e>
          config = GPIO_Init->Speed + GPIO_CR_CNF_GP_OUTPUT_PP;
 80018e8:	683b      	ldr	r3, [r7, #0]
 80018ea:	68db      	ldr	r3, [r3, #12]
 80018ec:	623b      	str	r3, [r7, #32]
          break;
 80018ee:	e029      	b.n	8001944 <HAL_GPIO_Init+0x130>
          config = GPIO_Init->Speed + GPIO_CR_CNF_GP_OUTPUT_OD;
 80018f0:	683b      	ldr	r3, [r7, #0]
 80018f2:	68db      	ldr	r3, [r3, #12]
 80018f4:	3304      	adds	r3, #4
 80018f6:	623b      	str	r3, [r7, #32]
          break;
 80018f8:	e024      	b.n	8001944 <HAL_GPIO_Init+0x130>
          config = GPIO_Init->Speed + GPIO_CR_CNF_AF_OUTPUT_PP;
 80018fa:	683b      	ldr	r3, [r7, #0]
 80018fc:	68db      	ldr	r3, [r3, #12]
 80018fe:	3308      	adds	r3, #8
 8001900:	623b      	str	r3, [r7, #32]
          break;
 8001902:	e01f      	b.n	8001944 <HAL_GPIO_Init+0x130>
          config = GPIO_Init->Speed + GPIO_CR_CNF_AF_OUTPUT_OD;
 8001904:	683b      	ldr	r3, [r7, #0]
 8001906:	68db      	ldr	r3, [r3, #12]
 8001908:	330c      	adds	r3, #12
 800190a:	623b      	str	r3, [r7, #32]
          break;
 800190c:	e01a      	b.n	8001944 <HAL_GPIO_Init+0x130>
          if (GPIO_Init->Pull == GPIO_NOPULL)
 800190e:	683b      	ldr	r3, [r7, #0]
 8001910:	689b      	ldr	r3, [r3, #8]
 8001912:	2b00      	cmp	r3, #0
 8001914:	d102      	bne.n	800191c <HAL_GPIO_Init+0x108>
            config = GPIO_CR_MODE_INPUT + GPIO_CR_CNF_INPUT_FLOATING;
 8001916:	2304      	movs	r3, #4
 8001918:	623b      	str	r3, [r7, #32]
          break;
 800191a:	e013      	b.n	8001944 <HAL_GPIO_Init+0x130>
          else if (GPIO_Init->Pull == GPIO_PULLUP)
 800191c:	683b      	ldr	r3, [r7, #0]
 800191e:	689b      	ldr	r3, [r3, #8]
 8001920:	2b01      	cmp	r3, #1
 8001922:	d105      	bne.n	8001930 <HAL_GPIO_Init+0x11c>
            config = GPIO_CR_MODE_INPUT + GPIO_CR_CNF_INPUT_PU_PD;
 8001924:	2308      	movs	r3, #8
 8001926:	623b      	str	r3, [r7, #32]
            GPIOx->BSRR = ioposition;
 8001928:	687b      	ldr	r3, [r7, #4]
 800192a:	69fa      	ldr	r2, [r7, #28]
 800192c:	611a      	str	r2, [r3, #16]
          break;
 800192e:	e009      	b.n	8001944 <HAL_GPIO_Init+0x130>
            config = GPIO_CR_MODE_INPUT + GPIO_CR_CNF_INPUT_PU_PD;
 8001930:	2308      	movs	r3, #8
 8001932:	623b      	str	r3, [r7, #32]
            GPIOx->BRR = ioposition;
 8001934:	687b      	ldr	r3, [r7, #4]
 8001936:	69fa      	ldr	r2, [r7, #28]
 8001938:	615a      	str	r2, [r3, #20]
          break;
 800193a:	e003      	b.n	8001944 <HAL_GPIO_Init+0x130>
          config = GPIO_CR_MODE_INPUT + GPIO_CR_CNF_ANALOG;
 800193c:	2300      	movs	r3, #0
 800193e:	623b      	str	r3, [r7, #32]
          break;
 8001940:	e000      	b.n	8001944 <HAL_GPIO_Init+0x130>
          break;
 8001942:	bf00      	nop
      }

      /* Check if the current bit belongs to first half or last half of the pin count number
       in order to address CRH or CRL register*/
      configregister = (iocurrent < GPIO_PIN_8) ? &GPIOx->CRL     : &GPIOx->CRH;
 8001944:	69bb      	ldr	r3, [r7, #24]
 8001946:	2bff      	cmp	r3, #255	; 0xff
 8001948:	d801      	bhi.n	800194e <HAL_GPIO_Init+0x13a>
 800194a:	687b      	ldr	r3, [r7, #4]
 800194c:	e001      	b.n	8001952 <HAL_GPIO_Init+0x13e>
 800194e:	687b      	ldr	r3, [r7, #4]
 8001950:	3304      	adds	r3, #4
 8001952:	617b      	str	r3, [r7, #20]
      registeroffset = (iocurrent < GPIO_PIN_8) ? (position << 2u) : ((position - 8u) << 2u);
 8001954:	69bb      	ldr	r3, [r7, #24]
 8001956:	2bff      	cmp	r3, #255	; 0xff
 8001958:	d802      	bhi.n	8001960 <HAL_GPIO_Init+0x14c>
 800195a:	6a7b      	ldr	r3, [r7, #36]	; 0x24
 800195c:	009b      	lsls	r3, r3, #2
 800195e:	e002      	b.n	8001966 <HAL_GPIO_Init+0x152>
 8001960:	6a7b      	ldr	r3, [r7, #36]	; 0x24
 8001962:	3b08      	subs	r3, #8
 8001964:	009b      	lsls	r3, r3, #2
 8001966:	613b      	str	r3, [r7, #16]

      /* Apply the new configuration of the pin to the register */
      MODIFY_REG((*configregister), ((GPIO_CRL_MODE0 | GPIO_CRL_CNF0) << registeroffset), (config << registeroffset));
 8001968:	697b      	ldr	r3, [r7, #20]
 800196a:	681a      	ldr	r2, [r3, #0]
 800196c:	210f      	movs	r1, #15
 800196e:	693b      	ldr	r3, [r7, #16]
 8001970:	fa01 f303 	lsl.w	r3, r1, r3
 8001974:	43db      	mvns	r3, r3
 8001976:	401a      	ands	r2, r3
 8001978:	6a39      	ldr	r1, [r7, #32]
 800197a:	693b      	ldr	r3, [r7, #16]
 800197c:	fa01 f303 	lsl.w	r3, r1, r3
 8001980:	431a      	orrs	r2, r3
 8001982:	697b      	ldr	r3, [r7, #20]
 8001984:	601a      	str	r2, [r3, #0]

      /*--------------------- EXTI Mode Configuration ------------------------*/
      /* Configure the External Interrupt or event for the current IO */
      if ((GPIO_Init->Mode & EXTI_MODE) == EXTI_MODE)
 8001986:	683b      	ldr	r3, [r7, #0]
 8001988:	685b      	ldr	r3, [r3, #4]
 800198a:	f003 5380 	and.w	r3, r3, #268435456	; 0x10000000
 800198e:	2b00      	cmp	r3, #0
 8001990:	f000 8090 	beq.w	8001ab4 <HAL_GPIO_Init+0x2a0>
      {
        /* Enable AFIO Clock */
        __HAL_RCC_AFIO_CLK_ENABLE();
 8001994:	4b56      	ldr	r3, [pc, #344]	; (8001af0 <HAL_GPIO_Init+0x2dc>)
 8001996:	699b      	ldr	r3, [r3, #24]
 8001998:	4a55      	ldr	r2, [pc, #340]	; (8001af0 <HAL_GPIO_Init+0x2dc>)
 800199a:	f043 0301 	orr.w	r3, r3, #1
 800199e:	6193      	str	r3, [r2, #24]
 80019a0:	4b53      	ldr	r3, [pc, #332]	; (8001af0 <HAL_GPIO_Init+0x2dc>)
 80019a2:	699b      	ldr	r3, [r3, #24]
 80019a4:	f003 0301 	and.w	r3, r3, #1
 80019a8:	60bb      	str	r3, [r7, #8]
 80019aa:	68bb      	ldr	r3, [r7, #8]
        temp = AFIO->EXTICR[position >> 2u];
 80019ac:	4a51      	ldr	r2, [pc, #324]	; (8001af4 <HAL_GPIO_Init+0x2e0>)
 80019ae:	6a7b      	ldr	r3, [r7, #36]	; 0x24
 80019b0:	089b      	lsrs	r3, r3, #2
 80019b2:	3302      	adds	r3, #2
 80019b4:	f852 3023 	ldr.w	r3, [r2, r3, lsl #2]
 80019b8:	60fb      	str	r3, [r7, #12]
        CLEAR_BIT(temp, (0x0Fu) << (4u * (position & 0x03u)));
 80019ba:	6a7b      	ldr	r3, [r7, #36]	; 0x24
 80019bc:	f003 0303 	and.w	r3, r3, #3
 80019c0:	009b      	lsls	r3, r3, #2
 80019c2:	220f      	movs	r2, #15
 80019c4:	fa02 f303 	lsl.w	r3, r2, r3
 80019c8:	43db      	mvns	r3, r3
 80019ca:	68fa      	ldr	r2, [r7, #12]
 80019cc:	4013      	ands	r3, r2
 80019ce:	60fb      	str	r3, [r7, #12]
        SET_BIT(temp, (GPIO_GET_INDEX(GPIOx)) << (4u * (position & 0x03u)));
 80019d0:	687b      	ldr	r3, [r7, #4]
 80019d2:	4a49      	ldr	r2, [pc, #292]	; (8001af8 <HAL_GPIO_Init+0x2e4>)
 80019d4:	4293      	cmp	r3, r2
 80019d6:	d00d      	beq.n	80019f4 <HAL_GPIO_Init+0x1e0>
 80019d8:	687b      	ldr	r3, [r7, #4]
 80019da:	4a48      	ldr	r2, [pc, #288]	; (8001afc <HAL_GPIO_Init+0x2e8>)
 80019dc:	4293      	cmp	r3, r2
 80019de:	d007      	beq.n	80019f0 <HAL_GPIO_Init+0x1dc>
 80019e0:	687b      	ldr	r3, [r7, #4]
 80019e2:	4a47      	ldr	r2, [pc, #284]	; (8001b00 <HAL_GPIO_Init+0x2ec>)
 80019e4:	4293      	cmp	r3, r2
 80019e6:	d101      	bne.n	80019ec <HAL_GPIO_Init+0x1d8>
 80019e8:	2302      	movs	r3, #2
 80019ea:	e004      	b.n	80019f6 <HAL_GPIO_Init+0x1e2>
 80019ec:	2303      	movs	r3, #3
 80019ee:	e002      	b.n	80019f6 <HAL_GPIO_Init+0x1e2>
 80019f0:	2301      	movs	r3, #1
 80019f2:	e000      	b.n	80019f6 <HAL_GPIO_Init+0x1e2>
 80019f4:	2300      	movs	r3, #0
 80019f6:	6a7a      	ldr	r2, [r7, #36]	; 0x24
 80019f8:	f002 0203 	and.w	r2, r2, #3
 80019fc:	0092      	lsls	r2, r2, #2
 80019fe:	4093      	lsls	r3, r2
 8001a00:	68fa      	ldr	r2, [r7, #12]
 8001a02:	4313      	orrs	r3, r2
 8001a04:	60fb      	str	r3, [r7, #12]
        AFIO->EXTICR[position >> 2u] = temp;
 8001a06:	493b      	ldr	r1, [pc, #236]	; (8001af4 <HAL_GPIO_Init+0x2e0>)
 8001a08:	6a7b      	ldr	r3, [r7, #36]	; 0x24
 8001a0a:	089b      	lsrs	r3, r3, #2
 8001a0c:	3302      	adds	r3, #2
 8001a0e:	68fa      	ldr	r2, [r7, #12]
 8001a10:	f841 2023 	str.w	r2, [r1, r3, lsl #2]


        /* Configure the interrupt mask */
        if ((GPIO_Init->Mode & GPIO_MODE_IT) == GPIO_MODE_IT)
 8001a14:	683b      	ldr	r3, [r7, #0]
 8001a16:	685b      	ldr	r3, [r3, #4]
 8001a18:	f403 3380 	and.w	r3, r3, #65536	; 0x10000
 8001a1c:	2b00      	cmp	r3, #0
 8001a1e:	d006      	beq.n	8001a2e <HAL_GPIO_Init+0x21a>
        {
          SET_BIT(EXTI->IMR, iocurrent);
 8001a20:	4b38      	ldr	r3, [pc, #224]	; (8001b04 <HAL_GPIO_Init+0x2f0>)
 8001a22:	681a      	ldr	r2, [r3, #0]
 8001a24:	4937      	ldr	r1, [pc, #220]	; (8001b04 <HAL_GPIO_Init+0x2f0>)
 8001a26:	69bb      	ldr	r3, [r7, #24]
 8001a28:	4313      	orrs	r3, r2
 8001a2a:	600b      	str	r3, [r1, #0]
 8001a2c:	e006      	b.n	8001a3c <HAL_GPIO_Init+0x228>
        }
        else
        {
          CLEAR_BIT(EXTI->IMR, iocurrent);
 8001a2e:	4b35      	ldr	r3, [pc, #212]	; (8001b04 <HAL_GPIO_Init+0x2f0>)
 8001a30:	681a      	ldr	r2, [r3, #0]
 8001a32:	69bb      	ldr	r3, [r7, #24]
 8001a34:	43db      	mvns	r3, r3
 8001a36:	4933      	ldr	r1, [pc, #204]	; (8001b04 <HAL_GPIO_Init+0x2f0>)
 8001a38:	4013      	ands	r3, r2
 8001a3a:	600b      	str	r3, [r1, #0]
        }

        /* Configure the event mask */
        if ((GPIO_Init->Mode & GPIO_MODE_EVT) == GPIO_MODE_EVT)
 8001a3c:	683b      	ldr	r3, [r7, #0]
 8001a3e:	685b      	ldr	r3, [r3, #4]
 8001a40:	f403 3300 	and.w	r3, r3, #131072	; 0x20000
 8001a44:	2b00      	cmp	r3, #0
 8001a46:	d006      	beq.n	8001a56 <HAL_GPIO_Init+0x242>
        {
          SET_BIT(EXTI->EMR, iocurrent);
 8001a48:	4b2e      	ldr	r3, [pc, #184]	; (8001b04 <HAL_GPIO_Init+0x2f0>)
 8001a4a:	685a      	ldr	r2, [r3, #4]
 8001a4c:	492d      	ldr	r1, [pc, #180]	; (8001b04 <HAL_GPIO_Init+0x2f0>)
 8001a4e:	69bb      	ldr	r3, [r7, #24]
 8001a50:	4313      	orrs	r3, r2
 8001a52:	604b      	str	r3, [r1, #4]
 8001a54:	e006      	b.n	8001a64 <HAL_GPIO_Init+0x250>
        }
        else
        {
          CLEAR_BIT(EXTI->EMR, iocurrent);
 8001a56:	4b2b      	ldr	r3, [pc, #172]	; (8001b04 <HAL_GPIO_Init+0x2f0>)
 8001a58:	685a      	ldr	r2, [r3, #4]
 8001a5a:	69bb      	ldr	r3, [r7, #24]
 8001a5c:	43db      	mvns	r3, r3
 8001a5e:	4929      	ldr	r1, [pc, #164]	; (8001b04 <HAL_GPIO_Init+0x2f0>)
 8001a60:	4013      	ands	r3, r2
 8001a62:	604b      	str	r3, [r1, #4]
        }

        /* Enable or disable the rising trigger */
        if ((GPIO_Init->Mode & RISING_EDGE) == RISING_EDGE)
 8001a64:	683b      	ldr	r3, [r7, #0]
 8001a66:	685b      	ldr	r3, [r3, #4]
 8001a68:	f403 1380 	and.w	r3, r3, #1048576	; 0x100000
 8001a6c:	2b00      	cmp	r3, #0
 8001a6e:	d006      	beq.n	8001a7e <HAL_GPIO_Init+0x26a>
        {
          SET_BIT(EXTI->RTSR, iocurrent);
 8001a70:	4b24      	ldr	r3, [pc, #144]	; (8001b04 <HAL_GPIO_Init+0x2f0>)
 8001a72:	689a      	ldr	r2, [r3, #8]
 8001a74:	4923      	ldr	r1, [pc, #140]	; (8001b04 <HAL_GPIO_Init+0x2f0>)
 8001a76:	69bb      	ldr	r3, [r7, #24]
 8001a78:	4313      	orrs	r3, r2
 8001a7a:	608b      	str	r3, [r1, #8]
 8001a7c:	e006      	b.n	8001a8c <HAL_GPIO_Init+0x278>
        }
        else
        {
          CLEAR_BIT(EXTI->RTSR, iocurrent);
 8001a7e:	4b21      	ldr	r3, [pc, #132]	; (8001b04 <HAL_GPIO_Init+0x2f0>)
 8001a80:	689a      	ldr	r2, [r3, #8]
 8001a82:	69bb      	ldr	r3, [r7, #24]
 8001a84:	43db      	mvns	r3, r3
 8001a86:	491f      	ldr	r1, [pc, #124]	; (8001b04 <HAL_GPIO_Init+0x2f0>)
 8001a88:	4013      	ands	r3, r2
 8001a8a:	608b      	str	r3, [r1, #8]
        }

        /* Enable or disable the falling trigger */
        if ((GPIO_Init->Mode & FALLING_EDGE) == FALLING_EDGE)
 8001a8c:	683b      	ldr	r3, [r7, #0]
 8001a8e:	685b      	ldr	r3, [r3, #4]
 8001a90:	f403 1300 	and.w	r3, r3, #2097152	; 0x200000
 8001a94:	2b00      	cmp	r3, #0
 8001a96:	d006      	beq.n	8001aa6 <HAL_GPIO_Init+0x292>
        {
          SET_BIT(EXTI->FTSR, iocurrent);
 8001a98:	4b1a      	ldr	r3, [pc, #104]	; (8001b04 <HAL_GPIO_Init+0x2f0>)
 8001a9a:	68da      	ldr	r2, [r3, #12]
 8001a9c:	4919      	ldr	r1, [pc, #100]	; (8001b04 <HAL_GPIO_Init+0x2f0>)
 8001a9e:	69bb      	ldr	r3, [r7, #24]
 8001aa0:	4313      	orrs	r3, r2
 8001aa2:	60cb      	str	r3, [r1, #12]
 8001aa4:	e006      	b.n	8001ab4 <HAL_GPIO_Init+0x2a0>
        }
        else
        {
          CLEAR_BIT(EXTI->FTSR, iocurrent);
 8001aa6:	4b17      	ldr	r3, [pc, #92]	; (8001b04 <HAL_GPIO_Init+0x2f0>)
 8001aa8:	68da      	ldr	r2, [r3, #12]
 8001aaa:	69bb      	ldr	r3, [r7, #24]
 8001aac:	43db      	mvns	r3, r3
 8001aae:	4915      	ldr	r1, [pc, #84]	; (8001b04 <HAL_GPIO_Init+0x2f0>)
 8001ab0:	4013      	ands	r3, r2
 8001ab2:	60cb      	str	r3, [r1, #12]
        }
      }
    }

	position++;
 8001ab4:	6a7b      	ldr	r3, [r7, #36]	; 0x24
 8001ab6:	3301      	adds	r3, #1
 8001ab8:	627b      	str	r3, [r7, #36]	; 0x24
  while (((GPIO_Init->Pin) >> position) != 0x00u)
 8001aba:	683b      	ldr	r3, [r7, #0]
 8001abc:	681a      	ldr	r2, [r3, #0]
 8001abe:	6a7b      	ldr	r3, [r7, #36]	; 0x24
 8001ac0:	fa22 f303 	lsr.w	r3, r2, r3
 8001ac4:	2b00      	cmp	r3, #0
 8001ac6:	f47f aeaf 	bne.w	8001828 <HAL_GPIO_Init+0x14>
  }
}
 8001aca:	bf00      	nop
 8001acc:	bf00      	nop
 8001ace:	372c      	adds	r7, #44	; 0x2c
 8001ad0:	46bd      	mov	sp, r7
 8001ad2:	bc80      	pop	{r7}
 8001ad4:	4770      	bx	lr
 8001ad6:	bf00      	nop
 8001ad8:	10320000 	.word	0x10320000
 8001adc:	10310000 	.word	0x10310000
 8001ae0:	10220000 	.word	0x10220000
 8001ae4:	10210000 	.word	0x10210000
 8001ae8:	10120000 	.word	0x10120000
 8001aec:	10110000 	.word	0x10110000
 8001af0:	40021000 	.word	0x40021000
 8001af4:	40010000 	.word	0x40010000
 8001af8:	40010800 	.word	0x40010800
 8001afc:	40010c00 	.word	0x40010c00
 8001b00:	40011000 	.word	0x40011000
 8001b04:	40010400 	.word	0x40010400

08001b08 <HAL_GPIO_WritePin>:
  *            @arg GPIO_PIN_RESET: to clear the port pin
  *            @arg GPIO_PIN_SET: to set the port pin
  * @retval None
  */
void HAL_GPIO_WritePin(GPIO_TypeDef *GPIOx, uint16_t GPIO_Pin, GPIO_PinState PinState)
{
 8001b08:	b480      	push	{r7}
 8001b0a:	b083      	sub	sp, #12
 8001b0c:	af00      	add	r7, sp, #0
 8001b0e:	6078      	str	r0, [r7, #4]
 8001b10:	460b      	mov	r3, r1
 8001b12:	807b      	strh	r3, [r7, #2]
 8001b14:	4613      	mov	r3, r2
 8001b16:	707b      	strb	r3, [r7, #1]
  /* Check the parameters */
  assert_param(IS_GPIO_PIN(GPIO_Pin));
  assert_param(IS_GPIO_PIN_ACTION(PinState));

  if (PinState != GPIO_PIN_RESET)
 8001b18:	787b      	ldrb	r3, [r7, #1]
 8001b1a:	2b00      	cmp	r3, #0
 8001b1c:	d003      	beq.n	8001b26 <HAL_GPIO_WritePin+0x1e>
  {
    GPIOx->BSRR = GPIO_Pin;
 8001b1e:	887a      	ldrh	r2, [r7, #2]
 8001b20:	687b      	ldr	r3, [r7, #4]
 8001b22:	611a      	str	r2, [r3, #16]
  }
  else
  {
    GPIOx->BSRR = (uint32_t)GPIO_Pin << 16u;
  }
}
 8001b24:	e003      	b.n	8001b2e <HAL_GPIO_WritePin+0x26>
    GPIOx->BSRR = (uint32_t)GPIO_Pin << 16u;
 8001b26:	887b      	ldrh	r3, [r7, #2]
 8001b28:	041a      	lsls	r2, r3, #16
 8001b2a:	687b      	ldr	r3, [r7, #4]
 8001b2c:	611a      	str	r2, [r3, #16]
}
 8001b2e:	bf00      	nop
 8001b30:	370c      	adds	r7, #12
 8001b32:	46bd      	mov	sp, r7
 8001b34:	bc80      	pop	{r7}
 8001b36:	4770      	bx	lr

08001b38 <HAL_RCC_OscConfig>:
  *         supported by this macro. User should request a transition to HSE Off
  *         first and then HSE On or HSE Bypass.
  * @retval HAL status
  */
HAL_StatusTypeDef HAL_RCC_OscConfig(RCC_OscInitTypeDef  *RCC_OscInitStruct)
{
 8001b38:	b580      	push	{r7, lr}
 8001b3a:	b086      	sub	sp, #24
 8001b3c:	af00      	add	r7, sp, #0
 8001b3e:	6078      	str	r0, [r7, #4]
  uint32_t tickstart;
  uint32_t pll_config;

  /* Check Null pointer */
  if (RCC_OscInitStruct == NULL)
 8001b40:	687b      	ldr	r3, [r7, #4]
 8001b42:	2b00      	cmp	r3, #0
 8001b44:	d101      	bne.n	8001b4a <HAL_RCC_OscConfig+0x12>
  {
    return HAL_ERROR;
 8001b46:	2301      	movs	r3, #1
 8001b48:	e26c      	b.n	8002024 <HAL_RCC_OscConfig+0x4ec>

  /* Check the parameters */
  assert_param(IS_RCC_OSCILLATORTYPE(RCC_OscInitStruct->OscillatorType));

  /*------------------------------- HSE Configuration ------------------------*/
  if (((RCC_OscInitStruct->OscillatorType) & RCC_OSCILLATORTYPE_HSE) == RCC_OSCILLATORTYPE_HSE)
 8001b4a:	687b      	ldr	r3, [r7, #4]
 8001b4c:	681b      	ldr	r3, [r3, #0]
 8001b4e:	f003 0301 	and.w	r3, r3, #1
 8001b52:	2b00      	cmp	r3, #0
 8001b54:	f000 8087 	beq.w	8001c66 <HAL_RCC_OscConfig+0x12e>
  {
    /* Check the parameters */
    assert_param(IS_RCC_HSE(RCC_OscInitStruct->HSEState));

    /* When the HSE is used as system clock or clock source for PLL in these cases it is not allowed to be disabled */
    if ((__HAL_RCC_GET_SYSCLK_SOURCE() == RCC_SYSCLKSOURCE_STATUS_HSE)
 8001b58:	4b92      	ldr	r3, [pc, #584]	; (8001da4 <HAL_RCC_OscConfig+0x26c>)
 8001b5a:	685b      	ldr	r3, [r3, #4]
 8001b5c:	f003 030c 	and.w	r3, r3, #12
 8001b60:	2b04      	cmp	r3, #4
 8001b62:	d00c      	beq.n	8001b7e <HAL_RCC_OscConfig+0x46>
        || ((__HAL_RCC_GET_SYSCLK_SOURCE() == RCC_SYSCLKSOURCE_STATUS_PLLCLK) && (__HAL_RCC_GET_PLL_OSCSOURCE() == RCC_PLLSOURCE_HSE)))
 8001b64:	4b8f      	ldr	r3, [pc, #572]	; (8001da4 <HAL_RCC_OscConfig+0x26c>)
 8001b66:	685b      	ldr	r3, [r3, #4]
 8001b68:	f003 030c 	and.w	r3, r3, #12
 8001b6c:	2b08      	cmp	r3, #8
 8001b6e:	d112      	bne.n	8001b96 <HAL_RCC_OscConfig+0x5e>
 8001b70:	4b8c      	ldr	r3, [pc, #560]	; (8001da4 <HAL_RCC_OscConfig+0x26c>)
 8001b72:	685b      	ldr	r3, [r3, #4]
 8001b74:	f403 3380 	and.w	r3, r3, #65536	; 0x10000
 8001b78:	f5b3 3f80 	cmp.w	r3, #65536	; 0x10000
 8001b7c:	d10b      	bne.n	8001b96 <HAL_RCC_OscConfig+0x5e>
    {
      if ((__HAL_RCC_GET_FLAG(RCC_FLAG_HSERDY) != RESET) && (RCC_OscInitStruct->HSEState == RCC_HSE_OFF))
 8001b7e:	4b89      	ldr	r3, [pc, #548]	; (8001da4 <HAL_RCC_OscConfig+0x26c>)
 8001b80:	681b      	ldr	r3, [r3, #0]
 8001b82:	f403 3300 	and.w	r3, r3, #131072	; 0x20000
 8001b86:	2b00      	cmp	r3, #0
 8001b88:	d06c      	beq.n	8001c64 <HAL_RCC_OscConfig+0x12c>
 8001b8a:	687b      	ldr	r3, [r7, #4]
 8001b8c:	685b      	ldr	r3, [r3, #4]
 8001b8e:	2b00      	cmp	r3, #0
 8001b90:	d168      	bne.n	8001c64 <HAL_RCC_OscConfig+0x12c>
      {
        return HAL_ERROR;
 8001b92:	2301      	movs	r3, #1
 8001b94:	e246      	b.n	8002024 <HAL_RCC_OscConfig+0x4ec>
      }
    }
    else
    {
      /* Set the new HSE configuration ---------------------------------------*/
      __HAL_RCC_HSE_CONFIG(RCC_OscInitStruct->HSEState);
 8001b96:	687b      	ldr	r3, [r7, #4]
 8001b98:	685b      	ldr	r3, [r3, #4]
 8001b9a:	f5b3 3f80 	cmp.w	r3, #65536	; 0x10000
 8001b9e:	d106      	bne.n	8001bae <HAL_RCC_OscConfig+0x76>
 8001ba0:	4b80      	ldr	r3, [pc, #512]	; (8001da4 <HAL_RCC_OscConfig+0x26c>)
 8001ba2:	681b      	ldr	r3, [r3, #0]
 8001ba4:	4a7f      	ldr	r2, [pc, #508]	; (8001da4 <HAL_RCC_OscConfig+0x26c>)
 8001ba6:	f443 3380 	orr.w	r3, r3, #65536	; 0x10000
 8001baa:	6013      	str	r3, [r2, #0]
 8001bac:	e02e      	b.n	8001c0c <HAL_RCC_OscConfig+0xd4>
 8001bae:	687b      	ldr	r3, [r7, #4]
 8001bb0:	685b      	ldr	r3, [r3, #4]
 8001bb2:	2b00      	cmp	r3, #0
 8001bb4:	d10c      	bne.n	8001bd0 <HAL_RCC_OscConfig+0x98>
 8001bb6:	4b7b      	ldr	r3, [pc, #492]	; (8001da4 <HAL_RCC_OscConfig+0x26c>)
 8001bb8:	681b      	ldr	r3, [r3, #0]
 8001bba:	4a7a      	ldr	r2, [pc, #488]	; (8001da4 <HAL_RCC_OscConfig+0x26c>)
 8001bbc:	f423 3380 	bic.w	r3, r3, #65536	; 0x10000
 8001bc0:	6013      	str	r3, [r2, #0]
 8001bc2:	4b78      	ldr	r3, [pc, #480]	; (8001da4 <HAL_RCC_OscConfig+0x26c>)
 8001bc4:	681b      	ldr	r3, [r3, #0]
 8001bc6:	4a77      	ldr	r2, [pc, #476]	; (8001da4 <HAL_RCC_OscConfig+0x26c>)
 8001bc8:	f423 2380 	bic.w	r3, r3, #262144	; 0x40000
 8001bcc:	6013      	str	r3, [r2, #0]
 8001bce:	e01d      	b.n	8001c0c <HAL_RCC_OscConfig+0xd4>
 8001bd0:	687b      	ldr	r3, [r7, #4]
 8001bd2:	685b      	ldr	r3, [r3, #4]
 8001bd4:	f5b3 2fa0 	cmp.w	r3, #327680	; 0x50000
 8001bd8:	d10c      	bne.n	8001bf4 <HAL_RCC_OscConfig+0xbc>
 8001bda:	4b72      	ldr	r3, [pc, #456]	; (8001da4 <HAL_RCC_OscConfig+0x26c>)
 8001bdc:	681b      	ldr	r3, [r3, #0]
 8001bde:	4a71      	ldr	r2, [pc, #452]	; (8001da4 <HAL_RCC_OscConfig+0x26c>)
 8001be0:	f443 2380 	orr.w	r3, r3, #262144	; 0x40000
 8001be4:	6013      	str	r3, [r2, #0]
 8001be6:	4b6f      	ldr	r3, [pc, #444]	; (8001da4 <HAL_RCC_OscConfig+0x26c>)
 8001be8:	681b      	ldr	r3, [r3, #0]
 8001bea:	4a6e      	ldr	r2, [pc, #440]	; (8001da4 <HAL_RCC_OscConfig+0x26c>)
 8001bec:	f443 3380 	orr.w	r3, r3, #65536	; 0x10000
 8001bf0:	6013      	str	r3, [r2, #0]
 8001bf2:	e00b      	b.n	8001c0c <HAL_RCC_OscConfig+0xd4>
 8001bf4:	4b6b      	ldr	r3, [pc, #428]	; (8001da4 <HAL_RCC_OscConfig+0x26c>)
 8001bf6:	681b      	ldr	r3, [r3, #0]
 8001bf8:	4a6a      	ldr	r2, [pc, #424]	; (8001da4 <HAL_RCC_OscConfig+0x26c>)
 8001bfa:	f423 3380 	bic.w	r3, r3, #65536	; 0x10000
 8001bfe:	6013      	str	r3, [r2, #0]
 8001c00:	4b68      	ldr	r3, [pc, #416]	; (8001da4 <HAL_RCC_OscConfig+0x26c>)
 8001c02:	681b      	ldr	r3, [r3, #0]
 8001c04:	4a67      	ldr	r2, [pc, #412]	; (8001da4 <HAL_RCC_OscConfig+0x26c>)
 8001c06:	f423 2380 	bic.w	r3, r3, #262144	; 0x40000
 8001c0a:	6013      	str	r3, [r2, #0]


      /* Check the HSE State */
      if (RCC_OscInitStruct->HSEState != RCC_HSE_OFF)
 8001c0c:	687b      	ldr	r3, [r7, #4]
 8001c0e:	685b      	ldr	r3, [r3, #4]
 8001c10:	2b00      	cmp	r3, #0
 8001c12:	d013      	beq.n	8001c3c <HAL_RCC_OscConfig+0x104>
      {
        /* Get Start Tick */
        tickstart = HAL_GetTick();
 8001c14:	f7ff fcec 	bl	80015f0 <HAL_GetTick>
 8001c18:	6138      	str	r0, [r7, #16]

        /* Wait till HSE is ready */
        while (__HAL_RCC_GET_FLAG(RCC_FLAG_HSERDY) == RESET)
 8001c1a:	e008      	b.n	8001c2e <HAL_RCC_OscConfig+0xf6>
        {
          if ((HAL_GetTick() - tickstart) > HSE_TIMEOUT_VALUE)
 8001c1c:	f7ff fce8 	bl	80015f0 <HAL_GetTick>
 8001c20:	4602      	mov	r2, r0
 8001c22:	693b      	ldr	r3, [r7, #16]
 8001c24:	1ad3      	subs	r3, r2, r3
 8001c26:	2b64      	cmp	r3, #100	; 0x64
 8001c28:	d901      	bls.n	8001c2e <HAL_RCC_OscConfig+0xf6>
          {
            return HAL_TIMEOUT;
 8001c2a:	2303      	movs	r3, #3
 8001c2c:	e1fa      	b.n	8002024 <HAL_RCC_OscConfig+0x4ec>
        while (__HAL_RCC_GET_FLAG(RCC_FLAG_HSERDY) == RESET)
 8001c2e:	4b5d      	ldr	r3, [pc, #372]	; (8001da4 <HAL_RCC_OscConfig+0x26c>)
 8001c30:	681b      	ldr	r3, [r3, #0]
 8001c32:	f403 3300 	and.w	r3, r3, #131072	; 0x20000
 8001c36:	2b00      	cmp	r3, #0
 8001c38:	d0f0      	beq.n	8001c1c <HAL_RCC_OscConfig+0xe4>
 8001c3a:	e014      	b.n	8001c66 <HAL_RCC_OscConfig+0x12e>
        }
      }
      else
      {
        /* Get Start Tick */
        tickstart = HAL_GetTick();
 8001c3c:	f7ff fcd8 	bl	80015f0 <HAL_GetTick>
 8001c40:	6138      	str	r0, [r7, #16]

        /* Wait till HSE is disabled */
        while (__HAL_RCC_GET_FLAG(RCC_FLAG_HSERDY) != RESET)
 8001c42:	e008      	b.n	8001c56 <HAL_RCC_OscConfig+0x11e>
        {
          if ((HAL_GetTick() - tickstart) > HSE_TIMEOUT_VALUE)
 8001c44:	f7ff fcd4 	bl	80015f0 <HAL_GetTick>
 8001c48:	4602      	mov	r2, r0
 8001c4a:	693b      	ldr	r3, [r7, #16]
 8001c4c:	1ad3      	subs	r3, r2, r3
 8001c4e:	2b64      	cmp	r3, #100	; 0x64
 8001c50:	d901      	bls.n	8001c56 <HAL_RCC_OscConfig+0x11e>
          {
            return HAL_TIMEOUT;
 8001c52:	2303      	movs	r3, #3
 8001c54:	e1e6      	b.n	8002024 <HAL_RCC_OscConfig+0x4ec>
        while (__HAL_RCC_GET_FLAG(RCC_FLAG_HSERDY) != RESET)
 8001c56:	4b53      	ldr	r3, [pc, #332]	; (8001da4 <HAL_RCC_OscConfig+0x26c>)
 8001c58:	681b      	ldr	r3, [r3, #0]
 8001c5a:	f403 3300 	and.w	r3, r3, #131072	; 0x20000
 8001c5e:	2b00      	cmp	r3, #0
 8001c60:	d1f0      	bne.n	8001c44 <HAL_RCC_OscConfig+0x10c>
 8001c62:	e000      	b.n	8001c66 <HAL_RCC_OscConfig+0x12e>
      if ((__HAL_RCC_GET_FLAG(RCC_FLAG_HSERDY) != RESET) && (RCC_OscInitStruct->HSEState == RCC_HSE_OFF))
 8001c64:	bf00      	nop
        }
      }
    }
  }
  /*----------------------------- HSI Configuration --------------------------*/
  if (((RCC_OscInitStruct->OscillatorType) & RCC_OSCILLATORTYPE_HSI) == RCC_OSCILLATORTYPE_HSI)
 8001c66:	687b      	ldr	r3, [r7, #4]
 8001c68:	681b      	ldr	r3, [r3, #0]
 8001c6a:	f003 0302 	and.w	r3, r3, #2
 8001c6e:	2b00      	cmp	r3, #0
 8001c70:	d063      	beq.n	8001d3a <HAL_RCC_OscConfig+0x202>
    /* Check the parameters */
    assert_param(IS_RCC_HSI(RCC_OscInitStruct->HSIState));
    assert_param(IS_RCC_CALIBRATION_VALUE(RCC_OscInitStruct->HSICalibrationValue));

    /* Check if HSI is used as system clock or as PLL source when PLL is selected as system clock */
    if ((__HAL_RCC_GET_SYSCLK_SOURCE() == RCC_SYSCLKSOURCE_STATUS_HSI)
 8001c72:	4b4c      	ldr	r3, [pc, #304]	; (8001da4 <HAL_RCC_OscConfig+0x26c>)
 8001c74:	685b      	ldr	r3, [r3, #4]
 8001c76:	f003 030c 	and.w	r3, r3, #12
 8001c7a:	2b00      	cmp	r3, #0
 8001c7c:	d00b      	beq.n	8001c96 <HAL_RCC_OscConfig+0x15e>
        || ((__HAL_RCC_GET_SYSCLK_SOURCE() == RCC_SYSCLKSOURCE_STATUS_PLLCLK) && (__HAL_RCC_GET_PLL_OSCSOURCE() == RCC_PLLSOURCE_HSI_DIV2)))
 8001c7e:	4b49      	ldr	r3, [pc, #292]	; (8001da4 <HAL_RCC_OscConfig+0x26c>)
 8001c80:	685b      	ldr	r3, [r3, #4]
 8001c82:	f003 030c 	and.w	r3, r3, #12
 8001c86:	2b08      	cmp	r3, #8
 8001c88:	d11c      	bne.n	8001cc4 <HAL_RCC_OscConfig+0x18c>
 8001c8a:	4b46      	ldr	r3, [pc, #280]	; (8001da4 <HAL_RCC_OscConfig+0x26c>)
 8001c8c:	685b      	ldr	r3, [r3, #4]
 8001c8e:	f403 3380 	and.w	r3, r3, #65536	; 0x10000
 8001c92:	2b00      	cmp	r3, #0
 8001c94:	d116      	bne.n	8001cc4 <HAL_RCC_OscConfig+0x18c>
    {
      /* When HSI is used as system clock it will not disabled */
      if ((__HAL_RCC_GET_FLAG(RCC_FLAG_HSIRDY) != RESET) && (RCC_OscInitStruct->HSIState != RCC_HSI_ON))
 8001c96:	4b43      	ldr	r3, [pc, #268]	; (8001da4 <HAL_RCC_OscConfig+0x26c>)
 8001c98:	681b      	ldr	r3, [r3, #0]
 8001c9a:	f003 0302 	and.w	r3, r3, #2
 8001c9e:	2b00      	cmp	r3, #0
 8001ca0:	d005      	beq.n	8001cae <HAL_RCC_OscConfig+0x176>
 8001ca2:	687b      	ldr	r3, [r7, #4]
 8001ca4:	691b      	ldr	r3, [r3, #16]
 8001ca6:	2b01      	cmp	r3, #1
 8001ca8:	d001      	beq.n	8001cae <HAL_RCC_OscConfig+0x176>
      {
        return HAL_ERROR;
 8001caa:	2301      	movs	r3, #1
 8001cac:	e1ba      	b.n	8002024 <HAL_RCC_OscConfig+0x4ec>
      }
      /* Otherwise, just the calibration is allowed */
      else
      {
        /* Adjusts the Internal High Speed oscillator (HSI) calibration value.*/
        __HAL_RCC_HSI_CALIBRATIONVALUE_ADJUST(RCC_OscInitStruct->HSICalibrationValue);
 8001cae:	4b3d      	ldr	r3, [pc, #244]	; (8001da4 <HAL_RCC_OscConfig+0x26c>)
 8001cb0:	681b      	ldr	r3, [r3, #0]
 8001cb2:	f023 02f8 	bic.w	r2, r3, #248	; 0xf8
 8001cb6:	687b      	ldr	r3, [r7, #4]
 8001cb8:	695b      	ldr	r3, [r3, #20]
 8001cba:	00db      	lsls	r3, r3, #3
 8001cbc:	4939      	ldr	r1, [pc, #228]	; (8001da4 <HAL_RCC_OscConfig+0x26c>)
 8001cbe:	4313      	orrs	r3, r2
 8001cc0:	600b      	str	r3, [r1, #0]
      if ((__HAL_RCC_GET_FLAG(RCC_FLAG_HSIRDY) != RESET) && (RCC_OscInitStruct->HSIState != RCC_HSI_ON))
 8001cc2:	e03a      	b.n	8001d3a <HAL_RCC_OscConfig+0x202>
      }
    }
    else
    {
      /* Check the HSI State */
      if (RCC_OscInitStruct->HSIState != RCC_HSI_OFF)
 8001cc4:	687b      	ldr	r3, [r7, #4]
 8001cc6:	691b      	ldr	r3, [r3, #16]
 8001cc8:	2b00      	cmp	r3, #0
 8001cca:	d020      	beq.n	8001d0e <HAL_RCC_OscConfig+0x1d6>
      {
        /* Enable the Internal High Speed oscillator (HSI). */
        __HAL_RCC_HSI_ENABLE();
 8001ccc:	4b36      	ldr	r3, [pc, #216]	; (8001da8 <HAL_RCC_OscConfig+0x270>)
 8001cce:	2201      	movs	r2, #1
 8001cd0:	601a      	str	r2, [r3, #0]

        /* Get Start Tick */
        tickstart = HAL_GetTick();
 8001cd2:	f7ff fc8d 	bl	80015f0 <HAL_GetTick>
 8001cd6:	6138      	str	r0, [r7, #16]

        /* Wait till HSI is ready */
        while (__HAL_RCC_GET_FLAG(RCC_FLAG_HSIRDY) == RESET)
 8001cd8:	e008      	b.n	8001cec <HAL_RCC_OscConfig+0x1b4>
        {
          if ((HAL_GetTick() - tickstart) > HSI_TIMEOUT_VALUE)
 8001cda:	f7ff fc89 	bl	80015f0 <HAL_GetTick>
 8001cde:	4602      	mov	r2, r0
 8001ce0:	693b      	ldr	r3, [r7, #16]
 8001ce2:	1ad3      	subs	r3, r2, r3
 8001ce4:	2b02      	cmp	r3, #2
 8001ce6:	d901      	bls.n	8001cec <HAL_RCC_OscConfig+0x1b4>
          {
            return HAL_TIMEOUT;
 8001ce8:	2303      	movs	r3, #3
 8001cea:	e19b      	b.n	8002024 <HAL_RCC_OscConfig+0x4ec>
        while (__HAL_RCC_GET_FLAG(RCC_FLAG_HSIRDY) == RESET)
 8001cec:	4b2d      	ldr	r3, [pc, #180]	; (8001da4 <HAL_RCC_OscConfig+0x26c>)
 8001cee:	681b      	ldr	r3, [r3, #0]
 8001cf0:	f003 0302 	and.w	r3, r3, #2
 8001cf4:	2b00      	cmp	r3, #0
 8001cf6:	d0f0      	beq.n	8001cda <HAL_RCC_OscConfig+0x1a2>
          }
        }

        /* Adjusts the Internal High Speed oscillator (HSI) calibration value.*/
        __HAL_RCC_HSI_CALIBRATIONVALUE_ADJUST(RCC_OscInitStruct->HSICalibrationValue);
 8001cf8:	4b2a      	ldr	r3, [pc, #168]	; (8001da4 <HAL_RCC_OscConfig+0x26c>)
 8001cfa:	681b      	ldr	r3, [r3, #0]
 8001cfc:	f023 02f8 	bic.w	r2, r3, #248	; 0xf8
 8001d00:	687b      	ldr	r3, [r7, #4]
 8001d02:	695b      	ldr	r3, [r3, #20]
 8001d04:	00db      	lsls	r3, r3, #3
 8001d06:	4927      	ldr	r1, [pc, #156]	; (8001da4 <HAL_RCC_OscConfig+0x26c>)
 8001d08:	4313      	orrs	r3, r2
 8001d0a:	600b      	str	r3, [r1, #0]
 8001d0c:	e015      	b.n	8001d3a <HAL_RCC_OscConfig+0x202>
      }
      else
      {
        /* Disable the Internal High Speed oscillator (HSI). */
        __HAL_RCC_HSI_DISABLE();
 8001d0e:	4b26      	ldr	r3, [pc, #152]	; (8001da8 <HAL_RCC_OscConfig+0x270>)
 8001d10:	2200      	movs	r2, #0
 8001d12:	601a      	str	r2, [r3, #0]

        /* Get Start Tick */
        tickstart = HAL_GetTick();
 8001d14:	f7ff fc6c 	bl	80015f0 <HAL_GetTick>
 8001d18:	6138      	str	r0, [r7, #16]

        /* Wait till HSI is disabled */
        while (__HAL_RCC_GET_FLAG(RCC_FLAG_HSIRDY) != RESET)
 8001d1a:	e008      	b.n	8001d2e <HAL_RCC_OscConfig+0x1f6>
        {
          if ((HAL_GetTick() - tickstart) > HSI_TIMEOUT_VALUE)
 8001d1c:	f7ff fc68 	bl	80015f0 <HAL_GetTick>
 8001d20:	4602      	mov	r2, r0
 8001d22:	693b      	ldr	r3, [r7, #16]
 8001d24:	1ad3      	subs	r3, r2, r3
 8001d26:	2b02      	cmp	r3, #2
 8001d28:	d901      	bls.n	8001d2e <HAL_RCC_OscConfig+0x1f6>
          {
            return HAL_TIMEOUT;
 8001d2a:	2303      	movs	r3, #3
 8001d2c:	e17a      	b.n	8002024 <HAL_RCC_OscConfig+0x4ec>
        while (__HAL_RCC_GET_FLAG(RCC_FLAG_HSIRDY) != RESET)
 8001d2e:	4b1d      	ldr	r3, [pc, #116]	; (8001da4 <HAL_RCC_OscConfig+0x26c>)
 8001d30:	681b      	ldr	r3, [r3, #0]
 8001d32:	f003 0302 	and.w	r3, r3, #2
 8001d36:	2b00      	cmp	r3, #0
 8001d38:	d1f0      	bne.n	8001d1c <HAL_RCC_OscConfig+0x1e4>
        }
      }
    }
  }
  /*------------------------------ LSI Configuration -------------------------*/
  if (((RCC_OscInitStruct->OscillatorType) & RCC_OSCILLATORTYPE_LSI) == RCC_OSCILLATORTYPE_LSI)
 8001d3a:	687b      	ldr	r3, [r7, #4]
 8001d3c:	681b      	ldr	r3, [r3, #0]
 8001d3e:	f003 0308 	and.w	r3, r3, #8
 8001d42:	2b00      	cmp	r3, #0
 8001d44:	d03a      	beq.n	8001dbc <HAL_RCC_OscConfig+0x284>
  {
    /* Check the parameters */
    assert_param(IS_RCC_LSI(RCC_OscInitStruct->LSIState));

    /* Check the LSI State */
    if (RCC_OscInitStruct->LSIState != RCC_LSI_OFF)
 8001d46:	687b      	ldr	r3, [r7, #4]
 8001d48:	699b      	ldr	r3, [r3, #24]
 8001d4a:	2b00      	cmp	r3, #0
 8001d4c:	d019      	beq.n	8001d82 <HAL_RCC_OscConfig+0x24a>
    {
      /* Enable the Internal Low Speed oscillator (LSI). */
      __HAL_RCC_LSI_ENABLE();
 8001d4e:	4b17      	ldr	r3, [pc, #92]	; (8001dac <HAL_RCC_OscConfig+0x274>)
 8001d50:	2201      	movs	r2, #1
 8001d52:	601a      	str	r2, [r3, #0]

      /* Get Start Tick */
      tickstart = HAL_GetTick();
 8001d54:	f7ff fc4c 	bl	80015f0 <HAL_GetTick>
 8001d58:	6138      	str	r0, [r7, #16]

      /* Wait till LSI is ready */
      while (__HAL_RCC_GET_FLAG(RCC_FLAG_LSIRDY) == RESET)
 8001d5a:	e008      	b.n	8001d6e <HAL_RCC_OscConfig+0x236>
      {
        if ((HAL_GetTick() - tickstart) > LSI_TIMEOUT_VALUE)
 8001d5c:	f7ff fc48 	bl	80015f0 <HAL_GetTick>
 8001d60:	4602      	mov	r2, r0
 8001d62:	693b      	ldr	r3, [r7, #16]
 8001d64:	1ad3      	subs	r3, r2, r3
 8001d66:	2b02      	cmp	r3, #2
 8001d68:	d901      	bls.n	8001d6e <HAL_RCC_OscConfig+0x236>
        {
          return HAL_TIMEOUT;
 8001d6a:	2303      	movs	r3, #3
 8001d6c:	e15a      	b.n	8002024 <HAL_RCC_OscConfig+0x4ec>
      while (__HAL_RCC_GET_FLAG(RCC_FLAG_LSIRDY) == RESET)
 8001d6e:	4b0d      	ldr	r3, [pc, #52]	; (8001da4 <HAL_RCC_OscConfig+0x26c>)
 8001d70:	6a5b      	ldr	r3, [r3, #36]	; 0x24
 8001d72:	f003 0302 	and.w	r3, r3, #2
 8001d76:	2b00      	cmp	r3, #0
 8001d78:	d0f0      	beq.n	8001d5c <HAL_RCC_OscConfig+0x224>
        }
      }
      /*  To have a fully stabilized clock in the specified range, a software delay of 1ms
          should be added.*/
      RCC_Delay(1);
 8001d7a:	2001      	movs	r0, #1
 8001d7c:	f000 fad8 	bl	8002330 <RCC_Delay>
 8001d80:	e01c      	b.n	8001dbc <HAL_RCC_OscConfig+0x284>
    }
    else
    {
      /* Disable the Internal Low Speed oscillator (LSI). */
      __HAL_RCC_LSI_DISABLE();
 8001d82:	4b0a      	ldr	r3, [pc, #40]	; (8001dac <HAL_RCC_OscConfig+0x274>)
 8001d84:	2200      	movs	r2, #0
 8001d86:	601a      	str	r2, [r3, #0]

      /* Get Start Tick */
      tickstart = HAL_GetTick();
 8001d88:	f7ff fc32 	bl	80015f0 <HAL_GetTick>
 8001d8c:	6138      	str	r0, [r7, #16]

      /* Wait till LSI is disabled */
      while (__HAL_RCC_GET_FLAG(RCC_FLAG_LSIRDY) != RESET)
 8001d8e:	e00f      	b.n	8001db0 <HAL_RCC_OscConfig+0x278>
      {
        if ((HAL_GetTick() - tickstart) > LSI_TIMEOUT_VALUE)
 8001d90:	f7ff fc2e 	bl	80015f0 <HAL_GetTick>
 8001d94:	4602      	mov	r2, r0
 8001d96:	693b      	ldr	r3, [r7, #16]
 8001d98:	1ad3      	subs	r3, r2, r3
 8001d9a:	2b02      	cmp	r3, #2
 8001d9c:	d908      	bls.n	8001db0 <HAL_RCC_OscConfig+0x278>
        {
          return HAL_TIMEOUT;
 8001d9e:	2303      	movs	r3, #3
 8001da0:	e140      	b.n	8002024 <HAL_RCC_OscConfig+0x4ec>
 8001da2:	bf00      	nop
 8001da4:	40021000 	.word	0x40021000
 8001da8:	42420000 	.word	0x42420000
 8001dac:	42420480 	.word	0x42420480
      while (__HAL_RCC_GET_FLAG(RCC_FLAG_LSIRDY) != RESET)
 8001db0:	4b9e      	ldr	r3, [pc, #632]	; (800202c <HAL_RCC_OscConfig+0x4f4>)
 8001db2:	6a5b      	ldr	r3, [r3, #36]	; 0x24
 8001db4:	f003 0302 	and.w	r3, r3, #2
 8001db8:	2b00      	cmp	r3, #0
 8001dba:	d1e9      	bne.n	8001d90 <HAL_RCC_OscConfig+0x258>
        }
      }
    }
  }
  /*------------------------------ LSE Configuration -------------------------*/
  if (((RCC_OscInitStruct->OscillatorType) & RCC_OSCILLATORTYPE_LSE) == RCC_OSCILLATORTYPE_LSE)
 8001dbc:	687b      	ldr	r3, [r7, #4]
 8001dbe:	681b      	ldr	r3, [r3, #0]
 8001dc0:	f003 0304 	and.w	r3, r3, #4
 8001dc4:	2b00      	cmp	r3, #0
 8001dc6:	f000 80a6 	beq.w	8001f16 <HAL_RCC_OscConfig+0x3de>
  {
    FlagStatus       pwrclkchanged = RESET;
 8001dca:	2300      	movs	r3, #0
 8001dcc:	75fb      	strb	r3, [r7, #23]
    /* Check the parameters */
    assert_param(IS_RCC_LSE(RCC_OscInitStruct->LSEState));

    /* Update LSE configuration in Backup Domain control register    */
    /* Requires to enable write access to Backup Domain of necessary */
    if (__HAL_RCC_PWR_IS_CLK_DISABLED())
 8001dce:	4b97      	ldr	r3, [pc, #604]	; (800202c <HAL_RCC_OscConfig+0x4f4>)
 8001dd0:	69db      	ldr	r3, [r3, #28]
 8001dd2:	f003 5380 	and.w	r3, r3, #268435456	; 0x10000000
 8001dd6:	2b00      	cmp	r3, #0
 8001dd8:	d10d      	bne.n	8001df6 <HAL_RCC_OscConfig+0x2be>
    {
      __HAL_RCC_PWR_CLK_ENABLE();
 8001dda:	4b94      	ldr	r3, [pc, #592]	; (800202c <HAL_RCC_OscConfig+0x4f4>)
 8001ddc:	69db      	ldr	r3, [r3, #28]
 8001dde:	4a93      	ldr	r2, [pc, #588]	; (800202c <HAL_RCC_OscConfig+0x4f4>)
 8001de0:	f043 5380 	orr.w	r3, r3, #268435456	; 0x10000000
 8001de4:	61d3      	str	r3, [r2, #28]
 8001de6:	4b91      	ldr	r3, [pc, #580]	; (800202c <HAL_RCC_OscConfig+0x4f4>)
 8001de8:	69db      	ldr	r3, [r3, #28]
 8001dea:	f003 5380 	and.w	r3, r3, #268435456	; 0x10000000
 8001dee:	60bb      	str	r3, [r7, #8]
 8001df0:	68bb      	ldr	r3, [r7, #8]
      pwrclkchanged = SET;
 8001df2:	2301      	movs	r3, #1
 8001df4:	75fb      	strb	r3, [r7, #23]
    }

    if (HAL_IS_BIT_CLR(PWR->CR, PWR_CR_DBP))
 8001df6:	4b8e      	ldr	r3, [pc, #568]	; (8002030 <HAL_RCC_OscConfig+0x4f8>)
 8001df8:	681b      	ldr	r3, [r3, #0]
 8001dfa:	f403 7380 	and.w	r3, r3, #256	; 0x100
 8001dfe:	2b00      	cmp	r3, #0
 8001e00:	d118      	bne.n	8001e34 <HAL_RCC_OscConfig+0x2fc>
    {
      /* Enable write access to Backup domain */
      SET_BIT(PWR->CR, PWR_CR_DBP);
 8001e02:	4b8b      	ldr	r3, [pc, #556]	; (8002030 <HAL_RCC_OscConfig+0x4f8>)
 8001e04:	681b      	ldr	r3, [r3, #0]
 8001e06:	4a8a      	ldr	r2, [pc, #552]	; (8002030 <HAL_RCC_OscConfig+0x4f8>)
 8001e08:	f443 7380 	orr.w	r3, r3, #256	; 0x100
 8001e0c:	6013      	str	r3, [r2, #0]

      /* Wait for Backup domain Write protection disable */
      tickstart = HAL_GetTick();
 8001e0e:	f7ff fbef 	bl	80015f0 <HAL_GetTick>
 8001e12:	6138      	str	r0, [r7, #16]

      while (HAL_IS_BIT_CLR(PWR->CR, PWR_CR_DBP))
 8001e14:	e008      	b.n	8001e28 <HAL_RCC_OscConfig+0x2f0>
      {
        if ((HAL_GetTick() - tickstart) > RCC_DBP_TIMEOUT_VALUE)
 8001e16:	f7ff fbeb 	bl	80015f0 <HAL_GetTick>
 8001e1a:	4602      	mov	r2, r0
 8001e1c:	693b      	ldr	r3, [r7, #16]
 8001e1e:	1ad3      	subs	r3, r2, r3
 8001e20:	2b64      	cmp	r3, #100	; 0x64
 8001e22:	d901      	bls.n	8001e28 <HAL_RCC_OscConfig+0x2f0>
        {
          return HAL_TIMEOUT;
 8001e24:	2303      	movs	r3, #3
 8001e26:	e0fd      	b.n	8002024 <HAL_RCC_OscConfig+0x4ec>
      while (HAL_IS_BIT_CLR(PWR->CR, PWR_CR_DBP))
 8001e28:	4b81      	ldr	r3, [pc, #516]	; (8002030 <HAL_RCC_OscConfig+0x4f8>)
 8001e2a:	681b      	ldr	r3, [r3, #0]
 8001e2c:	f403 7380 	and.w	r3, r3, #256	; 0x100
 8001e30:	2b00      	cmp	r3, #0
 8001e32:	d0f0      	beq.n	8001e16 <HAL_RCC_OscConfig+0x2de>
        }
      }
    }

    /* Set the new LSE configuration -----------------------------------------*/
    __HAL_RCC_LSE_CONFIG(RCC_OscInitStruct->LSEState);
 8001e34:	687b      	ldr	r3, [r7, #4]
 8001e36:	68db      	ldr	r3, [r3, #12]
 8001e38:	2b01      	cmp	r3, #1
 8001e3a:	d106      	bne.n	8001e4a <HAL_RCC_OscConfig+0x312>
 8001e3c:	4b7b      	ldr	r3, [pc, #492]	; (800202c <HAL_RCC_OscConfig+0x4f4>)
 8001e3e:	6a1b      	ldr	r3, [r3, #32]
 8001e40:	4a7a      	ldr	r2, [pc, #488]	; (800202c <HAL_RCC_OscConfig+0x4f4>)
 8001e42:	f043 0301 	orr.w	r3, r3, #1
 8001e46:	6213      	str	r3, [r2, #32]
 8001e48:	e02d      	b.n	8001ea6 <HAL_RCC_OscConfig+0x36e>
 8001e4a:	687b      	ldr	r3, [r7, #4]
 8001e4c:	68db      	ldr	r3, [r3, #12]
 8001e4e:	2b00      	cmp	r3, #0
 8001e50:	d10c      	bne.n	8001e6c <HAL_RCC_OscConfig+0x334>
 8001e52:	4b76      	ldr	r3, [pc, #472]	; (800202c <HAL_RCC_OscConfig+0x4f4>)
 8001e54:	6a1b      	ldr	r3, [r3, #32]
 8001e56:	4a75      	ldr	r2, [pc, #468]	; (800202c <HAL_RCC_OscConfig+0x4f4>)
 8001e58:	f023 0301 	bic.w	r3, r3, #1
 8001e5c:	6213      	str	r3, [r2, #32]
 8001e5e:	4b73      	ldr	r3, [pc, #460]	; (800202c <HAL_RCC_OscConfig+0x4f4>)
 8001e60:	6a1b      	ldr	r3, [r3, #32]
 8001e62:	4a72      	ldr	r2, [pc, #456]	; (800202c <HAL_RCC_OscConfig+0x4f4>)
 8001e64:	f023 0304 	bic.w	r3, r3, #4
 8001e68:	6213      	str	r3, [r2, #32]
 8001e6a:	e01c      	b.n	8001ea6 <HAL_RCC_OscConfig+0x36e>
 8001e6c:	687b      	ldr	r3, [r7, #4]
 8001e6e:	68db      	ldr	r3, [r3, #12]
 8001e70:	2b05      	cmp	r3, #5
 8001e72:	d10c      	bne.n	8001e8e <HAL_RCC_OscConfig+0x356>
 8001e74:	4b6d      	ldr	r3, [pc, #436]	; (800202c <HAL_RCC_OscConfig+0x4f4>)
 8001e76:	6a1b      	ldr	r3, [r3, #32]
 8001e78:	4a6c      	ldr	r2, [pc, #432]	; (800202c <HAL_RCC_OscConfig+0x4f4>)
 8001e7a:	f043 0304 	orr.w	r3, r3, #4
 8001e7e:	6213      	str	r3, [r2, #32]
 8001e80:	4b6a      	ldr	r3, [pc, #424]	; (800202c <HAL_RCC_OscConfig+0x4f4>)
 8001e82:	6a1b      	ldr	r3, [r3, #32]
 8001e84:	4a69      	ldr	r2, [pc, #420]	; (800202c <HAL_RCC_OscConfig+0x4f4>)
 8001e86:	f043 0301 	orr.w	r3, r3, #1
 8001e8a:	6213      	str	r3, [r2, #32]
 8001e8c:	e00b      	b.n	8001ea6 <HAL_RCC_OscConfig+0x36e>
 8001e8e:	4b67      	ldr	r3, [pc, #412]	; (800202c <HAL_RCC_OscConfig+0x4f4>)
 8001e90:	6a1b      	ldr	r3, [r3, #32]
 8001e92:	4a66      	ldr	r2, [pc, #408]	; (800202c <HAL_RCC_OscConfig+0x4f4>)
 8001e94:	f023 0301 	bic.w	r3, r3, #1
 8001e98:	6213      	str	r3, [r2, #32]
 8001e9a:	4b64      	ldr	r3, [pc, #400]	; (800202c <HAL_RCC_OscConfig+0x4f4>)
 8001e9c:	6a1b      	ldr	r3, [r3, #32]
 8001e9e:	4a63      	ldr	r2, [pc, #396]	; (800202c <HAL_RCC_OscConfig+0x4f4>)
 8001ea0:	f023 0304 	bic.w	r3, r3, #4
 8001ea4:	6213      	str	r3, [r2, #32]
    /* Check the LSE State */
    if (RCC_OscInitStruct->LSEState != RCC_LSE_OFF)
 8001ea6:	687b      	ldr	r3, [r7, #4]
 8001ea8:	68db      	ldr	r3, [r3, #12]
 8001eaa:	2b00      	cmp	r3, #0
 8001eac:	d015      	beq.n	8001eda <HAL_RCC_OscConfig+0x3a2>
    {
      /* Get Start Tick */
      tickstart = HAL_GetTick();
 8001eae:	f7ff fb9f 	bl	80015f0 <HAL_GetTick>
 8001eb2:	6138      	str	r0, [r7, #16]

      /* Wait till LSE is ready */
      while (__HAL_RCC_GET_FLAG(RCC_FLAG_LSERDY) == RESET)
 8001eb4:	e00a      	b.n	8001ecc <HAL_RCC_OscConfig+0x394>
      {
        if ((HAL_GetTick() - tickstart) > RCC_LSE_TIMEOUT_VALUE)
 8001eb6:	f7ff fb9b 	bl	80015f0 <HAL_GetTick>
 8001eba:	4602      	mov	r2, r0
 8001ebc:	693b      	ldr	r3, [r7, #16]
 8001ebe:	1ad3      	subs	r3, r2, r3
 8001ec0:	f241 3288 	movw	r2, #5000	; 0x1388
 8001ec4:	4293      	cmp	r3, r2
 8001ec6:	d901      	bls.n	8001ecc <HAL_RCC_OscConfig+0x394>
        {
          return HAL_TIMEOUT;
 8001ec8:	2303      	movs	r3, #3
 8001eca:	e0ab      	b.n	8002024 <HAL_RCC_OscConfig+0x4ec>
      while (__HAL_RCC_GET_FLAG(RCC_FLAG_LSERDY) == RESET)
 8001ecc:	4b57      	ldr	r3, [pc, #348]	; (800202c <HAL_RCC_OscConfig+0x4f4>)
 8001ece:	6a1b      	ldr	r3, [r3, #32]
 8001ed0:	f003 0302 	and.w	r3, r3, #2
 8001ed4:	2b00      	cmp	r3, #0
 8001ed6:	d0ee      	beq.n	8001eb6 <HAL_RCC_OscConfig+0x37e>
 8001ed8:	e014      	b.n	8001f04 <HAL_RCC_OscConfig+0x3cc>
      }
    }
    else
    {
      /* Get Start Tick */
      tickstart = HAL_GetTick();
 8001eda:	f7ff fb89 	bl	80015f0 <HAL_GetTick>
 8001ede:	6138      	str	r0, [r7, #16]

      /* Wait till LSE is disabled */
      while (__HAL_RCC_GET_FLAG(RCC_FLAG_LSERDY) != RESET)
 8001ee0:	e00a      	b.n	8001ef8 <HAL_RCC_OscConfig+0x3c0>
      {
        if ((HAL_GetTick() - tickstart) > RCC_LSE_TIMEOUT_VALUE)
 8001ee2:	f7ff fb85 	bl	80015f0 <HAL_GetTick>
 8001ee6:	4602      	mov	r2, r0
 8001ee8:	693b      	ldr	r3, [r7, #16]
 8001eea:	1ad3      	subs	r3, r2, r3
 8001eec:	f241 3288 	movw	r2, #5000	; 0x1388
 8001ef0:	4293      	cmp	r3, r2
 8001ef2:	d901      	bls.n	8001ef8 <HAL_RCC_OscConfig+0x3c0>
        {
          return HAL_TIMEOUT;
 8001ef4:	2303      	movs	r3, #3
 8001ef6:	e095      	b.n	8002024 <HAL_RCC_OscConfig+0x4ec>
      while (__HAL_RCC_GET_FLAG(RCC_FLAG_LSERDY) != RESET)
 8001ef8:	4b4c      	ldr	r3, [pc, #304]	; (800202c <HAL_RCC_OscConfig+0x4f4>)
 8001efa:	6a1b      	ldr	r3, [r3, #32]
 8001efc:	f003 0302 	and.w	r3, r3, #2
 8001f00:	2b00      	cmp	r3, #0
 8001f02:	d1ee      	bne.n	8001ee2 <HAL_RCC_OscConfig+0x3aa>
        }
      }
    }

    /* Require to disable power clock if necessary */
    if (pwrclkchanged == SET)
 8001f04:	7dfb      	ldrb	r3, [r7, #23]
 8001f06:	2b01      	cmp	r3, #1
 8001f08:	d105      	bne.n	8001f16 <HAL_RCC_OscConfig+0x3de>
    {
      __HAL_RCC_PWR_CLK_DISABLE();
 8001f0a:	4b48      	ldr	r3, [pc, #288]	; (800202c <HAL_RCC_OscConfig+0x4f4>)
 8001f0c:	69db      	ldr	r3, [r3, #28]
 8001f0e:	4a47      	ldr	r2, [pc, #284]	; (800202c <HAL_RCC_OscConfig+0x4f4>)
 8001f10:	f023 5380 	bic.w	r3, r3, #268435456	; 0x10000000
 8001f14:	61d3      	str	r3, [r2, #28]

#endif /* RCC_CR_PLL2ON */
  /*-------------------------------- PLL Configuration -----------------------*/
  /* Check the parameters */
  assert_param(IS_RCC_PLL(RCC_OscInitStruct->PLL.PLLState));
  if ((RCC_OscInitStruct->PLL.PLLState) != RCC_PLL_NONE)
 8001f16:	687b      	ldr	r3, [r7, #4]
 8001f18:	69db      	ldr	r3, [r3, #28]
 8001f1a:	2b00      	cmp	r3, #0
 8001f1c:	f000 8081 	beq.w	8002022 <HAL_RCC_OscConfig+0x4ea>
  {
    /* Check if the PLL is used as system clock or not */
    if (__HAL_RCC_GET_SYSCLK_SOURCE() != RCC_SYSCLKSOURCE_STATUS_PLLCLK)
 8001f20:	4b42      	ldr	r3, [pc, #264]	; (800202c <HAL_RCC_OscConfig+0x4f4>)
 8001f22:	685b      	ldr	r3, [r3, #4]
 8001f24:	f003 030c 	and.w	r3, r3, #12
 8001f28:	2b08      	cmp	r3, #8
 8001f2a:	d061      	beq.n	8001ff0 <HAL_RCC_OscConfig+0x4b8>
    {
      if ((RCC_OscInitStruct->PLL.PLLState) == RCC_PLL_ON)
 8001f2c:	687b      	ldr	r3, [r7, #4]
 8001f2e:	69db      	ldr	r3, [r3, #28]
 8001f30:	2b02      	cmp	r3, #2
 8001f32:	d146      	bne.n	8001fc2 <HAL_RCC_OscConfig+0x48a>
        /* Check the parameters */
        assert_param(IS_RCC_PLLSOURCE(RCC_OscInitStruct->PLL.PLLSource));
        assert_param(IS_RCC_PLL_MUL(RCC_OscInitStruct->PLL.PLLMUL));

        /* Disable the main PLL. */
        __HAL_RCC_PLL_DISABLE();
 8001f34:	4b3f      	ldr	r3, [pc, #252]	; (8002034 <HAL_RCC_OscConfig+0x4fc>)
 8001f36:	2200      	movs	r2, #0
 8001f38:	601a      	str	r2, [r3, #0]

        /* Get Start Tick */
        tickstart = HAL_GetTick();
 8001f3a:	f7ff fb59 	bl	80015f0 <HAL_GetTick>
 8001f3e:	6138      	str	r0, [r7, #16]

        /* Wait till PLL is disabled */
        while (__HAL_RCC_GET_FLAG(RCC_FLAG_PLLRDY)  != RESET)
 8001f40:	e008      	b.n	8001f54 <HAL_RCC_OscConfig+0x41c>
        {
          if ((HAL_GetTick() - tickstart) > PLL_TIMEOUT_VALUE)
 8001f42:	f7ff fb55 	bl	80015f0 <HAL_GetTick>
 8001f46:	4602      	mov	r2, r0
 8001f48:	693b      	ldr	r3, [r7, #16]
 8001f4a:	1ad3      	subs	r3, r2, r3
 8001f4c:	2b02      	cmp	r3, #2
 8001f4e:	d901      	bls.n	8001f54 <HAL_RCC_OscConfig+0x41c>
          {
            return HAL_TIMEOUT;
 8001f50:	2303      	movs	r3, #3
 8001f52:	e067      	b.n	8002024 <HAL_RCC_OscConfig+0x4ec>
        while (__HAL_RCC_GET_FLAG(RCC_FLAG_PLLRDY)  != RESET)
 8001f54:	4b35      	ldr	r3, [pc, #212]	; (800202c <HAL_RCC_OscConfig+0x4f4>)
 8001f56:	681b      	ldr	r3, [r3, #0]
 8001f58:	f003 7300 	and.w	r3, r3, #33554432	; 0x2000000
 8001f5c:	2b00      	cmp	r3, #0
 8001f5e:	d1f0      	bne.n	8001f42 <HAL_RCC_OscConfig+0x40a>
          }
        }

        /* Configure the HSE prediv factor --------------------------------*/
        /* It can be written only when the PLL is disabled. Not used in PLL source is different than HSE */
        if (RCC_OscInitStruct->PLL.PLLSource == RCC_PLLSOURCE_HSE)
 8001f60:	687b      	ldr	r3, [r7, #4]
 8001f62:	6a1b      	ldr	r3, [r3, #32]
 8001f64:	f5b3 3f80 	cmp.w	r3, #65536	; 0x10000
 8001f68:	d108      	bne.n	8001f7c <HAL_RCC_OscConfig+0x444>
          /* Set PREDIV1 source */
          SET_BIT(RCC->CFGR2, RCC_OscInitStruct->Prediv1Source);
#endif /* RCC_CFGR2_PREDIV1SRC */

          /* Set PREDIV1 Value */
          __HAL_RCC_HSE_PREDIV_CONFIG(RCC_OscInitStruct->HSEPredivValue);
 8001f6a:	4b30      	ldr	r3, [pc, #192]	; (800202c <HAL_RCC_OscConfig+0x4f4>)
 8001f6c:	685b      	ldr	r3, [r3, #4]
 8001f6e:	f423 3200 	bic.w	r2, r3, #131072	; 0x20000
 8001f72:	687b      	ldr	r3, [r7, #4]
 8001f74:	689b      	ldr	r3, [r3, #8]
 8001f76:	492d      	ldr	r1, [pc, #180]	; (800202c <HAL_RCC_OscConfig+0x4f4>)
 8001f78:	4313      	orrs	r3, r2
 8001f7a:	604b      	str	r3, [r1, #4]
        }

        /* Configure the main PLL clock source and multiplication factors. */
        __HAL_RCC_PLL_CONFIG(RCC_OscInitStruct->PLL.PLLSource,
 8001f7c:	4b2b      	ldr	r3, [pc, #172]	; (800202c <HAL_RCC_OscConfig+0x4f4>)
 8001f7e:	685b      	ldr	r3, [r3, #4]
 8001f80:	f423 1274 	bic.w	r2, r3, #3997696	; 0x3d0000
 8001f84:	687b      	ldr	r3, [r7, #4]
 8001f86:	6a19      	ldr	r1, [r3, #32]
 8001f88:	687b      	ldr	r3, [r7, #4]
 8001f8a:	6a5b      	ldr	r3, [r3, #36]	; 0x24
 8001f8c:	430b      	orrs	r3, r1
 8001f8e:	4927      	ldr	r1, [pc, #156]	; (800202c <HAL_RCC_OscConfig+0x4f4>)
 8001f90:	4313      	orrs	r3, r2
 8001f92:	604b      	str	r3, [r1, #4]
                             RCC_OscInitStruct->PLL.PLLMUL);
        /* Enable the main PLL. */
        __HAL_RCC_PLL_ENABLE();
 8001f94:	4b27      	ldr	r3, [pc, #156]	; (8002034 <HAL_RCC_OscConfig+0x4fc>)
 8001f96:	2201      	movs	r2, #1
 8001f98:	601a      	str	r2, [r3, #0]

        /* Get Start Tick */
        tickstart = HAL_GetTick();
 8001f9a:	f7ff fb29 	bl	80015f0 <HAL_GetTick>
 8001f9e:	6138      	str	r0, [r7, #16]

        /* Wait till PLL is ready */
        while (__HAL_RCC_GET_FLAG(RCC_FLAG_PLLRDY)  == RESET)
 8001fa0:	e008      	b.n	8001fb4 <HAL_RCC_OscConfig+0x47c>
        {
          if ((HAL_GetTick() - tickstart) > PLL_TIMEOUT_VALUE)
 8001fa2:	f7ff fb25 	bl	80015f0 <HAL_GetTick>
 8001fa6:	4602      	mov	r2, r0
 8001fa8:	693b      	ldr	r3, [r7, #16]
 8001faa:	1ad3      	subs	r3, r2, r3
 8001fac:	2b02      	cmp	r3, #2
 8001fae:	d901      	bls.n	8001fb4 <HAL_RCC_OscConfig+0x47c>
          {
            return HAL_TIMEOUT;
 8001fb0:	2303      	movs	r3, #3
 8001fb2:	e037      	b.n	8002024 <HAL_RCC_OscConfig+0x4ec>
        while (__HAL_RCC_GET_FLAG(RCC_FLAG_PLLRDY)  == RESET)
 8001fb4:	4b1d      	ldr	r3, [pc, #116]	; (800202c <HAL_RCC_OscConfig+0x4f4>)
 8001fb6:	681b      	ldr	r3, [r3, #0]
 8001fb8:	f003 7300 	and.w	r3, r3, #33554432	; 0x2000000
 8001fbc:	2b00      	cmp	r3, #0
 8001fbe:	d0f0      	beq.n	8001fa2 <HAL_RCC_OscConfig+0x46a>
 8001fc0:	e02f      	b.n	8002022 <HAL_RCC_OscConfig+0x4ea>
        }
      }
      else
      {
        /* Disable the main PLL. */
        __HAL_RCC_PLL_DISABLE();
 8001fc2:	4b1c      	ldr	r3, [pc, #112]	; (8002034 <HAL_RCC_OscConfig+0x4fc>)
 8001fc4:	2200      	movs	r2, #0
 8001fc6:	601a      	str	r2, [r3, #0]

        /* Get Start Tick */
        tickstart = HAL_GetTick();
 8001fc8:	f7ff fb12 	bl	80015f0 <HAL_GetTick>
 8001fcc:	6138      	str	r0, [r7, #16]

        /* Wait till PLL is disabled */
        while (__HAL_RCC_GET_FLAG(RCC_FLAG_PLLRDY)  != RESET)
 8001fce:	e008      	b.n	8001fe2 <HAL_RCC_OscConfig+0x4aa>
        {
          if ((HAL_GetTick() - tickstart) > PLL_TIMEOUT_VALUE)
 8001fd0:	f7ff fb0e 	bl	80015f0 <HAL_GetTick>
 8001fd4:	4602      	mov	r2, r0
 8001fd6:	693b      	ldr	r3, [r7, #16]
 8001fd8:	1ad3      	subs	r3, r2, r3
 8001fda:	2b02      	cmp	r3, #2
 8001fdc:	d901      	bls.n	8001fe2 <HAL_RCC_OscConfig+0x4aa>
          {
            return HAL_TIMEOUT;
 8001fde:	2303      	movs	r3, #3
 8001fe0:	e020      	b.n	8002024 <HAL_RCC_OscConfig+0x4ec>
        while (__HAL_RCC_GET_FLAG(RCC_FLAG_PLLRDY)  != RESET)
 8001fe2:	4b12      	ldr	r3, [pc, #72]	; (800202c <HAL_RCC_OscConfig+0x4f4>)
 8001fe4:	681b      	ldr	r3, [r3, #0]
 8001fe6:	f003 7300 	and.w	r3, r3, #33554432	; 0x2000000
 8001fea:	2b00      	cmp	r3, #0
 8001fec:	d1f0      	bne.n	8001fd0 <HAL_RCC_OscConfig+0x498>
 8001fee:	e018      	b.n	8002022 <HAL_RCC_OscConfig+0x4ea>
      }
    }
    else
    {
      /* Check if there is a request to disable the PLL used as System clock source */
      if ((RCC_OscInitStruct->PLL.PLLState) == RCC_PLL_OFF)
 8001ff0:	687b      	ldr	r3, [r7, #4]
 8001ff2:	69db      	ldr	r3, [r3, #28]
 8001ff4:	2b01      	cmp	r3, #1
 8001ff6:	d101      	bne.n	8001ffc <HAL_RCC_OscConfig+0x4c4>
      {
        return HAL_ERROR;
 8001ff8:	2301      	movs	r3, #1
 8001ffa:	e013      	b.n	8002024 <HAL_RCC_OscConfig+0x4ec>
      }
      else
      {
        /* Do not return HAL_ERROR if request repeats the current configuration */
        pll_config = RCC->CFGR;
